{
  "address": "0xCf7Ed3AccA5a467e9e704C703E8D87F634fB0Fc9",
  "abi": [
    {
      "inputs": [
        {
          "internalType": "string",
          "name": "companyName",
          "type": "string"
        },
        {
          "internalType": "string",
          "name": "licenseName",
          "type": "string"
        },
        {
          "internalType": "uint256",
          "name": "licensePrice",
          "type": "uint256"
        },
        {
          "internalType": "uint256",
          "name": "subscriptionPeriodSecond",
          "type": "uint256"
        }
      ],
      "stateMutability": "nonpayable",
      "type": "constructor"
    },
    {
      "inputs": [],
      "name": "ERC721Metadata__URI_QueryFor_NonExistentToken",
      "type": "error"
    },
    {
      "inputs": [],
      "name": "SubscriptionLicense__NeedMoreETHSent",
      "type": "error"
    },
    {
      "inputs": [],
      "name": "SubscriptionLicense__TransferFailed",
      "type": "error"
    },
    {
      "anonymous": false,
      "inputs": [
        {
          "indexed": true,
          "internalType": "address",
          "name": "owner",
          "type": "address"
        },
        {
          "indexed": true,
          "internalType": "address",
          "name": "approved",
          "type": "address"
        },
        {
          "indexed": true,
          "internalType": "uint256",
          "name": "tokenId",
          "type": "uint256"
        }
      ],
      "name": "Approval",
      "type": "event"
    },
    {
      "anonymous": false,
      "inputs": [
        {
          "indexed": true,
          "internalType": "address",
          "name": "owner",
          "type": "address"
        },
        {
          "indexed": true,
          "internalType": "address",
          "name": "operator",
          "type": "address"
        },
        {
          "indexed": false,
          "internalType": "bool",
          "name": "approved",
          "type": "bool"
        }
      ],
      "name": "ApprovalForAll",
      "type": "event"
    },
    {
      "anonymous": false,
      "inputs": [
        {
          "indexed": true,
          "internalType": "uint256",
          "name": "tokenId",
          "type": "uint256"
        },
        {
          "indexed": false,
          "internalType": "uint256",
          "name": "licensePrice",
          "type": "uint256"
        }
      ],
      "name": "CreatedSubscriptionToken",
      "type": "event"
    },
    {
      "anonymous": false,
      "inputs": [
        {
          "indexed": true,
          "internalType": "address",
          "name": "previousOwner",
          "type": "address"
        },
        {
          "indexed": true,
          "internalType": "address",
          "name": "newOwner",
          "type": "address"
        }
      ],
      "name": "OwnershipTransferred",
      "type": "event"
    },
    {
      "anonymous": false,
      "inputs": [
        {
          "indexed": true,
          "internalType": "address",
          "name": "from",
          "type": "address"
        },
        {
          "indexed": true,
          "internalType": "address",
          "name": "to",
          "type": "address"
        },
        {
          "indexed": true,
          "internalType": "uint256",
          "name": "tokenId",
          "type": "uint256"
        }
      ],
      "name": "Transfer",
      "type": "event"
    },
    {
      "anonymous": false,
      "inputs": [
        {
          "indexed": true,
          "internalType": "uint256",
          "name": "tokenId",
          "type": "uint256"
        },
        {
          "indexed": false,
          "internalType": "uint256",
          "name": "licensePrice",
          "type": "uint256"
        }
      ],
      "name": "UpdatedSubscriptionToken",
      "type": "event"
    },
    {
      "inputs": [
        {
          "internalType": "uint256",
          "name": "tokenId",
          "type": "uint256"
        }
      ],
      "name": "allowTransfer",
      "outputs": [],
      "stateMutability": "nonpayable",
      "type": "function"
    },
    {
      "inputs": [
        {
          "internalType": "address",
          "name": "to",
          "type": "address"
        },
        {
          "internalType": "uint256",
          "name": "tokenId",
          "type": "uint256"
        }
      ],
      "name": "approve",
      "outputs": [],
      "stateMutability": "nonpayable",
      "type": "function"
    },
    {
      "inputs": [
        {
          "internalType": "address",
          "name": "owner",
          "type": "address"
        }
      ],
      "name": "balanceOf",
      "outputs": [
        {
          "internalType": "uint256",
          "name": "",
          "type": "uint256"
        }
      ],
      "stateMutability": "view",
      "type": "function"
    },
    {
      "inputs": [],
      "name": "buyToken",
      "outputs": [],
      "stateMutability": "payable",
      "type": "function"
    },
    {
      "inputs": [
        {
          "internalType": "uint256",
          "name": "tokenId",
          "type": "uint256"
        }
      ],
      "name": "cancelSubscription",
      "outputs": [],
      "stateMutability": "nonpayable",
      "type": "function"
    },
    {
      "inputs": [
        {
          "internalType": "uint256",
          "name": "",
          "type": "uint256"
        }
      ],
      "name": "expirationTimestamp",
      "outputs": [
        {
          "internalType": "uint256",
          "name": "",
          "type": "uint256"
        }
      ],
      "stateMutability": "view",
      "type": "function"
    },
    {
      "inputs": [
        {
          "internalType": "uint256",
          "name": "tokenId",
          "type": "uint256"
        }
      ],
      "name": "getApproved",
      "outputs": [
        {
          "internalType": "address",
          "name": "",
          "type": "address"
        }
      ],
      "stateMutability": "view",
      "type": "function"
    },
    {
      "inputs": [
        {
          "internalType": "uint256",
          "name": "tokenId",
          "type": "uint256"
        }
      ],
      "name": "getExpirationTime",
      "outputs": [
        {
          "internalType": "uint256",
          "name": "",
          "type": "uint256"
        }
      ],
      "stateMutability": "view",
      "type": "function"
    },
    {
      "inputs": [],
      "name": "getLicensePrice",
      "outputs": [
        {
          "internalType": "uint256",
          "name": "",
          "type": "uint256"
        }
      ],
      "stateMutability": "view",
      "type": "function"
    },
    {
      "inputs": [
        {
          "internalType": "uint256",
          "name": "tokenId",
          "type": "uint256"
        },
        {
          "internalType": "uint256",
          "name": "timestamp",
          "type": "uint256"
        }
      ],
      "name": "getRefundEligible",
      "outputs": [
        {
          "internalType": "bool",
          "name": "",
          "type": "bool"
        }
      ],
      "stateMutability": "view",
      "type": "function"
    },
    {
      "inputs": [],
      "name": "getSubscritptionTimePeriod",
      "outputs": [
        {
          "internalType": "uint256",
          "name": "",
          "type": "uint256"
        }
      ],
      "stateMutability": "view",
      "type": "function"
    },
    {
      "inputs": [],
      "name": "getTokenCounter",
      "outputs": [
        {
          "internalType": "uint256",
          "name": "",
          "type": "uint256"
        }
      ],
      "stateMutability": "view",
      "type": "function"
    },
    {
      "inputs": [
        {
          "internalType": "address",
          "name": "owner",
          "type": "address"
        },
        {
          "internalType": "address",
          "name": "operator",
          "type": "address"
        }
      ],
      "name": "isApprovedForAll",
      "outputs": [
        {
          "internalType": "bool",
          "name": "",
          "type": "bool"
        }
      ],
      "stateMutability": "view",
      "type": "function"
    },
    {
      "inputs": [
        {
          "internalType": "uint256",
          "name": "tokenId",
          "type": "uint256"
        }
      ],
      "name": "isSubscriptionActive",
      "outputs": [
        {
          "internalType": "bool",
          "name": "",
          "type": "bool"
        }
      ],
      "stateMutability": "view",
      "type": "function"
    },
    {
      "inputs": [
        {
          "internalType": "uint256",
          "name": "tokenId",
          "type": "uint256"
        }
      ],
      "name": "isTransferAllowed",
      "outputs": [
        {
          "internalType": "bool",
          "name": "",
          "type": "bool"
        }
      ],
      "stateMutability": "view",
      "type": "function"
    },
    {
      "inputs": [
        {
          "internalType": "address",
          "name": "customer",
          "type": "address"
        }
      ],
      "name": "mintToken",
      "outputs": [],
      "stateMutability": "nonpayable",
      "type": "function"
    },
    {
      "inputs": [],
      "name": "name",
      "outputs": [
        {
          "internalType": "string",
          "name": "",
          "type": "string"
        }
      ],
      "stateMutability": "view",
      "type": "function"
    },
    {
      "inputs": [],
      "name": "owner",
      "outputs": [
        {
          "internalType": "address",
          "name": "",
          "type": "address"
        }
      ],
      "stateMutability": "view",
      "type": "function"
    },
    {
      "inputs": [
        {
          "internalType": "uint256",
          "name": "tokenId",
          "type": "uint256"
        }
      ],
      "name": "ownerOf",
      "outputs": [
        {
          "internalType": "address",
          "name": "",
          "type": "address"
        }
      ],
      "stateMutability": "view",
      "type": "function"
    },
    {
      "inputs": [],
      "name": "renounceOwnership",
      "outputs": [],
      "stateMutability": "nonpayable",
      "type": "function"
    },
    {
      "inputs": [
        {
          "internalType": "uint256",
          "name": "tokenId",
          "type": "uint256"
        }
      ],
      "name": "restrictTransfer",
      "outputs": [],
      "stateMutability": "nonpayable",
      "type": "function"
    },
    {
      "inputs": [
        {
          "internalType": "address",
          "name": "from",
          "type": "address"
        },
        {
          "internalType": "address",
          "name": "to",
          "type": "address"
        },
        {
          "internalType": "uint256",
          "name": "tokenId",
          "type": "uint256"
        }
      ],
      "name": "safeTransferFrom",
      "outputs": [],
      "stateMutability": "nonpayable",
      "type": "function"
    },
    {
      "inputs": [
        {
          "internalType": "address",
          "name": "from",
          "type": "address"
        },
        {
          "internalType": "address",
          "name": "to",
          "type": "address"
        },
        {
          "internalType": "uint256",
          "name": "tokenId",
          "type": "uint256"
        },
        {
          "internalType": "bytes",
          "name": "_data",
          "type": "bytes"
        }
      ],
      "name": "safeTransferFrom",
      "outputs": [],
      "stateMutability": "nonpayable",
      "type": "function"
    },
    {
      "inputs": [
        {
          "internalType": "address",
          "name": "operator",
          "type": "address"
        },
        {
          "internalType": "bool",
          "name": "approved",
          "type": "bool"
        }
      ],
      "name": "setApprovalForAll",
      "outputs": [],
      "stateMutability": "nonpayable",
      "type": "function"
    },
    {
      "inputs": [
        {
          "internalType": "uint256",
          "name": "",
          "type": "uint256"
        }
      ],
      "name": "startTimestamp",
      "outputs": [
        {
          "internalType": "uint256",
          "name": "",
          "type": "uint256"
        }
      ],
      "stateMutability": "view",
      "type": "function"
    },
    {
      "inputs": [
        {
          "internalType": "bytes4",
          "name": "interfaceId",
          "type": "bytes4"
        }
      ],
      "name": "supportsInterface",
      "outputs": [
        {
          "internalType": "bool",
          "name": "",
          "type": "bool"
        }
      ],
      "stateMutability": "view",
      "type": "function"
    },
    {
      "inputs": [],
      "name": "symbol",
      "outputs": [
        {
          "internalType": "string",
          "name": "",
          "type": "string"
        }
      ],
      "stateMutability": "view",
      "type": "function"
    },
    {
      "inputs": [
        {
          "internalType": "uint256",
          "name": "tokenId",
          "type": "uint256"
        }
      ],
      "name": "tokenURI",
      "outputs": [
        {
          "internalType": "string",
          "name": "",
          "type": "string"
        }
      ],
      "stateMutability": "view",
      "type": "function"
    },
    {
      "inputs": [
        {
          "internalType": "address",
          "name": "from",
          "type": "address"
        },
        {
          "internalType": "address",
          "name": "to",
          "type": "address"
        },
        {
          "internalType": "uint256",
          "name": "tokenId",
          "type": "uint256"
        }
      ],
      "name": "transferFrom",
      "outputs": [],
      "stateMutability": "nonpayable",
      "type": "function"
    },
    {
      "inputs": [
        {
          "internalType": "address",
          "name": "newOwner",
          "type": "address"
        }
      ],
      "name": "transferOwnership",
      "outputs": [],
      "stateMutability": "nonpayable",
      "type": "function"
    },
    {
      "inputs": [
        {
          "internalType": "uint256",
          "name": "",
          "type": "uint256"
        }
      ],
      "name": "transferingAllowed",
      "outputs": [
        {
          "internalType": "uint256",
          "name": "",
          "type": "uint256"
        }
      ],
      "stateMutability": "view",
      "type": "function"
    },
    {
      "inputs": [
        {
          "internalType": "uint256",
          "name": "newPrice",
          "type": "uint256"
        }
      ],
      "name": "updateLicensePrice",
      "outputs": [],
      "stateMutability": "nonpayable",
      "type": "function"
    },
    {
      "inputs": [
        {
          "internalType": "uint256",
          "name": "tokenId",
          "type": "uint256"
        }
      ],
      "name": "updateSubscription",
      "outputs": [],
      "stateMutability": "payable",
      "type": "function"
    },
    {
      "inputs": [],
      "name": "withdraw",
      "outputs": [],
      "stateMutability": "nonpayable",
      "type": "function"
    }
  ],
  "transactionHash": "0xab24315281c992b744b5bf2fd96cf7e9679893a70df7bd44512173ede961c848",
  "args": [
    "Google",
    "Google-bard-perpetual",
    "10000000000000000",
    2592000
  ],
  "numDeployments": 1,
  "solcInputHash": "c90e43458072b3dd98621c0a74fc58fd",
  "bytecode": "0x60806040523480156200001157600080fd5b50604051620026d3380380620026d3833981016040819052620000349162000239565b6040518060400160405280601081526020016f536f667477617265204c6963656e736560801b8152506040518060400160405280600381526020016253484b60e81b81525081600090816200008a919062000342565b50600162000099828262000342565b505050620000b6620000b06200011e60201b60201c565b62000122565b600060075560088290556009620000ce858262000342565b50600b620000dd848262000342565b5060408051808201909152600c81526b29bab139b1b934b83a34b7b760a11b6020820152600a9062000110908262000342565b50600c55506200040e915050565b3390565b600680546001600160a01b038381166001600160a01b0319831681179093556040519116919082907f8be0079c531659141344cd1fd0a4f28419497f9722a3daafe3b4186f6b6457e090600090a35050565b634e487b7160e01b600052604160045260246000fd5b600082601f8301126200019c57600080fd5b81516001600160401b0380821115620001b957620001b962000174565b604051601f8301601f19908116603f01168101908282118183101715620001e457620001e462000174565b816040528381526020925086838588010111156200020157600080fd5b600091505b8382101562000225578582018301518183018401529082019062000206565b600093810190920192909252949350505050565b600080600080608085870312156200025057600080fd5b84516001600160401b03808211156200026857600080fd5b62000276888389016200018a565b955060208701519150808211156200028d57600080fd5b506200029c878288016200018a565b604087015160609097015195989097509350505050565b600181811c90821680620002c857607f821691505b602082108103620002e957634e487b7160e01b600052602260045260246000fd5b50919050565b601f8211156200033d57600081815260208120601f850160051c81016020861015620003185750805b601f850160051c820191505b81811015620003395782815560010162000324565b5050505b505050565b81516001600160401b038111156200035e576200035e62000174565b62000376816200036f8454620002b3565b84620002ef565b602080601f831160018114620003ae5760008415620003955750858301515b600019600386901b1c1916600185901b17855562000339565b600085815260208120601f198616915b82811015620003df57888601518255948401946001909101908401620003be565b5085821015620003fe5787850151600019600388901b60f8161c191681555b5050505050600190811b01905550565b6122b5806200041e6000396000f3fe6080604052600436106101f95760003560e01c8063715018a61161010d578063a22cb465116100a0578063b88d4fde1161006f578063b88d4fde146105c4578063c87b56dd146105e4578063d16da4dd14610604578063e985e9c514610624578063f2fde38b1461066d57600080fd5b8063a22cb46514610557578063a482171914610577578063b61609151461057f578063b6f0aaa5146105af57600080fd5b8063858684b1116100dc578063858684b1146104ca5780638bde494d146104f75780638da5cb5b1461052457806395d89b411461054257600080fd5b8063715018a61461045557806372fdc40e1461046a5780637b5321a41461049757806381a36eec146104b757600080fd5b806323b872dd1161019057806342842e0e1161015f57806342842e0e146103b057806357e2c0f5146103d05780636352211e146104005780636e02007d1461042057806370a082311461043557600080fd5b806323b872dd1461032e57806323e35d7c1461034e57806338baa7d01461036e5780633ccfd60b1461039b57600080fd5b8063095ea7b3116101cc578063095ea7b3146102af5780631af62808146102cf57806321235083146102ee57806322aafbff1461030e57600080fd5b806301173a74146101fe57806301ffc9a71461022057806306fdde0314610255578063081812fc14610277575b600080fd5b34801561020a57600080fd5b5061021e610219366004611b79565b61068d565b005b34801561022c57600080fd5b5061024061023b366004611baa565b61074d565b60405190151581526020015b60405180910390f35b34801561026157600080fd5b5061026a61079f565b60405161024c9190611c17565b34801561028357600080fd5b50610297610292366004611c2a565b610831565b6040516001600160a01b03909116815260200161024c565b3480156102bb57600080fd5b5061021e6102ca366004611c43565b610858565b3480156102db57600080fd5b506008545b60405190815260200161024c565b3480156102fa57600080fd5b5061021e610309366004611c2a565b610972565b34801561031a57600080fd5b5061021e610329366004611c2a565b61098d565b34801561033a57600080fd5b5061021e610349366004611c6d565b6109a6565b34801561035a57600080fd5b50610240610369366004611ca9565b610a53565b34801561037a57600080fd5b506102e0610389366004611c2a565b600d6020526000908152604090205481565b3480156103a757600080fd5b5061021e610a79565b3480156103bc57600080fd5b5061021e6103cb366004611c6d565b610aef565b3480156103dc57600080fd5b506102406103eb366004611c2a565b6000908152600e602052604090205442111590565b34801561040c57600080fd5b5061029761041b366004611c2a565b610b0a565b34801561042c57600080fd5b506007546102e0565b34801561044157600080fd5b506102e0610450366004611b79565b610b6a565b34801561046157600080fd5b5061021e610bf0565b34801561047657600080fd5b506102e0610485366004611c2a565b600e6020526000908152604090205481565b3480156104a357600080fd5b5061021e6104b2366004611c2a565b610c04565b61021e6104c5366004611c2a565b610c61565b3480156104d657600080fd5b506102e06104e5366004611c2a565b6000908152600e602052604090205490565b34801561050357600080fd5b506102e0610512366004611c2a565b600f6020526000908152604090205481565b34801561053057600080fd5b506006546001600160a01b0316610297565b34801561054e57600080fd5b5061026a610d1a565b34801561056357600080fd5b5061021e610572366004611ccb565b610d29565b61021e610d34565b34801561058b57600080fd5b5061024061059a366004611c2a565b6000908152600f602052604090205460011490565b3480156105bb57600080fd5b50600c546102e0565b3480156105d057600080fd5b5061021e6105df366004611d1d565b610e0d565b3480156105f057600080fd5b5061026a6105ff366004611c2a565b610f2d565b34801561061057600080fd5b5061021e61061f366004611c2a565b611027565b34801561063057600080fd5b5061024061063f366004611df9565b6001600160a01b03918216600090815260056020908152604080832093909416825291909152205460ff1690565b34801561067957600080fd5b5061021e610688366004611b79565b611043565b6106956110bc565b600780546000908152600f6020526040902060019055546106b7908290611116565b6007546000908152600d602052604090204290819055600c546106da9190611130565b600780546000908152600e602090815260408083209490945582548252600f9052918220919091555461070e906001611e42565b60078190556008546040519081527fea6ba2790ea1c6dd86dd2089cbf7a852c5fd716cca808ac3aaf6e29353d5b1dc906020015b60405180910390a250565b60006001600160e01b031982166380ac58cd60e01b148061077e57506001600160e01b03198216635b5e139f60e01b145b8061079957506301ffc9a760e01b6001600160e01b03198316145b92915050565b6060600080546107ae90611e55565b80601f01602080910402602001604051908101604052809291908181526020018280546107da90611e55565b80156108275780601f106107fc57610100808354040283529160200191610827565b820191906000526020600020905b81548152906001019060200180831161080a57829003601f168201915b5050505050905090565b600061083c82611143565b506000908152600460205260409020546001600160a01b031690565b600061086382610b0a565b9050806001600160a01b0316836001600160a01b0316036108d55760405162461bcd60e51b815260206004820152602160248201527f4552433732313a20617070726f76616c20746f2063757272656e74206f776e656044820152603960f91b60648201526084015b60405180910390fd5b336001600160a01b03821614806108f157506108f1813361063f565b6109635760405162461bcd60e51b815260206004820152603d60248201527f4552433732313a20617070726f76652063616c6c6572206973206e6f7420746f60448201527f6b656e206f776e6572206f7220617070726f76656420666f7220616c6c00000060648201526084016108cc565b61096d8383611193565b505050565b61097a6110bc565b6000908152600e60205260409020429055565b6109956110bc565b6000908152600f6020526040812055565b6109b03382611201565b6109cc5760405162461bcd60e51b81526004016108cc90611e8f565b6109d581611280565b610a1d5760405162461bcd60e51b815260206004820152601960248201527822a9219b99189d103737b732bc34b9ba32b73a103a37b5b2b760391b60448201526064016108cc565b610a2a838383600161129d565b610a35600082611193565b610a4083838361131a565b6000908152600f60205260408120555050565b6000828152600e60205260408120548210610a7057506000610799565b50600192915050565b610a816110bc565b6040514790600090339083908381818185875af1925050503d8060008114610ac5576040519150601f19603f3d011682016040523d82523d6000602084013e610aca565b606091505b5050905080610aeb5760405162e1a2f960e11b815260040160405180910390fd5b5050565b61096d83838360405180602001604052806000815250610e0d565b6000818152600260205260408120546001600160a01b0316806107995760405162461bcd60e51b8152602060048201526018602482015277115490cdcc8c4e881a5b9d985b1a59081d1bdad95b88125160421b60448201526064016108cc565b60006001600160a01b038216610bd45760405162461bcd60e51b815260206004820152602960248201527f4552433732313a2061646472657373207a65726f206973206e6f7420612076616044820152683634b21037bbb732b960b91b60648201526084016108cc565b506001600160a01b031660009081526003602052604090205490565b610bf86110bc565b610c02600061148b565b565b610c0c6110bc565b60008111610c5c5760405162461bcd60e51b815260206004820152601f60248201527f5072696365206d7573742062652067726561746572207468616e207a65726f0060448201526064016108cc565b600855565b600854341015610c8457604051635448cff560e01b815260040160405180910390fd5b6000818152600e60205260409020544211610cc857600c546000828152600e6020526040902054610cb491611130565b6000828152600e6020526040902055610ce6565b600c54610cd6904290611130565b6000828152600e60205260409020555b807faab14031e88faeea4213dcd9a96061711625f43a506936ed2ae574ea9350173d60085460405161074291815260200190565b6060600180546107ae90611e55565b610aeb3383836114dd565b600854341015610d5757604051635448cff560e01b815260040160405180910390fd5b600780546000908152600f602052604090206001905554610d79903390611116565b6007546000908152600d602052604090204290819055600c54610d9c9190611130565b600780546000908152600e602090815260408083209490945582548252600f90529182209190915554610dd0906001611e42565b60078190556008546040519081527fea6ba2790ea1c6dd86dd2089cbf7a852c5fd716cca808ac3aaf6e29353d5b1dc9060200160405180910390a2565b610e173383611201565b610e335760405162461bcd60e51b81526004016108cc90611e8f565b610e3c82611280565b610e845760405162461bcd60e51b815260206004820152601960248201527822a9219b99189d103737b732bc34b9ba32b73a103a37b5b2b760391b60448201526064016108cc565b6000828152600f6020526040902054600114610ef55760405162461bcd60e51b815260206004820152602a60248201527f4552433732313a20746f6b656e206973206e6f7420617070726f76656420666f60448201526939103a3930b739b332b960b11b60648201526084016108cc565b610f02848484600161129d565b610f0d600083611193565b610f19848484846115ab565b506000908152600f60205260408120555050565b6060610f3882611280565b610f55576040516336faf6d760e11b815260040160405180910390fd5b60408051808201909152601d81527f646174613a6170706c69636174696f6e2f6a736f6e3b6261736536342c00000060208201526110006009600b600a610f9d6008546115de565b6000888152600d6020526040902054610fb5906115de565b6000898152600e6020526040902054610fcd906115de565b610fd68a6115de565b604051602001610fec9796959493929190611f99565b604051602081830303815290604052611671565b6040516020016110119291906120e6565b6040516020818303038152906040529050919050565b61102f6110bc565b6000908152600f6020526040902060019055565b61104b6110bc565b6001600160a01b0381166110b05760405162461bcd60e51b815260206004820152602660248201527f4f776e61626c653a206e6577206f776e657220697320746865207a65726f206160448201526564647265737360d01b60648201526084016108cc565b6110b98161148b565b50565b6006546001600160a01b03163314610c025760405162461bcd60e51b815260206004820181905260248201527f4f776e61626c653a2063616c6c6572206973206e6f7420746865206f776e657260448201526064016108cc565b610aeb8282604051806020016040528060008152506117d6565b600061113c8284611e42565b9392505050565b61114c81611280565b6110b95760405162461bcd60e51b8152602060048201526018602482015277115490cdcc8c4e881a5b9d985b1a59081d1bdad95b88125160421b60448201526064016108cc565b600081815260046020526040902080546001600160a01b0319166001600160a01b03841690811790915581906111c882610b0a565b6001600160a01b03167f8c5be1e5ebec7d5bd14f71427d1e84f3dd0314c0f7b2291e5b200ac8c7c3b92560405160405180910390a45050565b60008061120d83610b0a565b9050806001600160a01b0316846001600160a01b0316148061125457506001600160a01b0380821660009081526005602090815260408083209388168352929052205460ff165b806112785750836001600160a01b031661126d84610831565b6001600160a01b0316145b949350505050565b6000908152600260205260409020546001600160a01b0316151590565b6000828152600f60205260409020546001146113145760405162461bcd60e51b815260206004820152603060248201527f5072696f7220417070726f76616c206e656564656420666f72207472616e736660448201526f6572206f662074686520746f6b656e7360801b60648201526084016108cc565b50505050565b826001600160a01b031661132d82610b0a565b6001600160a01b0316146113535760405162461bcd60e51b81526004016108cc90612115565b6001600160a01b0382166113b55760405162461bcd60e51b8152602060048201526024808201527f4552433732313a207472616e7366657220746f20746865207a65726f206164646044820152637265737360e01b60648201526084016108cc565b6113c2838383600161129d565b826001600160a01b03166113d582610b0a565b6001600160a01b0316146113fb5760405162461bcd60e51b81526004016108cc90612115565b600081815260046020908152604080832080546001600160a01b03199081169091556001600160a01b0387811680865260038552838620805460001901905590871680865283862080546001019055868652600290945282852080549092168417909155905184937fddf252ad1be2c89b69c2b068fc378daa952ba7f163c4a11628f55a4df523b3ef91a4505050565b600680546001600160a01b038381166001600160a01b0319831681179093556040519116919082907f8be0079c531659141344cd1fd0a4f28419497f9722a3daafe3b4186f6b6457e090600090a35050565b816001600160a01b0316836001600160a01b03160361153e5760405162461bcd60e51b815260206004820152601960248201527f4552433732313a20617070726f766520746f2063616c6c65720000000000000060448201526064016108cc565b6001600160a01b03838116600081815260056020908152604080832094871680845294825291829020805460ff191686151590811790915591519182527f17307eab39ab6107e8899845ad3d59bd9653f200f220920489ca2b5937696c31910160405180910390a3505050565b6115b684848461131a565b6115c284848484611809565b6113145760405162461bcd60e51b81526004016108cc9061215a565b606060006115eb8361190a565b600101905060008167ffffffffffffffff81111561160b5761160b611d07565b6040519080825280601f01601f191660200182016040528015611635576020820181803683370190505b5090508181016020015b600019016f181899199a1a9b1b9c1cb0b131b232b360811b600a86061a8153600a850494508461163f57509392505050565b6060815160000361169057505060408051602081019091526000815290565b600060405180606001604052806040815260200161224060409139905060006003845160026116bf9190611e42565b6116c991906121ac565b6116d49060046121ce565b905060006116e3826020611e42565b67ffffffffffffffff8111156116fb576116fb611d07565b6040519080825280601f01601f191660200182016040528015611725576020820181803683370190505b509050818152600183018586518101602084015b81831015611791576003830192508251603f8160121c168501518253600182019150603f81600c1c168501518253600182019150603f8160061c168501518253600182019150603f8116850151825350600101611739565b6003895106600181146117ab57600281146117bc576117c8565b613d3d60f01b6001198301526117c8565b603d60f81b6000198301525b509398975050505050505050565b6117e083836119e2565b6117ed6000848484611809565b61096d5760405162461bcd60e51b81526004016108cc9061215a565b60006001600160a01b0384163b156118ff57604051630a85bd0160e11b81526001600160a01b0385169063150b7a029061184d9033908990889088906004016121e5565b6020604051808303816000875af1925050508015611888575060408051601f3d908101601f1916820190925261188591810190612222565b60015b6118e5573d8080156118b6576040519150601f19603f3d011682016040523d82523d6000602084013e6118bb565b606091505b5080516000036118dd5760405162461bcd60e51b81526004016108cc9061215a565b805181602001fd5b6001600160e01b031916630a85bd0160e11b149050611278565b506001949350505050565b60008072184f03e93ff9f4daa797ed6e38ed64bf6a1f0160401b83106119495772184f03e93ff9f4daa797ed6e38ed64bf6a1f0160401b830492506040015b6d04ee2d6d415b85acef81000000008310611975576d04ee2d6d415b85acef8100000000830492506020015b662386f26fc10000831061199357662386f26fc10000830492506010015b6305f5e10083106119ab576305f5e100830492506008015b61271083106119bf57612710830492506004015b606483106119d1576064830492506002015b600a83106107995760010192915050565b6001600160a01b038216611a385760405162461bcd60e51b815260206004820181905260248201527f4552433732313a206d696e7420746f20746865207a65726f206164647265737360448201526064016108cc565b611a4181611280565b15611a8e5760405162461bcd60e51b815260206004820152601c60248201527f4552433732313a20746f6b656e20616c7265616479206d696e7465640000000060448201526064016108cc565b611a9c60008383600161129d565b611aa581611280565b15611af25760405162461bcd60e51b815260206004820152601c60248201527f4552433732313a20746f6b656e20616c7265616479206d696e7465640000000060448201526064016108cc565b6001600160a01b038216600081815260036020908152604080832080546001019055848352600290915280822080546001600160a01b0319168417905551839291907fddf252ad1be2c89b69c2b068fc378daa952ba7f163c4a11628f55a4df523b3ef908290a45050565b80356001600160a01b0381168114611b7457600080fd5b919050565b600060208284031215611b8b57600080fd5b61113c82611b5d565b6001600160e01b0319811681146110b957600080fd5b600060208284031215611bbc57600080fd5b813561113c81611b94565b60005b83811015611be2578181015183820152602001611bca565b50506000910152565b60008151808452611c03816020860160208601611bc7565b601f01601f19169290920160200192915050565b60208152600061113c6020830184611beb565b600060208284031215611c3c57600080fd5b5035919050565b60008060408385031215611c5657600080fd5b611c5f83611b5d565b946020939093013593505050565b600080600060608486031215611c8257600080fd5b611c8b84611b5d565b9250611c9960208501611b5d565b9150604084013590509250925092565b60008060408385031215611cbc57600080fd5b50508035926020909101359150565b60008060408385031215611cde57600080fd5b611ce783611b5d565b915060208301358015158114611cfc57600080fd5b809150509250929050565b634e487b7160e01b600052604160045260246000fd5b60008060008060808587031215611d3357600080fd5b611d3c85611b5d565b9350611d4a60208601611b5d565b925060408501359150606085013567ffffffffffffffff80821115611d6e57600080fd5b818701915087601f830112611d8257600080fd5b813581811115611d9457611d94611d07565b604051601f8201601f19908116603f01168101908382118183101715611dbc57611dbc611d07565b816040528281528a6020848701011115611dd557600080fd5b82602086016020830137600060208483010152809550505050505092959194509250565b60008060408385031215611e0c57600080fd5b611e1583611b5d565b9150611e2360208401611b5d565b90509250929050565b634e487b7160e01b600052601160045260246000fd5b8082018082111561079957610799611e2c565b600181811c90821680611e6957607f821691505b602082108103611e8957634e487b7160e01b600052602260045260246000fd5b50919050565b60208082526031908201527f4552433732313a207472616e736665722063616c6c6572206973206e6f74206f6040820152701ddb995c881b9bdc88185c1c1c9bdd9959607a1b606082015260800190565b8054600090600181811c9080831680611efa57607f831692505b60208084108203611f1b57634e487b7160e01b600052602260045260246000fd5b818015611f2f5760018114611f4457611f71565b60ff1986168952841515850289019650611f71565b60008881526020902060005b86811015611f695781548b820152908501908301611f50565b505084890196505b50505050505092915050565b60008151611f8f818560208601611bc7565b9290920192915050565b683d913730b6b2911d1160b91b81526000611fb7600983018a611ee0565b711116113634b1b2b739b2903730b6b2911d1160711b8152611fdc601282018a611ee0565b711116113634b1b2b739b2902a3cb832911d1160711b815290506120036012820189611ee0565b6a111611383934b1b2911d1160a91b8152875190915061202a81600b840160208b01611bc7565b7411161139ba30b93a103a34b6b2b9ba30b6b8111d1160591b600b92909101918201528551612060816020808501908a01611bc7565b8082019150507f222c2265787069726174696f6e2074696d657374616d70223a220000000000006020820152845161209f81603a840160208901611bc7565b6c1116113a37b5b2b724a2111d1160991b603a92909101918201526120d86120ca6047830186611f7d565b61227d60f01b815260020190565b9a9950505050505050505050565b600083516120f8818460208801611bc7565b83519083019061210c818360208801611bc7565b01949350505050565b60208082526025908201527f4552433732313a207472616e736665722066726f6d20696e636f72726563742060408201526437bbb732b960d91b606082015260800190565b60208082526032908201527f4552433732313a207472616e7366657220746f206e6f6e20455243373231526560408201527131b2b4bb32b91034b6b83632b6b2b73a32b960711b606082015260800190565b6000826121c957634e487b7160e01b600052601260045260246000fd5b500490565b808202811582820484141761079957610799611e2c565b6001600160a01b038581168252841660208201526040810183905260806060820181905260009061221890830184611beb565b9695505050505050565b60006020828403121561223457600080fd5b815161113c81611b9456fe4142434445464748494a4b4c4d4e4f505152535455565758595a6162636465666768696a6b6c6d6e6f707172737475767778797a303132333435363738392b2fa2646970667358221220dbedc82742c12706c3394b80788200e73cbe0c513196f07c693e63fbf6f4225a64736f6c63430008110033",
  "devdoc": {
    "kind": "dev",
    "methods": {
      "approve(address,uint256)": {
        "details": "See {IERC721-approve}."
      },
      "balanceOf(address)": {
        "details": "See {IERC721-balanceOf}."
      },
      "getApproved(uint256)": {
        "details": "See {IERC721-getApproved}."
      },
      "isApprovedForAll(address,address)": {
        "details": "See {IERC721-isApprovedForAll}."
      },
      "name()": {
        "details": "See {IERC721Metadata-name}."
      },
      "owner()": {
        "details": "Returns the address of the current owner."
      },
      "ownerOf(uint256)": {
        "details": "See {IERC721-ownerOf}."
      },
      "renounceOwnership()": {
        "details": "Leaves the contract without owner. It will not be possible to call `onlyOwner` functions anymore. Can only be called by the current owner. NOTE: Renouncing ownership will leave the contract without an owner, thereby removing any functionality that is only available to the owner."
      },
      "safeTransferFrom(address,address,uint256)": {
        "details": "See {IERC721-safeTransferFrom}."
      },
      "setApprovalForAll(address,bool)": {
        "details": "See {IERC721-setApprovalForAll}."
      },
      "supportsInterface(bytes4)": {
        "details": "See {IERC165-supportsInterface}."
      },
      "symbol()": {
        "details": "See {IERC721Metadata-symbol}."
      },
      "tokenURI(uint256)": {
        "details": "See {IERC721Metadata-tokenURI}."
      },
      "transferFrom(address,address,uint256)": {
        "details": "See {IERC721-transferFrom}."
      },
      "transferOwnership(address)": {
        "details": "Transfers ownership of the contract to a new account (`newOwner`). Can only be called by the current owner."
      }
    },
    "version": 1
  },
  "userdoc": {
    "kind": "user",
    "methods": {},
    "version": 1
  },
  "storageLayout": {
    "storage": [
      {
        "astId": 847,
        "contract": "contracts/FixedSubscription.sol:FixedSubscriptionLicense",
        "label": "_name",
        "offset": 0,
        "slot": "0",
        "type": "t_string_storage"
      },
      {
        "astId": 849,
        "contract": "contracts/FixedSubscription.sol:FixedSubscriptionLicense",
        "label": "_symbol",
        "offset": 0,
        "slot": "1",
        "type": "t_string_storage"
      },
      {
        "astId": 853,
        "contract": "contracts/FixedSubscription.sol:FixedSubscriptionLicense",
        "label": "_owners",
        "offset": 0,
        "slot": "2",
        "type": "t_mapping(t_uint256,t_address)"
      },
      {
        "astId": 857,
        "contract": "contracts/FixedSubscription.sol:FixedSubscriptionLicense",
        "label": "_balances",
        "offset": 0,
        "slot": "3",
        "type": "t_mapping(t_address,t_uint256)"
      },
      {
        "astId": 861,
        "contract": "contracts/FixedSubscription.sol:FixedSubscriptionLicense",
        "label": "_tokenApprovals",
        "offset": 0,
        "slot": "4",
        "type": "t_mapping(t_uint256,t_address)"
      },
      {
        "astId": 867,
        "contract": "contracts/FixedSubscription.sol:FixedSubscriptionLicense",
        "label": "_operatorApprovals",
        "offset": 0,
        "slot": "5",
        "type": "t_mapping(t_address,t_mapping(t_address,t_bool))"
      },
      {
        "astId": 7,
        "contract": "contracts/FixedSubscription.sol:FixedSubscriptionLicense",
        "label": "_owner",
        "offset": 0,
        "slot": "6",
        "type": "t_address"
      },
      {
        "astId": 4393,
        "contract": "contracts/FixedSubscription.sol:FixedSubscriptionLicense",
        "label": "s_tokenCounter",
        "offset": 0,
        "slot": "7",
        "type": "t_uint256"
      },
      {
        "astId": 4395,
        "contract": "contracts/FixedSubscription.sol:FixedSubscriptionLicense",
        "label": "s_licensePrice",
        "offset": 0,
        "slot": "8",
        "type": "t_uint256"
      },
      {
        "astId": 4397,
        "contract": "contracts/FixedSubscription.sol:FixedSubscriptionLicense",
        "label": "i_companyName",
        "offset": 0,
        "slot": "9",
        "type": "t_string_storage"
      },
      {
        "astId": 4399,
        "contract": "contracts/FixedSubscription.sol:FixedSubscriptionLicense",
        "label": "i_licenseType",
        "offset": 0,
        "slot": "10",
        "type": "t_string_storage"
      },
      {
        "astId": 4401,
        "contract": "contracts/FixedSubscription.sol:FixedSubscriptionLicense",
        "label": "i_licenseName",
        "offset": 0,
        "slot": "11",
        "type": "t_string_storage"
      },
      {
        "astId": 4403,
        "contract": "contracts/FixedSubscription.sol:FixedSubscriptionLicense",
        "label": "i_periodSecond",
        "offset": 0,
        "slot": "12",
        "type": "t_uint256"
      },
      {
        "astId": 4407,
        "contract": "contracts/FixedSubscription.sol:FixedSubscriptionLicense",
        "label": "startTimestamp",
        "offset": 0,
        "slot": "13",
        "type": "t_mapping(t_uint256,t_uint256)"
      },
      {
        "astId": 4411,
        "contract": "contracts/FixedSubscription.sol:FixedSubscriptionLicense",
        "label": "expirationTimestamp",
        "offset": 0,
        "slot": "14",
        "type": "t_mapping(t_uint256,t_uint256)"
      },
      {
        "astId": 4415,
        "contract": "contracts/FixedSubscription.sol:FixedSubscriptionLicense",
        "label": "transferingAllowed",
        "offset": 0,
        "slot": "15",
        "type": "t_mapping(t_uint256,t_uint256)"
      }
    ],
    "types": {
      "t_address": {
        "encoding": "inplace",
        "label": "address",
        "numberOfBytes": "20"
      },
      "t_bool": {
        "encoding": "inplace",
        "label": "bool",
        "numberOfBytes": "1"
      },
      "t_mapping(t_address,t_bool)": {
        "encoding": "mapping",
        "key": "t_address",
        "label": "mapping(address => bool)",
        "numberOfBytes": "32",
        "value": "t_bool"
      },
      "t_mapping(t_address,t_mapping(t_address,t_bool))": {
        "encoding": "mapping",
        "key": "t_address",
        "label": "mapping(address => mapping(address => bool))",
        "numberOfBytes": "32",
        "value": "t_mapping(t_address,t_bool)"
      },
      "t_mapping(t_address,t_uint256)": {
        "encoding": "mapping",
        "key": "t_address",
        "label": "mapping(address => uint256)",
        "numberOfBytes": "32",
        "value": "t_uint256"
      },
      "t_mapping(t_uint256,t_address)": {
        "encoding": "mapping",
        "key": "t_uint256",
        "label": "mapping(uint256 => address)",
        "numberOfBytes": "32",
        "value": "t_address"
      },
      "t_mapping(t_uint256,t_uint256)": {
        "encoding": "mapping",
        "key": "t_uint256",
        "label": "mapping(uint256 => uint256)",
        "numberOfBytes": "32",
        "value": "t_uint256"
      },
      "t_string_storage": {
        "encoding": "bytes",
        "label": "string",
        "numberOfBytes": "32"
      },
      "t_uint256": {
        "encoding": "inplace",
        "label": "uint256",
        "numberOfBytes": "32"
      }
    }
  }
}