{
  "address": "0xCf7Ed3AccA5a467e9e704C703E8D87F634fB0Fc9",
  "abi": [
    {
      "inputs": [
        {
          "internalType": "string",
          "name": "companyName",
          "type": "string"
        },
        {
          "internalType": "string",
          "name": "licenseName",
          "type": "string"
        },
        {
          "internalType": "uint256",
          "name": "licensePrice",
          "type": "uint256"
        },
        {
          "internalType": "uint256",
          "name": "subscriptionPeriodSecond",
          "type": "uint256"
        }
      ],
      "stateMutability": "nonpayable",
      "type": "constructor"
    },
    {
      "inputs": [],
      "name": "ERC721Metadata__URI_QueryFor_NonExistentToken",
      "type": "error"
    },
    {
      "inputs": [],
      "name": "SubscriptionLicense__NeedMoreETHSent",
      "type": "error"
    },
    {
      "inputs": [],
      "name": "SubscriptionLicense__TransferFailed",
      "type": "error"
    },
    {
      "anonymous": false,
      "inputs": [
        {
          "indexed": true,
          "internalType": "address",
          "name": "owner",
          "type": "address"
        },
        {
          "indexed": true,
          "internalType": "address",
          "name": "approved",
          "type": "address"
        },
        {
          "indexed": true,
          "internalType": "uint256",
          "name": "tokenId",
          "type": "uint256"
        }
      ],
      "name": "Approval",
      "type": "event"
    },
    {
      "anonymous": false,
      "inputs": [
        {
          "indexed": true,
          "internalType": "address",
          "name": "owner",
          "type": "address"
        },
        {
          "indexed": true,
          "internalType": "address",
          "name": "operator",
          "type": "address"
        },
        {
          "indexed": false,
          "internalType": "bool",
          "name": "approved",
          "type": "bool"
        }
      ],
      "name": "ApprovalForAll",
      "type": "event"
    },
    {
      "anonymous": false,
      "inputs": [
        {
          "indexed": true,
          "internalType": "uint256",
          "name": "tokenId",
          "type": "uint256"
        },
        {
          "indexed": false,
          "internalType": "uint256",
          "name": "licensePrice",
          "type": "uint256"
        }
      ],
      "name": "CreatedSubscriptionToken",
      "type": "event"
    },
    {
      "anonymous": false,
      "inputs": [
        {
          "indexed": true,
          "internalType": "address",
          "name": "previousOwner",
          "type": "address"
        },
        {
          "indexed": true,
          "internalType": "address",
          "name": "newOwner",
          "type": "address"
        }
      ],
      "name": "OwnershipTransferred",
      "type": "event"
    },
    {
      "anonymous": false,
      "inputs": [
        {
          "indexed": true,
          "internalType": "address",
          "name": "from",
          "type": "address"
        },
        {
          "indexed": true,
          "internalType": "address",
          "name": "to",
          "type": "address"
        },
        {
          "indexed": true,
          "internalType": "uint256",
          "name": "tokenId",
          "type": "uint256"
        }
      ],
      "name": "Transfer",
      "type": "event"
    },
    {
      "anonymous": false,
      "inputs": [
        {
          "indexed": true,
          "internalType": "uint256",
          "name": "tokenId",
          "type": "uint256"
        },
        {
          "indexed": false,
          "internalType": "uint256",
          "name": "licensePrice",
          "type": "uint256"
        }
      ],
      "name": "UpdatedSubscriptionToken",
      "type": "event"
    },
    {
      "inputs": [
        {
          "internalType": "uint256",
          "name": "tokenId",
          "type": "uint256"
        }
      ],
      "name": "allowTransfer",
      "outputs": [],
      "stateMutability": "nonpayable",
      "type": "function"
    },
    {
      "inputs": [
        {
          "internalType": "address",
          "name": "to",
          "type": "address"
        },
        {
          "internalType": "uint256",
          "name": "tokenId",
          "type": "uint256"
        }
      ],
      "name": "approve",
      "outputs": [],
      "stateMutability": "nonpayable",
      "type": "function"
    },
    {
      "inputs": [
        {
          "internalType": "address",
          "name": "owner",
          "type": "address"
        }
      ],
      "name": "balanceOf",
      "outputs": [
        {
          "internalType": "uint256",
          "name": "",
          "type": "uint256"
        }
      ],
      "stateMutability": "view",
      "type": "function"
    },
    {
      "inputs": [],
      "name": "buyToken",
      "outputs": [],
      "stateMutability": "payable",
      "type": "function"
    },
    {
      "inputs": [
        {
          "internalType": "uint256",
          "name": "tokenId",
          "type": "uint256"
        }
      ],
      "name": "cancelSubscription",
      "outputs": [],
      "stateMutability": "nonpayable",
      "type": "function"
    },
    {
      "inputs": [
        {
          "internalType": "uint256",
          "name": "",
          "type": "uint256"
        }
      ],
      "name": "expirationTimestamp",
      "outputs": [
        {
          "internalType": "uint256",
          "name": "",
          "type": "uint256"
        }
      ],
      "stateMutability": "view",
      "type": "function"
    },
    {
      "inputs": [
        {
          "internalType": "uint256",
          "name": "tokenId",
          "type": "uint256"
        }
      ],
      "name": "getApproved",
      "outputs": [
        {
          "internalType": "address",
          "name": "",
          "type": "address"
        }
      ],
      "stateMutability": "view",
      "type": "function"
    },
    {
      "inputs": [
        {
          "internalType": "uint256",
          "name": "tokenId",
          "type": "uint256"
        }
      ],
      "name": "getExpirationTime",
      "outputs": [
        {
          "internalType": "uint256",
          "name": "",
          "type": "uint256"
        }
      ],
      "stateMutability": "view",
      "type": "function"
    },
    {
      "inputs": [],
      "name": "getLicensePrice",
      "outputs": [
        {
          "internalType": "uint256",
          "name": "",
          "type": "uint256"
        }
      ],
      "stateMutability": "view",
      "type": "function"
    },
    {
      "inputs": [
        {
          "internalType": "uint256",
          "name": "tokenId",
          "type": "uint256"
        },
        {
          "internalType": "uint256",
          "name": "timestamp",
          "type": "uint256"
        }
      ],
      "name": "getRefundEligible",
      "outputs": [
        {
          "internalType": "bool",
          "name": "",
          "type": "bool"
        }
      ],
      "stateMutability": "view",
      "type": "function"
    },
    {
      "inputs": [],
      "name": "getSubscritptionTimePeriod",
      "outputs": [
        {
          "internalType": "uint256",
          "name": "",
          "type": "uint256"
        }
      ],
      "stateMutability": "view",
      "type": "function"
    },
    {
      "inputs": [],
      "name": "getTokenCounter",
      "outputs": [
        {
          "internalType": "uint256",
          "name": "",
          "type": "uint256"
        }
      ],
      "stateMutability": "view",
      "type": "function"
    },
    {
      "inputs": [
        {
          "internalType": "address",
          "name": "owner",
          "type": "address"
        },
        {
          "internalType": "address",
          "name": "operator",
          "type": "address"
        }
      ],
      "name": "isApprovedForAll",
      "outputs": [
        {
          "internalType": "bool",
          "name": "",
          "type": "bool"
        }
      ],
      "stateMutability": "view",
      "type": "function"
    },
    {
      "inputs": [
        {
          "internalType": "uint256",
          "name": "tokenId",
          "type": "uint256"
        }
      ],
      "name": "isSubscriptionActive",
      "outputs": [
        {
          "internalType": "bool",
          "name": "",
          "type": "bool"
        }
      ],
      "stateMutability": "view",
      "type": "function"
    },
    {
      "inputs": [
        {
          "internalType": "uint256",
          "name": "tokenId",
          "type": "uint256"
        }
      ],
      "name": "isTransferAllowed",
      "outputs": [
        {
          "internalType": "bool",
          "name": "",
          "type": "bool"
        }
      ],
      "stateMutability": "view",
      "type": "function"
    },
    {
      "inputs": [
        {
          "internalType": "address",
          "name": "customer",
          "type": "address"
        }
      ],
      "name": "mintToken",
      "outputs": [],
      "stateMutability": "nonpayable",
      "type": "function"
    },
    {
      "inputs": [],
      "name": "name",
      "outputs": [
        {
          "internalType": "string",
          "name": "",
          "type": "string"
        }
      ],
      "stateMutability": "view",
      "type": "function"
    },
    {
      "inputs": [],
      "name": "owner",
      "outputs": [
        {
          "internalType": "address",
          "name": "",
          "type": "address"
        }
      ],
      "stateMutability": "view",
      "type": "function"
    },
    {
      "inputs": [
        {
          "internalType": "uint256",
          "name": "tokenId",
          "type": "uint256"
        }
      ],
      "name": "ownerOf",
      "outputs": [
        {
          "internalType": "address",
          "name": "",
          "type": "address"
        }
      ],
      "stateMutability": "view",
      "type": "function"
    },
    {
      "inputs": [],
      "name": "renounceOwnership",
      "outputs": [],
      "stateMutability": "nonpayable",
      "type": "function"
    },
    {
      "inputs": [
        {
          "internalType": "uint256",
          "name": "tokenId",
          "type": "uint256"
        }
      ],
      "name": "restrictTransfer",
      "outputs": [],
      "stateMutability": "nonpayable",
      "type": "function"
    },
    {
      "inputs": [
        {
          "internalType": "address",
          "name": "from",
          "type": "address"
        },
        {
          "internalType": "address",
          "name": "to",
          "type": "address"
        },
        {
          "internalType": "uint256",
          "name": "tokenId",
          "type": "uint256"
        }
      ],
      "name": "safeTransferFrom",
      "outputs": [],
      "stateMutability": "nonpayable",
      "type": "function"
    },
    {
      "inputs": [
        {
          "internalType": "address",
          "name": "from",
          "type": "address"
        },
        {
          "internalType": "address",
          "name": "to",
          "type": "address"
        },
        {
          "internalType": "uint256",
          "name": "tokenId",
          "type": "uint256"
        },
        {
          "internalType": "bytes",
          "name": "data",
          "type": "bytes"
        }
      ],
      "name": "safeTransferFrom",
      "outputs": [],
      "stateMutability": "nonpayable",
      "type": "function"
    },
    {
      "inputs": [
        {
          "internalType": "address",
          "name": "operator",
          "type": "address"
        },
        {
          "internalType": "bool",
          "name": "approved",
          "type": "bool"
        }
      ],
      "name": "setApprovalForAll",
      "outputs": [],
      "stateMutability": "nonpayable",
      "type": "function"
    },
    {
      "inputs": [
        {
          "internalType": "bytes4",
          "name": "interfaceId",
          "type": "bytes4"
        }
      ],
      "name": "supportsInterface",
      "outputs": [
        {
          "internalType": "bool",
          "name": "",
          "type": "bool"
        }
      ],
      "stateMutability": "view",
      "type": "function"
    },
    {
      "inputs": [],
      "name": "symbol",
      "outputs": [
        {
          "internalType": "string",
          "name": "",
          "type": "string"
        }
      ],
      "stateMutability": "view",
      "type": "function"
    },
    {
      "inputs": [
        {
          "internalType": "uint256",
          "name": "tokenId",
          "type": "uint256"
        }
      ],
      "name": "tokenURI",
      "outputs": [
        {
          "internalType": "string",
          "name": "",
          "type": "string"
        }
      ],
      "stateMutability": "view",
      "type": "function"
    },
    {
      "inputs": [
        {
          "internalType": "address",
          "name": "from",
          "type": "address"
        },
        {
          "internalType": "address",
          "name": "to",
          "type": "address"
        },
        {
          "internalType": "uint256",
          "name": "tokenId",
          "type": "uint256"
        }
      ],
      "name": "transferFrom",
      "outputs": [],
      "stateMutability": "nonpayable",
      "type": "function"
    },
    {
      "inputs": [
        {
          "internalType": "address",
          "name": "newOwner",
          "type": "address"
        }
      ],
      "name": "transferOwnership",
      "outputs": [],
      "stateMutability": "nonpayable",
      "type": "function"
    },
    {
      "inputs": [
        {
          "internalType": "uint256",
          "name": "",
          "type": "uint256"
        }
      ],
      "name": "transferingAllowed",
      "outputs": [
        {
          "internalType": "uint256",
          "name": "",
          "type": "uint256"
        }
      ],
      "stateMutability": "view",
      "type": "function"
    },
    {
      "inputs": [
        {
          "internalType": "uint256",
          "name": "newPrice",
          "type": "uint256"
        }
      ],
      "name": "updateLicensePrice",
      "outputs": [],
      "stateMutability": "nonpayable",
      "type": "function"
    },
    {
      "inputs": [
        {
          "internalType": "uint256",
          "name": "tokenId",
          "type": "uint256"
        }
      ],
      "name": "updateSubscription",
      "outputs": [],
      "stateMutability": "payable",
      "type": "function"
    },
    {
      "inputs": [],
      "name": "withdraw",
      "outputs": [],
      "stateMutability": "nonpayable",
      "type": "function"
    }
  ],
  "transactionHash": "0x4f4a8c7d76f531b024ef974791c9d5b5334827fb80cef77042780f03760e4a62",
  "args": [
    "Google",
    "Google-bard-perpetual",
    "10000000000000000",
    2592000
  ],
  "numDeployments": 1,
  "solcInputHash": "6683c25d216976dcf5b0fcb63f3b5547",
  "bytecode": "0x60806040523480156200001157600080fd5b506040516200257a3803806200257a833981016040819052620000349162000239565b6040518060400160405280601081526020016f536f667477617265204c6963656e736560801b8152506040518060400160405280600381526020016253484b60e81b81525081600090816200008a919062000342565b50600162000099828262000342565b505050620000b6620000b06200011e60201b60201c565b62000122565b600060075560088290556009620000ce858262000342565b50600b620000dd848262000342565b5060408051808201909152600c81526b29bab139b1b934b83a34b7b760a11b6020820152600a9062000110908262000342565b50600c55506200040e915050565b3390565b600680546001600160a01b038381166001600160a01b0319831681179093556040519116919082907f8be0079c531659141344cd1fd0a4f28419497f9722a3daafe3b4186f6b6457e090600090a35050565b634e487b7160e01b600052604160045260246000fd5b600082601f8301126200019c57600080fd5b81516001600160401b0380821115620001b957620001b962000174565b604051601f8301601f19908116603f01168101908282118183101715620001e457620001e462000174565b816040528381526020925086838588010111156200020157600080fd5b600091505b8382101562000225578582018301518183018401529082019062000206565b600093810190920192909252949350505050565b600080600080608085870312156200025057600080fd5b84516001600160401b03808211156200026857600080fd5b62000276888389016200018a565b955060208701519150808211156200028d57600080fd5b506200029c878288016200018a565b604087015160609097015195989097509350505050565b600181811c90821680620002c857607f821691505b602082108103620002e957634e487b7160e01b600052602260045260246000fd5b50919050565b601f8211156200033d57600081815260208120601f850160051c81016020861015620003185750805b601f850160051c820191505b81811015620003395782815560010162000324565b5050505b505050565b81516001600160401b038111156200035e576200035e62000174565b62000376816200036f8454620002b3565b84620002ef565b602080601f831160018114620003ae5760008415620003955750858301515b600019600386901b1c1916600185901b17855562000339565b600085815260208120601f198616915b82811015620003df57888601518255948401946001909101908401620003be565b5085821015620003fe5787850151600019600388901b60f8161c191681555b5050505050600190811b01905550565b61215c806200041e6000396000f3fe6080604052600436106101ee5760003560e01c8063715018a61161010d578063a22cb465116100a0578063b88d4fde1161006f578063b88d4fde1461058b578063c87b56dd146105ab578063d16da4dd146105cb578063e985e9c5146105eb578063f2fde38b1461063457600080fd5b8063a22cb4651461051e578063a48217191461053e578063b616091514610546578063b6f0aaa51461057657600080fd5b8063858684b1116100dc578063858684b1146104915780638bde494d146104be5780638da5cb5b146104eb57806395d89b411461050957600080fd5b8063715018a61461041c57806372fdc40e146104315780637b5321a41461045e57806381a36eec1461047e57600080fd5b806323b872dd1161018557806357e2c0f51161015457806357e2c0f5146103985780636352211e146103c75780636e02007d146103e757806370a08231146103fc57600080fd5b806323b872dd1461032357806323e35d7c146103435780633ccfd60b1461036357806342842e0e1461037857600080fd5b8063095ea7b3116101c1578063095ea7b3146102a45780631af62808146102c457806321235083146102e357806322aafbff1461030357600080fd5b806301173a74146101f357806301ffc9a71461021557806306fdde031461024a578063081812fc1461026c575b600080fd5b3480156101ff57600080fd5b5061021361020e366004611ac5565b610654565b005b34801561022157600080fd5b50610235610230366004611af6565b6106ff565b60405190151581526020015b60405180910390f35b34801561025657600080fd5b5061025f610751565b6040516102419190611b63565b34801561027857600080fd5b5061028c610287366004611b76565b6107e3565b6040516001600160a01b039091168152602001610241565b3480156102b057600080fd5b506102136102bf366004611b8f565b61080a565b3480156102d057600080fd5b506008545b604051908152602001610241565b3480156102ef57600080fd5b506102136102fe366004611b76565b610924565b34801561030f57600080fd5b5061021361031e366004611b76565b61093f565b34801561032f57600080fd5b5061021361033e366004611bb9565b610958565b34801561034f57600080fd5b5061023561035e366004611bf5565b610a5e565b34801561036f57600080fd5b50610213610a84565b34801561038457600080fd5b50610213610393366004611bb9565b610afa565b3480156103a457600080fd5b506102356103b3366004611b76565b6000908152600d6020526040902054421090565b3480156103d357600080fd5b5061028c6103e2366004611b76565b610b15565b3480156103f357600080fd5b506007546102d5565b34801561040857600080fd5b506102d5610417366004611ac5565b610b75565b34801561042857600080fd5b50610213610bfb565b34801561043d57600080fd5b506102d561044c366004611b76565b600d6020526000908152604090205481565b34801561046a57600080fd5b50610213610479366004611b76565b610c0f565b61021361048c366004611b76565b610c6c565b34801561049d57600080fd5b506102d56104ac366004611b76565b6000908152600d602052604090205490565b3480156104ca57600080fd5b506102d56104d9366004611b76565b600e6020526000908152604090205481565b3480156104f757600080fd5b506006546001600160a01b031661028c565b34801561051557600080fd5b5061025f610d26565b34801561052a57600080fd5b50610213610539366004611c17565b610d35565b610213610d40565b34801561055257600080fd5b50610235610561366004611b76565b6000908152600e602052604090205460011490565b34801561058257600080fd5b50600c546102d5565b34801561059757600080fd5b506102136105a6366004611c69565b610e04565b3480156105b757600080fd5b5061025f6105c6366004611b76565b610e82565b3480156105d757600080fd5b506102136105e6366004611b76565b610f64565b3480156105f757600080fd5b50610235610606366004611d45565b6001600160a01b03918216600090815260056020908152604080832093909416825291909152205460ff1690565b34801561064057600080fd5b5061021361064f366004611ac5565b610f80565b61065c610ff9565b600780546000908152600e60205260409020600190555461067e908290611053565b600c5461068c90429061106d565b600780546000908152600d602090815260408083209490945582548252600e905291822091909155546106c0906001611d8e565b60078190556008546040519081527fea6ba2790ea1c6dd86dd2089cbf7a852c5fd716cca808ac3aaf6e29353d5b1dc906020015b60405180910390a250565b60006001600160e01b031982166380ac58cd60e01b148061073057506001600160e01b03198216635b5e139f60e01b145b8061074b57506301ffc9a760e01b6001600160e01b03198316145b92915050565b60606000805461076090611da1565b80601f016020809104026020016040519081016040528092919081815260200182805461078c90611da1565b80156107d95780601f106107ae576101008083540402835291602001916107d9565b820191906000526020600020905b8154815290600101906020018083116107bc57829003601f168201915b5050505050905090565b60006107ee82611080565b506000908152600460205260409020546001600160a01b031690565b600061081582610b15565b9050806001600160a01b0316836001600160a01b0316036108875760405162461bcd60e51b815260206004820152602160248201527f4552433732313a20617070726f76616c20746f2063757272656e74206f776e656044820152603960f91b60648201526084015b60405180910390fd5b336001600160a01b03821614806108a357506108a38133610606565b6109155760405162461bcd60e51b815260206004820152603d60248201527f4552433732313a20617070726f76652063616c6c6572206973206e6f7420746f60448201527f6b656e206f776e6572206f7220617070726f76656420666f7220616c6c000000606482015260840161087e565b61091f83836110df565b505050565b61092c610ff9565b6000908152600d60205260409020429055565b610947610ff9565b6000908152600e6020526040812055565b610962338261114d565b6109c85760405162461bcd60e51b815260206004820152603160248201527f4552433732313a207472616e736665722063616c6c6572206973206e6f74206f6044820152701ddb995c881b9bdc88185c1c1c9bdd9959607a1b606482015260840161087e565b6000818152600260205260409020546001600160a01b0316610a2c5760405162461bcd60e51b815260206004820152601960248201527f4552433732313a206e6f6e6578697374656e7420746f6b656e00000000000000604482015260640161087e565b610a3983838360016111cc565b610a446000826110df565b6000818152600e602052604081205561091f838383611248565b6000828152600d60205260408120548210610a7b5750600061074b565b50600192915050565b610a8c610ff9565b6040514790600090339083908381818185875af1925050503d8060008114610ad0576040519150601f19603f3d011682016040523d82523d6000602084013e610ad5565b606091505b5050905080610af65760405162e1a2f960e11b815260040160405180910390fd5b5050565b61091f83838360405180602001604052806000815250610e04565b6000818152600260205260408120546001600160a01b03168061074b5760405162461bcd60e51b8152602060048201526018602482015277115490cdcc8c4e881a5b9d985b1a59081d1bdad95b88125160421b604482015260640161087e565b60006001600160a01b038216610bdf5760405162461bcd60e51b815260206004820152602960248201527f4552433732313a2061646472657373207a65726f206973206e6f7420612076616044820152683634b21037bbb732b960b91b606482015260840161087e565b506001600160a01b031660009081526003602052604090205490565b610c03610ff9565b610c0d60006113b9565b565b610c17610ff9565b60008111610c675760405162461bcd60e51b815260206004820152601f60248201527f5072696365206d7573742062652067726561746572207468616e207a65726f00604482015260640161087e565b600855565b600854341015610c8f57604051635448cff560e01b815260040160405180910390fd5b6000818152600d6020526040902054421015610cd457600c546000828152600d6020526040902054610cc09161106d565b6000828152600d6020526040902055610cf2565b600c54610ce290429061106d565b6000828152600d60205260409020555b807faab14031e88faeea4213dcd9a96061711625f43a506936ed2ae574ea9350173d6008546040516106f491815260200190565b60606001805461076090611da1565b610af633838361140b565b600854341015610d6357604051635448cff560e01b815260040160405180910390fd5b600780546000908152600e602052604090206001905554610d85903390611053565b600c54610d9390429061106d565b600780546000908152600d602090815260408083209490945582548252600e90529182209190915554610dc7906001611d8e565b60078190556008546040519081527fea6ba2790ea1c6dd86dd2089cbf7a852c5fd716cca808ac3aaf6e29353d5b1dc9060200160405180910390a2565b610e0e338361114d565b610e705760405162461bcd60e51b815260206004820152602d60248201527f4552433732313a2063616c6c6572206973206e6f7420746f6b656e206f776e6560448201526c1c881bdc88185c1c1c9bdd9959609a1b606482015260840161087e565b610e7c848484846114d9565b50505050565b6000818152600260205260409020546060906001600160a01b0316610eba576040516336faf6d760e11b815260040160405180910390fd5b60408051808201909152601d81527f646174613a6170706c69636174696f6e2f6a736f6e3b6261736536342c0000006020820152610f3d6009600b600a610f0260085461150c565b610f0b4261150c565b610f148961150c565b604051602001610f2996959493929190611e78565b60405160208183030381529060405261159f565b604051602001610f4e929190611f8d565b6040516020818303038152906040529050919050565b610f6c610ff9565b6000908152600e6020526040902060019055565b610f88610ff9565b6001600160a01b038116610fed5760405162461bcd60e51b815260206004820152602660248201527f4f776e61626c653a206e6577206f776e657220697320746865207a65726f206160448201526564647265737360d01b606482015260840161087e565b610ff6816113b9565b50565b6006546001600160a01b03163314610c0d5760405162461bcd60e51b815260206004820181905260248201527f4f776e61626c653a2063616c6c6572206973206e6f7420746865206f776e6572604482015260640161087e565b610af6828260405180602001604052806000815250611704565b60006110798284611d8e565b9392505050565b6000818152600260205260409020546001600160a01b0316610ff65760405162461bcd60e51b8152602060048201526018602482015277115490cdcc8c4e881a5b9d985b1a59081d1bdad95b88125160421b604482015260640161087e565b600081815260046020526040902080546001600160a01b0319166001600160a01b038416908117909155819061111482610b15565b6001600160a01b03167f8c5be1e5ebec7d5bd14f71427d1e84f3dd0314c0f7b2291e5b200ac8c7c3b92560405160405180910390a45050565b60008061115983610b15565b9050806001600160a01b0316846001600160a01b031614806111a057506001600160a01b0380821660009081526005602090815260408083209388168352929052205460ff165b806111c45750836001600160a01b03166111b9846107e3565b6001600160a01b0316145b949350505050565b6000828152600e60205260409020546001146112435760405162461bcd60e51b815260206004820152603060248201527f5072696f7220417070726f76616c206e656564656420666f72207472616e736660448201526f6572206f662074686520746f6b656e7360801b606482015260840161087e565b610e7c565b826001600160a01b031661125b82610b15565b6001600160a01b0316146112815760405162461bcd60e51b815260040161087e90611fbc565b6001600160a01b0382166112e35760405162461bcd60e51b8152602060048201526024808201527f4552433732313a207472616e7366657220746f20746865207a65726f206164646044820152637265737360e01b606482015260840161087e565b6112f083838360016111cc565b826001600160a01b031661130382610b15565b6001600160a01b0316146113295760405162461bcd60e51b815260040161087e90611fbc565b600081815260046020908152604080832080546001600160a01b03199081169091556001600160a01b0387811680865260038552838620805460001901905590871680865283862080546001019055868652600290945282852080549092168417909155905184937fddf252ad1be2c89b69c2b068fc378daa952ba7f163c4a11628f55a4df523b3ef91a4505050565b600680546001600160a01b038381166001600160a01b0319831681179093556040519116919082907f8be0079c531659141344cd1fd0a4f28419497f9722a3daafe3b4186f6b6457e090600090a35050565b816001600160a01b0316836001600160a01b03160361146c5760405162461bcd60e51b815260206004820152601960248201527f4552433732313a20617070726f766520746f2063616c6c657200000000000000604482015260640161087e565b6001600160a01b03838116600081815260056020908152604080832094871680845294825291829020805460ff191686151590811790915591519182527f17307eab39ab6107e8899845ad3d59bd9653f200f220920489ca2b5937696c31910160405180910390a3505050565b6114e4848484611248565b6114f084848484611737565b610e7c5760405162461bcd60e51b815260040161087e90612001565b6060600061151983611838565b600101905060008167ffffffffffffffff81111561153957611539611c53565b6040519080825280601f01601f191660200182016040528015611563576020820181803683370190505b5090508181016020015b600019016f181899199a1a9b1b9c1cb0b131b232b360811b600a86061a8153600a850494508461156d57509392505050565b606081516000036115be57505060408051602081019091526000815290565b60006040518060600160405280604081526020016120e760409139905060006003845160026115ed9190611d8e565b6115f79190612053565b611602906004612075565b90506000611611826020611d8e565b67ffffffffffffffff81111561162957611629611c53565b6040519080825280601f01601f191660200182016040528015611653576020820181803683370190505b509050818152600183018586518101602084015b818310156116bf576003830192508251603f8160121c168501518253600182019150603f81600c1c168501518253600182019150603f8160061c168501518253600182019150603f8116850151825350600101611667565b6003895106600181146116d957600281146116ea576116f6565b613d3d60f01b6001198301526116f6565b603d60f81b6000198301525b509398975050505050505050565b61170e8383611910565b61171b6000848484611737565b61091f5760405162461bcd60e51b815260040161087e90612001565b60006001600160a01b0384163b1561182d57604051630a85bd0160e11b81526001600160a01b0385169063150b7a029061177b90339089908890889060040161208c565b6020604051808303816000875af19250505080156117b6575060408051601f3d908101601f191682019092526117b3918101906120c9565b60015b611813573d8080156117e4576040519150601f19603f3d011682016040523d82523d6000602084013e6117e9565b606091505b50805160000361180b5760405162461bcd60e51b815260040161087e90612001565b805181602001fd5b6001600160e01b031916630a85bd0160e11b1490506111c4565b506001949350505050565b60008072184f03e93ff9f4daa797ed6e38ed64bf6a1f0160401b83106118775772184f03e93ff9f4daa797ed6e38ed64bf6a1f0160401b830492506040015b6d04ee2d6d415b85acef810000000083106118a3576d04ee2d6d415b85acef8100000000830492506020015b662386f26fc1000083106118c157662386f26fc10000830492506010015b6305f5e10083106118d9576305f5e100830492506008015b61271083106118ed57612710830492506004015b606483106118ff576064830492506002015b600a831061074b5760010192915050565b6001600160a01b0382166119665760405162461bcd60e51b815260206004820181905260248201527f4552433732313a206d696e7420746f20746865207a65726f2061646472657373604482015260640161087e565b6000818152600260205260409020546001600160a01b0316156119cb5760405162461bcd60e51b815260206004820152601c60248201527f4552433732313a20746f6b656e20616c7265616479206d696e74656400000000604482015260640161087e565b6119d96000838360016111cc565b6000818152600260205260409020546001600160a01b031615611a3e5760405162461bcd60e51b815260206004820152601c60248201527f4552433732313a20746f6b656e20616c7265616479206d696e74656400000000604482015260640161087e565b6001600160a01b038216600081815260036020908152604080832080546001019055848352600290915280822080546001600160a01b0319168417905551839291907fddf252ad1be2c89b69c2b068fc378daa952ba7f163c4a11628f55a4df523b3ef908290a45050565b80356001600160a01b0381168114611ac057600080fd5b919050565b600060208284031215611ad757600080fd5b61107982611aa9565b6001600160e01b031981168114610ff657600080fd5b600060208284031215611b0857600080fd5b813561107981611ae0565b60005b83811015611b2e578181015183820152602001611b16565b50506000910152565b60008151808452611b4f816020860160208601611b13565b601f01601f19169290920160200192915050565b6020815260006110796020830184611b37565b600060208284031215611b8857600080fd5b5035919050565b60008060408385031215611ba257600080fd5b611bab83611aa9565b946020939093013593505050565b600080600060608486031215611bce57600080fd5b611bd784611aa9565b9250611be560208501611aa9565b9150604084013590509250925092565b60008060408385031215611c0857600080fd5b50508035926020909101359150565b60008060408385031215611c2a57600080fd5b611c3383611aa9565b915060208301358015158114611c4857600080fd5b809150509250929050565b634e487b7160e01b600052604160045260246000fd5b60008060008060808587031215611c7f57600080fd5b611c8885611aa9565b9350611c9660208601611aa9565b925060408501359150606085013567ffffffffffffffff80821115611cba57600080fd5b818701915087601f830112611cce57600080fd5b813581811115611ce057611ce0611c53565b604051601f8201601f19908116603f01168101908382118183101715611d0857611d08611c53565b816040528281528a6020848701011115611d2157600080fd5b82602086016020830137600060208483010152809550505050505092959194509250565b60008060408385031215611d5857600080fd5b611d6183611aa9565b9150611d6f60208401611aa9565b90509250929050565b634e487b7160e01b600052601160045260246000fd5b8082018082111561074b5761074b611d78565b600181811c90821680611db557607f821691505b602082108103611dd557634e487b7160e01b600052602260045260246000fd5b50919050565b8054600090600181811c9080831680611df557607f831692505b60208084108203611e1657634e487b7160e01b600052602260045260246000fd5b818015611e2a5760018114611e3f57611e6c565b60ff1986168952841515850289019650611e6c565b60008881526020902060005b86811015611e645781548b820152908501908301611e4b565b505084890196505b50505050505092915050565b683d913730b6b2911d1160b91b81526000611e966009830189611ddb565b711116113634b1b2b739b2903730b6b2911d1160711b8152611ebb6012820189611ddb565b711116113634b1b2b739b2902a3cb832911d1160711b81529050611ee26012820188611ddb565b6a111611383934b1b2911d1160a91b81528651909150611f0981600b840160208a01611b13565b7411161139ba30b93a103a34b6b2b9ba30b6b8111d1160591b600b92909101918201528451611f3f816020808501908901611b13565b8082019150506c1116113a37b5b2b724a2111d1160991b60208201528351611f6e81602d840160208801611b13565b61227d60f01b602d9290910191820152602f0198975050505050505050565b60008351611f9f818460208801611b13565b835190830190611fb3818360208801611b13565b01949350505050565b60208082526025908201527f4552433732313a207472616e736665722066726f6d20696e636f72726563742060408201526437bbb732b960d91b606082015260800190565b60208082526032908201527f4552433732313a207472616e7366657220746f206e6f6e20455243373231526560408201527131b2b4bb32b91034b6b83632b6b2b73a32b960711b606082015260800190565b60008261207057634e487b7160e01b600052601260045260246000fd5b500490565b808202811582820484141761074b5761074b611d78565b6001600160a01b03858116825284166020820152604081018390526080606082018190526000906120bf90830184611b37565b9695505050505050565b6000602082840312156120db57600080fd5b815161107981611ae056fe4142434445464748494a4b4c4d4e4f505152535455565758595a6162636465666768696a6b6c6d6e6f707172737475767778797a303132333435363738392b2fa26469706673582212208e48f8fd4fcaf9deba78e357278e608e4e9465aa8ca1e1fa5aa0cb6a1a3ee5d864736f6c63430008110033",
  "devdoc": {
    "kind": "dev",
    "methods": {
      "approve(address,uint256)": {
        "details": "See {IERC721-approve}."
      },
      "balanceOf(address)": {
        "details": "See {IERC721-balanceOf}."
      },
      "getApproved(uint256)": {
        "details": "See {IERC721-getApproved}."
      },
      "isApprovedForAll(address,address)": {
        "details": "See {IERC721-isApprovedForAll}."
      },
      "name()": {
        "details": "See {IERC721Metadata-name}."
      },
      "owner()": {
        "details": "Returns the address of the current owner."
      },
      "ownerOf(uint256)": {
        "details": "See {IERC721-ownerOf}."
      },
      "renounceOwnership()": {
        "details": "Leaves the contract without owner. It will not be possible to call `onlyOwner` functions anymore. Can only be called by the current owner. NOTE: Renouncing ownership will leave the contract without an owner, thereby removing any functionality that is only available to the owner."
      },
      "safeTransferFrom(address,address,uint256)": {
        "details": "See {IERC721-safeTransferFrom}."
      },
      "safeTransferFrom(address,address,uint256,bytes)": {
        "details": "See {IERC721-safeTransferFrom}."
      },
      "setApprovalForAll(address,bool)": {
        "details": "See {IERC721-setApprovalForAll}."
      },
      "supportsInterface(bytes4)": {
        "details": "See {IERC165-supportsInterface}."
      },
      "symbol()": {
        "details": "See {IERC721Metadata-symbol}."
      },
      "tokenURI(uint256)": {
        "details": "See {IERC721Metadata-tokenURI}."
      },
      "transferFrom(address,address,uint256)": {
        "details": "See {IERC721-transferFrom}."
      },
      "transferOwnership(address)": {
        "details": "Transfers ownership of the contract to a new account (`newOwner`). Can only be called by the current owner."
      }
    },
    "version": 1
  },
  "userdoc": {
    "kind": "user",
    "methods": {},
    "version": 1
  },
  "storageLayout": {
    "storage": [
      {
        "astId": 847,
        "contract": "contracts/FixedSubscription.sol:FixedSubscriptionLicense",
        "label": "_name",
        "offset": 0,
        "slot": "0",
        "type": "t_string_storage"
      },
      {
        "astId": 849,
        "contract": "contracts/FixedSubscription.sol:FixedSubscriptionLicense",
        "label": "_symbol",
        "offset": 0,
        "slot": "1",
        "type": "t_string_storage"
      },
      {
        "astId": 853,
        "contract": "contracts/FixedSubscription.sol:FixedSubscriptionLicense",
        "label": "_owners",
        "offset": 0,
        "slot": "2",
        "type": "t_mapping(t_uint256,t_address)"
      },
      {
        "astId": 857,
        "contract": "contracts/FixedSubscription.sol:FixedSubscriptionLicense",
        "label": "_balances",
        "offset": 0,
        "slot": "3",
        "type": "t_mapping(t_address,t_uint256)"
      },
      {
        "astId": 861,
        "contract": "contracts/FixedSubscription.sol:FixedSubscriptionLicense",
        "label": "_tokenApprovals",
        "offset": 0,
        "slot": "4",
        "type": "t_mapping(t_uint256,t_address)"
      },
      {
        "astId": 867,
        "contract": "contracts/FixedSubscription.sol:FixedSubscriptionLicense",
        "label": "_operatorApprovals",
        "offset": 0,
        "slot": "5",
        "type": "t_mapping(t_address,t_mapping(t_address,t_bool))"
      },
      {
        "astId": 7,
        "contract": "contracts/FixedSubscription.sol:FixedSubscriptionLicense",
        "label": "_owner",
        "offset": 0,
        "slot": "6",
        "type": "t_address"
      },
      {
        "astId": 4393,
        "contract": "contracts/FixedSubscription.sol:FixedSubscriptionLicense",
        "label": "s_tokenCounter",
        "offset": 0,
        "slot": "7",
        "type": "t_uint256"
      },
      {
        "astId": 4395,
        "contract": "contracts/FixedSubscription.sol:FixedSubscriptionLicense",
        "label": "s_licensePrice",
        "offset": 0,
        "slot": "8",
        "type": "t_uint256"
      },
      {
        "astId": 4397,
        "contract": "contracts/FixedSubscription.sol:FixedSubscriptionLicense",
        "label": "i_companyName",
        "offset": 0,
        "slot": "9",
        "type": "t_string_storage"
      },
      {
        "astId": 4399,
        "contract": "contracts/FixedSubscription.sol:FixedSubscriptionLicense",
        "label": "i_licenseType",
        "offset": 0,
        "slot": "10",
        "type": "t_string_storage"
      },
      {
        "astId": 4401,
        "contract": "contracts/FixedSubscription.sol:FixedSubscriptionLicense",
        "label": "i_licenseName",
        "offset": 0,
        "slot": "11",
        "type": "t_string_storage"
      },
      {
        "astId": 4403,
        "contract": "contracts/FixedSubscription.sol:FixedSubscriptionLicense",
        "label": "i_periodSecond",
        "offset": 0,
        "slot": "12",
        "type": "t_uint256"
      },
      {
        "astId": 4407,
        "contract": "contracts/FixedSubscription.sol:FixedSubscriptionLicense",
        "label": "expirationTimestamp",
        "offset": 0,
        "slot": "13",
        "type": "t_mapping(t_uint256,t_uint256)"
      },
      {
        "astId": 4411,
        "contract": "contracts/FixedSubscription.sol:FixedSubscriptionLicense",
        "label": "transferingAllowed",
        "offset": 0,
        "slot": "14",
        "type": "t_mapping(t_uint256,t_uint256)"
      }
    ],
    "types": {
      "t_address": {
        "encoding": "inplace",
        "label": "address",
        "numberOfBytes": "20"
      },
      "t_bool": {
        "encoding": "inplace",
        "label": "bool",
        "numberOfBytes": "1"
      },
      "t_mapping(t_address,t_bool)": {
        "encoding": "mapping",
        "key": "t_address",
        "label": "mapping(address => bool)",
        "numberOfBytes": "32",
        "value": "t_bool"
      },
      "t_mapping(t_address,t_mapping(t_address,t_bool))": {
        "encoding": "mapping",
        "key": "t_address",
        "label": "mapping(address => mapping(address => bool))",
        "numberOfBytes": "32",
        "value": "t_mapping(t_address,t_bool)"
      },
      "t_mapping(t_address,t_uint256)": {
        "encoding": "mapping",
        "key": "t_address",
        "label": "mapping(address => uint256)",
        "numberOfBytes": "32",
        "value": "t_uint256"
      },
      "t_mapping(t_uint256,t_address)": {
        "encoding": "mapping",
        "key": "t_uint256",
        "label": "mapping(uint256 => address)",
        "numberOfBytes": "32",
        "value": "t_address"
      },
      "t_mapping(t_uint256,t_uint256)": {
        "encoding": "mapping",
        "key": "t_uint256",
        "label": "mapping(uint256 => uint256)",
        "numberOfBytes": "32",
        "value": "t_uint256"
      },
      "t_string_storage": {
        "encoding": "bytes",
        "label": "string",
        "numberOfBytes": "32"
      },
      "t_uint256": {
        "encoding": "inplace",
        "label": "uint256",
        "numberOfBytes": "32"
      }
    }
  }
}