{
  "address": "0xe7f1725E7734CE288F8367e1Bb143E90bb3F0512",
  "abi": [
    {
      "inputs": [
        {
          "internalType": "address",
          "name": "_toAddress",
          "type": "address"
        },
        {
          "internalType": "address",
          "name": "_tokenAddress",
          "type": "address"
        },
        {
          "internalType": "uint256",
          "name": "_tokenAmount",
          "type": "uint256"
        },
        {
          "internalType": "uint256",
          "name": "_periodSeconds",
          "type": "uint256"
        },
        {
          "internalType": "uint256",
          "name": "_gasPrice",
          "type": "uint256"
        },
        {
          "internalType": "string",
          "name": "licenseName",
          "type": "string"
        }
      ],
      "stateMutability": "nonpayable",
      "type": "constructor"
    },
    {
      "anonymous": false,
      "inputs": [
        {
          "indexed": true,
          "internalType": "address",
          "name": "from",
          "type": "address"
        },
        {
          "indexed": true,
          "internalType": "address",
          "name": "to",
          "type": "address"
        },
        {
          "indexed": false,
          "internalType": "address",
          "name": "tokenAddress",
          "type": "address"
        },
        {
          "indexed": false,
          "internalType": "uint256",
          "name": "tokenAmount",
          "type": "uint256"
        },
        {
          "indexed": false,
          "internalType": "uint256",
          "name": "periodSeconds",
          "type": "uint256"
        },
        {
          "indexed": false,
          "internalType": "uint256",
          "name": "gasPrice",
          "type": "uint256"
        },
        {
          "indexed": false,
          "internalType": "uint256",
          "name": "nonce",
          "type": "uint256"
        }
      ],
      "name": "CancelSubscription",
      "type": "event"
    },
    {
      "anonymous": false,
      "inputs": [
        {
          "indexed": true,
          "internalType": "address",
          "name": "from",
          "type": "address"
        },
        {
          "indexed": true,
          "internalType": "address",
          "name": "to",
          "type": "address"
        },
        {
          "indexed": false,
          "internalType": "address",
          "name": "tokenAddress",
          "type": "address"
        },
        {
          "indexed": false,
          "internalType": "uint256",
          "name": "tokenAmount",
          "type": "uint256"
        },
        {
          "indexed": false,
          "internalType": "uint256",
          "name": "periodSeconds",
          "type": "uint256"
        },
        {
          "indexed": false,
          "internalType": "uint256",
          "name": "gasPrice",
          "type": "uint256"
        },
        {
          "indexed": false,
          "internalType": "uint256",
          "name": "nonce",
          "type": "uint256"
        }
      ],
      "name": "ExecuteSubscription",
      "type": "event"
    },
    {
      "inputs": [
        {
          "internalType": "address",
          "name": "from",
          "type": "address"
        },
        {
          "internalType": "address",
          "name": "to",
          "type": "address"
        },
        {
          "internalType": "address",
          "name": "tokenAddress",
          "type": "address"
        },
        {
          "internalType": "uint256",
          "name": "tokenAmount",
          "type": "uint256"
        },
        {
          "internalType": "uint256",
          "name": "periodSeconds",
          "type": "uint256"
        },
        {
          "internalType": "uint256",
          "name": "gasPrice",
          "type": "uint256"
        },
        {
          "internalType": "uint256",
          "name": "nonce",
          "type": "uint256"
        },
        {
          "internalType": "bytes",
          "name": "signature",
          "type": "bytes"
        }
      ],
      "name": "cancelSubscription",
      "outputs": [
        {
          "internalType": "bool",
          "name": "success",
          "type": "bool"
        }
      ],
      "stateMutability": "nonpayable",
      "type": "function"
    },
    {
      "inputs": [
        {
          "internalType": "address",
          "name": "from",
          "type": "address"
        },
        {
          "internalType": "address",
          "name": "to",
          "type": "address"
        },
        {
          "internalType": "address",
          "name": "tokenAddress",
          "type": "address"
        },
        {
          "internalType": "uint256",
          "name": "tokenAmount",
          "type": "uint256"
        },
        {
          "internalType": "uint256",
          "name": "periodSeconds",
          "type": "uint256"
        },
        {
          "internalType": "uint256",
          "name": "gasPrice",
          "type": "uint256"
        },
        {
          "internalType": "uint256",
          "name": "nonce",
          "type": "uint256"
        },
        {
          "internalType": "bytes",
          "name": "signature",
          "type": "bytes"
        }
      ],
      "name": "executeSubscription",
      "outputs": [
        {
          "internalType": "bool",
          "name": "success",
          "type": "bool"
        }
      ],
      "stateMutability": "nonpayable",
      "type": "function"
    },
    {
      "inputs": [],
      "name": "getILicenseName",
      "outputs": [
        {
          "internalType": "string",
          "name": "",
          "type": "string"
        }
      ],
      "stateMutability": "view",
      "type": "function"
    },
    {
      "inputs": [],
      "name": "getRequiredGasPrice",
      "outputs": [
        {
          "internalType": "uint256",
          "name": "",
          "type": "uint256"
        }
      ],
      "stateMutability": "view",
      "type": "function"
    },
    {
      "inputs": [],
      "name": "getRequiredPeriodSeconds",
      "outputs": [
        {
          "internalType": "uint256",
          "name": "",
          "type": "uint256"
        }
      ],
      "stateMutability": "view",
      "type": "function"
    },
    {
      "inputs": [],
      "name": "getRequiredToAddress",
      "outputs": [
        {
          "internalType": "address",
          "name": "",
          "type": "address"
        }
      ],
      "stateMutability": "view",
      "type": "function"
    },
    {
      "inputs": [],
      "name": "getRequiredTokenAddress",
      "outputs": [
        {
          "internalType": "address",
          "name": "",
          "type": "address"
        }
      ],
      "stateMutability": "view",
      "type": "function"
    },
    {
      "inputs": [],
      "name": "getRequiredTokenAmount",
      "outputs": [
        {
          "internalType": "uint256",
          "name": "",
          "type": "uint256"
        }
      ],
      "stateMutability": "view",
      "type": "function"
    },
    {
      "inputs": [
        {
          "internalType": "address",
          "name": "from",
          "type": "address"
        },
        {
          "internalType": "address",
          "name": "to",
          "type": "address"
        },
        {
          "internalType": "address",
          "name": "tokenAddress",
          "type": "address"
        },
        {
          "internalType": "uint256",
          "name": "tokenAmount",
          "type": "uint256"
        },
        {
          "internalType": "uint256",
          "name": "periodSeconds",
          "type": "uint256"
        },
        {
          "internalType": "uint256",
          "name": "gasPrice",
          "type": "uint256"
        },
        {
          "internalType": "uint256",
          "name": "nonce",
          "type": "uint256"
        }
      ],
      "name": "getSubscriptionHash",
      "outputs": [
        {
          "internalType": "bytes32",
          "name": "",
          "type": "bytes32"
        }
      ],
      "stateMutability": "view",
      "type": "function"
    },
    {
      "inputs": [
        {
          "internalType": "bytes32",
          "name": "subscriptionHash",
          "type": "bytes32"
        },
        {
          "internalType": "bytes",
          "name": "signature",
          "type": "bytes"
        }
      ],
      "name": "getSubscriptionSigner",
      "outputs": [
        {
          "internalType": "address",
          "name": "",
          "type": "address"
        }
      ],
      "stateMutability": "pure",
      "type": "function"
    },
    {
      "inputs": [
        {
          "internalType": "bytes32",
          "name": "subscriptionHash",
          "type": "bytes32"
        },
        {
          "internalType": "uint256",
          "name": "gracePeriodSeconds",
          "type": "uint256"
        }
      ],
      "name": "isSubscriptionActive",
      "outputs": [
        {
          "internalType": "bool",
          "name": "",
          "type": "bool"
        }
      ],
      "stateMutability": "view",
      "type": "function"
    },
    {
      "inputs": [
        {
          "internalType": "address",
          "name": "from",
          "type": "address"
        },
        {
          "internalType": "address",
          "name": "to",
          "type": "address"
        },
        {
          "internalType": "address",
          "name": "tokenAddress",
          "type": "address"
        },
        {
          "internalType": "uint256",
          "name": "tokenAmount",
          "type": "uint256"
        },
        {
          "internalType": "uint256",
          "name": "periodSeconds",
          "type": "uint256"
        },
        {
          "internalType": "uint256",
          "name": "gasPrice",
          "type": "uint256"
        },
        {
          "internalType": "uint256",
          "name": "nonce",
          "type": "uint256"
        },
        {
          "internalType": "bytes",
          "name": "signature",
          "type": "bytes"
        }
      ],
      "name": "isSubscriptionReady",
      "outputs": [
        {
          "internalType": "bool",
          "name": "",
          "type": "bool"
        }
      ],
      "stateMutability": "view",
      "type": "function"
    }
  ],
  "transactionHash": "0x837757bbec9f380b40d5a3298fe065ca9960ff7ce66cf40ff484d1fbad9408f8",
  "args": [
    "0xf39Fd6e51aad88F6F4ce6aB8827279cffFb92266",
    "0x5FbDB2315678afecb367f032d93F642f64180aa3",
    "10",
    "60",
    "1",
    "Microsoft"
  ],
  "numDeployments": 1,
  "solcInputHash": "f3b6e11123fff8f6f0ef542589731562",
  "bytecode": "0x60806040523480156200001157600080fd5b50604051620016c4380380620016c48339810160408190526200003491620000cc565b600180546001600160a01b038089166001600160a01b0319928316179092556002805492881692821692909217909155600385905560048490556005839055600080549091163317905560066200008c828262000272565b505050505050506200033e565b80516001600160a01b0381168114620000b157600080fd5b919050565b634e487b7160e01b600052604160045260246000fd5b60008060008060008060c08789031215620000e657600080fd5b620000f18762000099565b955060206200010281890162000099565b604089015160608a015160808b015160a08c0151939950919750955093506001600160401b03808211156200013657600080fd5b818a0191508a601f8301126200014b57600080fd5b815181811115620001605762000160620000b6565b604051601f8201601f19908116603f011681019083821181831017156200018b576200018b620000b6565b816040528281528d86848701011115620001a457600080fd5b600093505b82841015620001c85784840186015181850187015292850192620001a9565b60008684830101528096505050505050509295509295509295565b600181811c90821680620001f857607f821691505b6020821081036200021957634e487b7160e01b600052602260045260246000fd5b50919050565b601f8211156200026d57600081815260208120601f850160051c81016020861015620002485750805b601f850160051c820191505b81811015620002695782815560010162000254565b5050505b505050565b81516001600160401b038111156200028e576200028e620000b6565b620002a6816200029f8454620001e3565b846200021f565b602080601f831160018114620002de5760008415620002c55750858301515b600019600386901b1c1916600185901b17855562000269565b600085815260208120601f198616915b828110156200030f57888601518255948401946001909101908401620002ee565b50858210156200032e5787850151600019600388901b60f8161c191681555b5050505050600190811b01905550565b611376806200034e6000396000f3fe608060405234801561001057600080fd5b50600436106100b35760003560e01c8063ae702ba411610071578063ae702ba414610150578063aeb5acb214610163578063c81478651461016b578063d3c576cd1461017e578063d933c06614610191578063e431ff6e146101a457600080fd5b8062924516146100b857806308e06c86146100e257806318f321a3146100f357806333c92a991461010657806371d22d4d1461011b5780639e72ad5d1461013e575b600080fd5b6001546001600160a01b03165b6040516001600160a01b0390911681526020015b60405180910390f35b6002546001600160a01b03166100c5565b6100c5610101366004611056565b6101ac565b61010e610218565b6040516100d991906110e3565b61012e610129366004611112565b6102aa565b60405190151581526020016100d9565b6004545b6040519081526020016100d9565b61012e61015e3660046111a8565b610428565b600354610142565b6101426101793660046111ca565b610468565b61012e61018c366004611112565b6106a6565b61012e61019f366004611112565b610b69565b600554610142565b600061020f82610209856040517f19457468657265756d205369676e6564204d6573736167653a0a3332000000006020820152603c8101829052600090605c01604051602081830303815290604052805190602001209050919050565b90610cf9565b90505b92915050565b60606006805461022790611232565b80601f016020809104026020016040519081016040528092919081815260200182805461025390611232565b80156102a05780601f10610275576101008083540402835291602001916102a0565b820191906000526020600020905b81548152906001019060200180831161028357829003601f168201915b5050505050905090565b6000806102bc8a8a8a8a8a8a8a610468565b905060006102ca82856101ac565b90508a6001600160a01b0316816001600160a01b03161461034a5760405162461bcd60e51b815260206004820152602f60248201527f496e76616c6964205369676e617475726520666f72207375627363726970746960448201526e37b71031b0b731b2b63630ba34b7b760891b60648201526084015b60405180910390fd5b6001600160a01b038b1633146103a25760405162461bcd60e51b815260206004820181905260248201527f6d73672e73656e646572206973206e6f742074686520737562736372696265726044820152606401610341565b600082815260076020908152604091829020600019905581516001600160a01b038c811682529181018b905291820189905260608201889052608082018790528b811691908d16907f51a97a25211c2be9b0b1dd64ee1de490cdb047390e6eba984e6a1d126e6ac4569060a00160405180910390a35060019a9950505050505050505050565b60008281526007602052604081205460010161044657506000610212565b60008381526007602052604090205461045f4284610d1d565b11159392505050565b6001546000906001600160a01b038881169116146104c85760405162461bcd60e51b815260206004820152601960248201527f7265717569726564546f41646472657373204661696c757265000000000000006044820152606401610341565b6002546001600160a01b038781169116146105255760405162461bcd60e51b815260206004820152601c60248201527f7265717569726564546f6b656e41646472657373204661696c757265000000006044820152606401610341565b60035485146105765760405162461bcd60e51b815260206004820152601b60248201527f7265717569726564546f6b656e416d6f756e74204661696c75726500000000006044820152606401610341565b60045484146105c75760405162461bcd60e51b815260206004820152601d60248201527f7265717569726564506572696f645365636f6e6473204661696c7572650000006044820152606401610341565b60055483146106185760405162461bcd60e51b815260206004820152601860248201527f72657175697265644761735072696365204661696c75726500000000000000006044820152606401610341565b604051601960f81b6020820152600060218201526bffffffffffffffffffffffff1930606090811b821660228401528a811b8216603684015289811b8216604a84015288901b16605e820152607281018690526092810185905260b2810184905260d2810183905260f201604051602081830303815290604052805190602001209050979650505050505050565b604051636c99e03360e11b8152600090309063d933c066906106da908c908c908c908c908c908c908c908c9060040161126c565b602060405180830381865afa1580156106f7573d6000803e3d6000fd5b505050506040513d601f19601f8201168201806040525081019061071b91906112c7565b6107975760405162461bcd60e51b815260206004820152604160248201527f537562736372697074696f6e206973206e6f74207265616479206f7220636f6e60448201527f646974696f6e73206f66207472616e736374696f6e20617265206e6f74206d656064820152601d60fa1b608482015260a401610341565b60006107a88a8a8a8a8a8a8a610468565b90506107b44287610d1d565b6000828152600760205260408082209290925590516370a0823160e01b81526001600160a01b038b811660048301528a16906370a0823190602401602060405180830381865afa15801561080c573d6000803e3d6000fd5b505050506040513d601f19601f8201168201806040525081019061083091906112f0565b6040516323b872dd60e01b81526001600160a01b038d811660048301528c81166024830152604482018b9052919250908a16906323b872dd906064016020604051808303816000875af115801561088b573d6000803e3d6000fd5b505050506040513d601f19601f820116820180604052508101906108af91906112c7565b506040516370a0823160e01b81526001600160a01b038b811660048301528a16906370a0823190602401602060405180830381865afa1580156108f6573d6000803e3d6000fd5b505050506040513d601f19601f8201168201806040525081019061091a91906112f0565b6109248983611309565b146109805760405162461bcd60e51b815260206004820152602660248201527f45524332302042616c616e636520646964206e6f74206368616e676520636f72604482015265726563746c7960d01b6064820152608401610341565b610988610d29565b6109f25760405162461bcd60e51b815260206004820152603560248201527f537562736372697074696f6e3a3a65786563757465537562736372697074696f6044820152741b88151c985b9cd9995c919c9bdb4819985a5b1959605a1b6064820152608401610341565b604080516001600160a01b038b81168252602082018b90529181018990526060810188905260808101879052818c16918d16907f96d296c945eee0618d3cc6f435f4d59f14bcefd708eab22c3de30df20b1347939060a00160405180910390a38515610b58576040516323b872dd60e01b81526001600160a01b038c81166004830152336024830152604482018890528a16906323b872dd906064016020604051808303816000875af1158015610aad573d6000803e3d6000fd5b505050506040513d601f19601f82011682018060405250810190610ad191906112c7565b50610ada610d29565b610b585760405162461bcd60e51b815260206004820152604360248201527f537562736372697074696f6e3a3a65786563757465537562736372697074696f60448201527f6e204661696c656420746f20706179206761732061732066726f6d206163636f6064820152621d5b9d60ea1b608482015260a401610341565b5060019a9950505050505050505050565b600080610b7b8a8a8a8a8a8a8a610468565b90506000610b8982856101ac565b604051636eb1769f60e11b81526001600160a01b038d811660048301523060248301529192506000918b169063dd62ed3e90604401602060405180830381865afa158015610bdb573d6000803e3d6000fd5b505050506040513d601f19601f82011682018060405250810190610bff91906112f0565b6040516370a0823160e01b81526001600160a01b038e811660048301529192506000918c16906370a0823190602401602060405180830381865afa158015610c4b573d6000803e3d6000fd5b505050506040513d601f19601f82011682018060405250810190610c6f91906112f0565b90508c6001600160a01b0316836001600160a01b0316148015610ca457508b6001600160a01b03168d6001600160a01b031614155b8015610cbe57506000848152600760205260409020544210155b8015610cd35750610ccf8a89610d1d565b8210155b8015610ce85750610ce48a89610d1d565b8110155b9d9c50505050505050505050505050565b6000806000610d088585610d5d565b91509150610d1581610da2565b509392505050565b600061020f8284611309565b6000803d8015610d405760208114610d4957610d55565b60019150610d55565b60206000803e60005191505b501515919050565b6000808251604103610d935760208301516040840151606085015160001a610d8787828585610eef565b94509450505050610d9b565b506000905060025b9250929050565b6000816004811115610db657610db661132a565b03610dbe5750565b6001816004811115610dd257610dd261132a565b03610e1f5760405162461bcd60e51b815260206004820152601860248201527f45434453413a20696e76616c6964207369676e617475726500000000000000006044820152606401610341565b6002816004811115610e3357610e3361132a565b03610e805760405162461bcd60e51b815260206004820152601f60248201527f45434453413a20696e76616c6964207369676e6174757265206c656e677468006044820152606401610341565b6003816004811115610e9457610e9461132a565b03610eec5760405162461bcd60e51b815260206004820152602260248201527f45434453413a20696e76616c6964207369676e6174757265202773272076616c604482015261756560f01b6064820152608401610341565b50565b6000807f7fffffffffffffffffffffffffffffff5d576e7357a4501ddfe92f46681b20a0831115610f265750600090506003610faa565b6040805160008082526020820180845289905260ff881692820192909252606081018690526080810185905260019060a0016020604051602081039080840390855afa158015610f7a573d6000803e3d6000fd5b5050604051601f1901519150506001600160a01b038116610fa357600060019250925050610faa565b9150600090505b94509492505050565b634e487b7160e01b600052604160045260246000fd5b600082601f830112610fda57600080fd5b813567ffffffffffffffff80821115610ff557610ff5610fb3565b604051601f8301601f19908116603f0116810190828211818310171561101d5761101d610fb3565b8160405283815286602085880101111561103657600080fd5b836020870160208301376000602085830101528094505050505092915050565b6000806040838503121561106957600080fd5b82359150602083013567ffffffffffffffff81111561108757600080fd5b61109385828601610fc9565b9150509250929050565b6000815180845260005b818110156110c3576020818501810151868301820152016110a7565b506000602082860101526020601f19601f83011685010191505092915050565b60208152600061020f602083018461109d565b80356001600160a01b038116811461110d57600080fd5b919050565b600080600080600080600080610100898b03121561112f57600080fd5b611138896110f6565b975061114660208a016110f6565b965061115460408a016110f6565b9550606089013594506080890135935060a0890135925060c0890135915060e089013567ffffffffffffffff81111561118c57600080fd5b6111988b828c01610fc9565b9150509295985092959890939650565b600080604083850312156111bb57600080fd5b50508035926020909101359150565b600080600080600080600060e0888a0312156111e557600080fd5b6111ee886110f6565b96506111fc602089016110f6565b955061120a604089016110f6565b969995985095966060810135965060808101359560a0820135955060c0909101359350915050565b600181811c9082168061124657607f821691505b60208210810361126657634e487b7160e01b600052602260045260246000fd5b50919050565b600061010060018060a01b03808c168452808b166020850152808a166040850152508760608401528660808401528560a08401528460c08401528060e08401526112b88184018561109d565b9b9a5050505050505050505050565b6000602082840312156112d957600080fd5b815180151581146112e957600080fd5b9392505050565b60006020828403121561130257600080fd5b5051919050565b8082018082111561021257634e487b7160e01b600052601160045260246000fd5b634e487b7160e01b600052602160045260246000fdfea2646970667358221220e2c0ab4b08812d24bd7758e1495115ed0a7b8e4f4a7a6fd45622a14c93e8981964736f6c63430008110033",
  "devdoc": {
    "kind": "dev",
    "methods": {},
    "version": 1
  },
  "userdoc": {
    "kind": "user",
    "methods": {},
    "version": 1
  },
  "storageLayout": {
    "storage": [
      {
        "astId": 5576,
        "contract": "contracts/SubscriptionLicense.sol:SubscriptionLicense",
        "label": "author",
        "offset": 0,
        "slot": "0",
        "type": "t_address"
      },
      {
        "astId": 5578,
        "contract": "contracts/SubscriptionLicense.sol:SubscriptionLicense",
        "label": "requiredToAddress",
        "offset": 0,
        "slot": "1",
        "type": "t_address"
      },
      {
        "astId": 5580,
        "contract": "contracts/SubscriptionLicense.sol:SubscriptionLicense",
        "label": "requiredTokenAddress",
        "offset": 0,
        "slot": "2",
        "type": "t_address"
      },
      {
        "astId": 5582,
        "contract": "contracts/SubscriptionLicense.sol:SubscriptionLicense",
        "label": "requiredTokenAmount",
        "offset": 0,
        "slot": "3",
        "type": "t_uint256"
      },
      {
        "astId": 5584,
        "contract": "contracts/SubscriptionLicense.sol:SubscriptionLicense",
        "label": "requiredPeriodSeconds",
        "offset": 0,
        "slot": "4",
        "type": "t_uint256"
      },
      {
        "astId": 5586,
        "contract": "contracts/SubscriptionLicense.sol:SubscriptionLicense",
        "label": "requiredGasPrice",
        "offset": 0,
        "slot": "5",
        "type": "t_uint256"
      },
      {
        "astId": 5588,
        "contract": "contracts/SubscriptionLicense.sol:SubscriptionLicense",
        "label": "i_licenseName",
        "offset": 0,
        "slot": "6",
        "type": "t_string_storage"
      },
      {
        "astId": 5592,
        "contract": "contracts/SubscriptionLicense.sol:SubscriptionLicense",
        "label": "nextValidTimestamp",
        "offset": 0,
        "slot": "7",
        "type": "t_mapping(t_bytes32,t_uint256)"
      }
    ],
    "types": {
      "t_address": {
        "encoding": "inplace",
        "label": "address",
        "numberOfBytes": "20"
      },
      "t_bytes32": {
        "encoding": "inplace",
        "label": "bytes32",
        "numberOfBytes": "32"
      },
      "t_mapping(t_bytes32,t_uint256)": {
        "encoding": "mapping",
        "key": "t_bytes32",
        "label": "mapping(bytes32 => uint256)",
        "numberOfBytes": "32",
        "value": "t_uint256"
      },
      "t_string_storage": {
        "encoding": "bytes",
        "label": "string",
        "numberOfBytes": "32"
      },
      "t_uint256": {
        "encoding": "inplace",
        "label": "uint256",
        "numberOfBytes": "32"
      }
    }
  }
}