{
  "address": "0xDc64a140Aa3E981100a9becA4E685f962f0cF6C9",
  "abi": [
    {
      "inputs": [
        {
          "internalType": "address",
          "name": "_toAddress",
          "type": "address"
        },
        {
          "internalType": "address",
          "name": "_tokenAddress",
          "type": "address"
        },
        {
          "internalType": "uint256",
          "name": "_tokenAmount",
          "type": "uint256"
        },
        {
          "internalType": "uint256",
          "name": "_periodSeconds",
          "type": "uint256"
        },
        {
          "internalType": "uint256",
          "name": "_gasPrice",
          "type": "uint256"
        },
        {
          "internalType": "string",
          "name": "licenseName",
          "type": "string"
        }
      ],
      "stateMutability": "nonpayable",
      "type": "constructor"
    },
    {
      "anonymous": false,
      "inputs": [
        {
          "indexed": true,
          "internalType": "address",
          "name": "from",
          "type": "address"
        },
        {
          "indexed": true,
          "internalType": "address",
          "name": "to",
          "type": "address"
        },
        {
          "indexed": false,
          "internalType": "address",
          "name": "tokenAddress",
          "type": "address"
        },
        {
          "indexed": false,
          "internalType": "uint256",
          "name": "tokenAmount",
          "type": "uint256"
        },
        {
          "indexed": false,
          "internalType": "uint256",
          "name": "periodSeconds",
          "type": "uint256"
        },
        {
          "indexed": false,
          "internalType": "uint256",
          "name": "gasPrice",
          "type": "uint256"
        },
        {
          "indexed": false,
          "internalType": "uint256",
          "name": "nonce",
          "type": "uint256"
        }
      ],
      "name": "CancelSubscription",
      "type": "event"
    },
    {
      "anonymous": false,
      "inputs": [
        {
          "indexed": true,
          "internalType": "address",
          "name": "from",
          "type": "address"
        },
        {
          "indexed": true,
          "internalType": "address",
          "name": "to",
          "type": "address"
        },
        {
          "indexed": false,
          "internalType": "address",
          "name": "tokenAddress",
          "type": "address"
        },
        {
          "indexed": false,
          "internalType": "uint256",
          "name": "tokenAmount",
          "type": "uint256"
        },
        {
          "indexed": false,
          "internalType": "uint256",
          "name": "periodSeconds",
          "type": "uint256"
        },
        {
          "indexed": false,
          "internalType": "uint256",
          "name": "gasPrice",
          "type": "uint256"
        },
        {
          "indexed": false,
          "internalType": "uint256",
          "name": "nonce",
          "type": "uint256"
        }
      ],
      "name": "ExecuteSubscription",
      "type": "event"
    },
    {
      "stateMutability": "payable",
      "type": "fallback"
    },
    {
      "inputs": [],
      "name": "author",
      "outputs": [
        {
          "internalType": "address",
          "name": "",
          "type": "address"
        }
      ],
      "stateMutability": "view",
      "type": "function"
    },
    {
      "inputs": [
        {
          "internalType": "address",
          "name": "from",
          "type": "address"
        },
        {
          "internalType": "address",
          "name": "to",
          "type": "address"
        },
        {
          "internalType": "address",
          "name": "tokenAddress",
          "type": "address"
        },
        {
          "internalType": "uint256",
          "name": "tokenAmount",
          "type": "uint256"
        },
        {
          "internalType": "uint256",
          "name": "periodSeconds",
          "type": "uint256"
        },
        {
          "internalType": "uint256",
          "name": "gasPrice",
          "type": "uint256"
        },
        {
          "internalType": "uint256",
          "name": "nonce",
          "type": "uint256"
        },
        {
          "internalType": "bytes",
          "name": "signature",
          "type": "bytes"
        }
      ],
      "name": "cancelSubscription",
      "outputs": [
        {
          "internalType": "bool",
          "name": "success",
          "type": "bool"
        }
      ],
      "stateMutability": "nonpayable",
      "type": "function"
    },
    {
      "inputs": [],
      "name": "endContract",
      "outputs": [],
      "stateMutability": "nonpayable",
      "type": "function"
    },
    {
      "inputs": [
        {
          "internalType": "address",
          "name": "from",
          "type": "address"
        },
        {
          "internalType": "address",
          "name": "to",
          "type": "address"
        },
        {
          "internalType": "address",
          "name": "tokenAddress",
          "type": "address"
        },
        {
          "internalType": "uint256",
          "name": "tokenAmount",
          "type": "uint256"
        },
        {
          "internalType": "uint256",
          "name": "periodSeconds",
          "type": "uint256"
        },
        {
          "internalType": "uint256",
          "name": "gasPrice",
          "type": "uint256"
        },
        {
          "internalType": "uint256",
          "name": "nonce",
          "type": "uint256"
        },
        {
          "internalType": "bytes",
          "name": "signature",
          "type": "bytes"
        }
      ],
      "name": "executeSubscription",
      "outputs": [
        {
          "internalType": "bool",
          "name": "success",
          "type": "bool"
        }
      ],
      "stateMutability": "nonpayable",
      "type": "function"
    },
    {
      "inputs": [
        {
          "internalType": "address",
          "name": "",
          "type": "address"
        }
      ],
      "name": "extraNonce",
      "outputs": [
        {
          "internalType": "uint256",
          "name": "",
          "type": "uint256"
        }
      ],
      "stateMutability": "view",
      "type": "function"
    },
    {
      "inputs": [
        {
          "internalType": "address",
          "name": "from",
          "type": "address"
        },
        {
          "internalType": "address",
          "name": "to",
          "type": "address"
        },
        {
          "internalType": "address",
          "name": "tokenAddress",
          "type": "address"
        },
        {
          "internalType": "uint256",
          "name": "tokenAmount",
          "type": "uint256"
        },
        {
          "internalType": "uint256",
          "name": "periodSeconds",
          "type": "uint256"
        },
        {
          "internalType": "uint256",
          "name": "gasPrice",
          "type": "uint256"
        },
        {
          "internalType": "uint256",
          "name": "nonce",
          "type": "uint256"
        }
      ],
      "name": "getSubscriptionHash",
      "outputs": [
        {
          "internalType": "bytes32",
          "name": "",
          "type": "bytes32"
        }
      ],
      "stateMutability": "view",
      "type": "function"
    },
    {
      "inputs": [
        {
          "internalType": "bytes32",
          "name": "subscriptionHash",
          "type": "bytes32"
        },
        {
          "internalType": "bytes",
          "name": "signature",
          "type": "bytes"
        }
      ],
      "name": "getSubscriptionSigner",
      "outputs": [
        {
          "internalType": "address",
          "name": "",
          "type": "address"
        }
      ],
      "stateMutability": "pure",
      "type": "function"
    },
    {
      "inputs": [
        {
          "internalType": "bytes32",
          "name": "subscriptionHash",
          "type": "bytes32"
        },
        {
          "internalType": "uint256",
          "name": "gracePeriodSeconds",
          "type": "uint256"
        }
      ],
      "name": "isSubscriptionActive",
      "outputs": [
        {
          "internalType": "bool",
          "name": "",
          "type": "bool"
        }
      ],
      "stateMutability": "view",
      "type": "function"
    },
    {
      "inputs": [
        {
          "internalType": "address",
          "name": "from",
          "type": "address"
        },
        {
          "internalType": "address",
          "name": "to",
          "type": "address"
        },
        {
          "internalType": "address",
          "name": "tokenAddress",
          "type": "address"
        },
        {
          "internalType": "uint256",
          "name": "tokenAmount",
          "type": "uint256"
        },
        {
          "internalType": "uint256",
          "name": "periodSeconds",
          "type": "uint256"
        },
        {
          "internalType": "uint256",
          "name": "gasPrice",
          "type": "uint256"
        },
        {
          "internalType": "uint256",
          "name": "nonce",
          "type": "uint256"
        },
        {
          "internalType": "bytes",
          "name": "signature",
          "type": "bytes"
        }
      ],
      "name": "isSubscriptionReady",
      "outputs": [
        {
          "internalType": "bool",
          "name": "",
          "type": "bool"
        }
      ],
      "stateMutability": "view",
      "type": "function"
    },
    {
      "inputs": [
        {
          "internalType": "bytes32",
          "name": "",
          "type": "bytes32"
        }
      ],
      "name": "nextValidTimestamp",
      "outputs": [
        {
          "internalType": "uint256",
          "name": "",
          "type": "uint256"
        }
      ],
      "stateMutability": "view",
      "type": "function"
    },
    {
      "inputs": [],
      "name": "requiredGasPrice",
      "outputs": [
        {
          "internalType": "uint256",
          "name": "",
          "type": "uint256"
        }
      ],
      "stateMutability": "view",
      "type": "function"
    },
    {
      "inputs": [],
      "name": "requiredPeriodSeconds",
      "outputs": [
        {
          "internalType": "uint256",
          "name": "",
          "type": "uint256"
        }
      ],
      "stateMutability": "view",
      "type": "function"
    },
    {
      "inputs": [],
      "name": "requiredToAddress",
      "outputs": [
        {
          "internalType": "address",
          "name": "",
          "type": "address"
        }
      ],
      "stateMutability": "view",
      "type": "function"
    },
    {
      "inputs": [],
      "name": "requiredTokenAddress",
      "outputs": [
        {
          "internalType": "address",
          "name": "",
          "type": "address"
        }
      ],
      "stateMutability": "view",
      "type": "function"
    },
    {
      "inputs": [],
      "name": "requiredTokenAmount",
      "outputs": [
        {
          "internalType": "uint256",
          "name": "",
          "type": "uint256"
        }
      ],
      "stateMutability": "view",
      "type": "function"
    },
    {
      "stateMutability": "payable",
      "type": "receive"
    }
  ],
  "transactionHash": "0x0041f540afe3c10fe46fc88e548c7d57182d92c31590bdc30fa5e7b81f085661",
  "args": [
    "0x76eD2B384f9fA8649E7c15d324367f78515183aE",
    "0xCf7Ed3AccA5a467e9e704C703E8D87F634fB0Fc9",
    "10",
    "60",
    "1",
    "Microsoft"
  ],
  "numDeployments": 1,
  "solcInputHash": "f03d71004a3f8860a8a7597026dffc2e",
  "bytecode": "0x60806040523480156200001157600080fd5b5060405162001933380380620019338339810160408190526200003491620000cc565b600180546001600160a01b038089166001600160a01b0319928316179092556002805492881692821692909217909155600385905560048490556005839055600080549091163317905560066200008c828262000272565b505050505050506200033e565b80516001600160a01b0381168114620000b157600080fd5b919050565b634e487b7160e01b600052604160045260246000fd5b60008060008060008060c08789031215620000e657600080fd5b620000f18762000099565b955060206200010281890162000099565b604089015160608a015160808b015160a08c0151939950919750955093506001600160401b03808211156200013657600080fd5b818a0191508a601f8301126200014b57600080fd5b815181811115620001605762000160620000b6565b604051601f8201601f19908116603f011681019083821181831017156200018b576200018b620000b6565b816040528281528d86848701011115620001a457600080fd5b600093505b82841015620001c85784840186015181850187015292850192620001a9565b60008684830101528096505050505050509295509295509295565b600181811c90821680620001f857607f821691505b6020821081036200021957634e487b7160e01b600052602260045260246000fd5b50919050565b601f8211156200026d57600081815260208120601f850160051c81016020861015620002485750805b601f850160051c820191505b81811015620002695782815560010162000254565b5050505b505050565b81516001600160401b038111156200028e576200028e620000b6565b620002a6816200029f8454620001e3565b846200021f565b602080601f831160018114620002de5760008415620002c55750858301515b600019600386901b1c1916600185901b17855562000269565b600085815260208120601f198616915b828110156200030f57888601518255948401946001909101908401620002ee565b50858210156200032e5787850151600019600388901b60f8161c191681555b5050505050600190811b01905550565b6115e5806200034e6000396000f3fe6080604052600436106100ec5760003560e01c8063a3d53d181161008a578063c814786511610059578063c8147865146102af578063d3c576cd146102cf578063d933c066146102ef578063ff59bff81461030f57600080fd5b8063a3d53d181461022b578063a6c3e6b914610258578063ae702ba414610278578063bb6e7de91461029857600080fd5b8063384c3335116100c6578063384c3335146101a55780636b40bba1146101c55780636f264b2e146101db57806371d22d4d146101fb57600080fd5b806310d920601461012e57806318f321a31461015757806329d428ca1461018f57600080fd5b366101295760405162461bcd60e51b81526020600482015260086024820152671898590818d85b1b60c21b60448201526064015b60405180910390fd5b600080fd5b34801561013a57600080fd5b5061014460055481565b6040519081526020015b60405180910390f35b34801561016357600080fd5b506101776101723660046112e7565b61033c565b6040516001600160a01b03909116815260200161014e565b34801561019b57600080fd5b5061014460035481565b3480156101b157600080fd5b50600154610177906001600160a01b031681565b3480156101d157600080fd5b5061014460045481565b3480156101e757600080fd5b50600254610177906001600160a01b031681565b34801561020757600080fd5b5061021b61021636600461134a565b6103a8565b604051901515815260200161014e565b34801561023757600080fd5b506101446102463660046113e0565b60086020526000908152604090205481565b34801561026457600080fd5b50600054610177906001600160a01b031681565b34801561028457600080fd5b5061021b6102933660046113fb565b610521565b3480156102a457600080fd5b506102ad610562565b005b3480156102bb57600080fd5b506101446102ca36600461141d565b610587565b3480156102db57600080fd5b5061021b6102ea36600461134a565b61080e565b3480156102fb57600080fd5b5061021b61030a36600461134a565b610d0d565b34801561031b57600080fd5b5061014461032a366004611485565b60076020526000908152604090205481565b600061039f82610399856040517f19457468657265756d205369676e6564204d6573736167653a0a3332000000006020820152603c8101829052600090605c01604051602081830303815290604052805190602001209050919050565b90610e9d565b90505b92915050565b6000806103ba8a8a8a8a8a8a8a610587565b905060006103c8828561033c565b90508a6001600160a01b0316816001600160a01b0316146104435760405162461bcd60e51b815260206004820152602f60248201527f496e76616c6964205369676e617475726520666f72207375627363726970746960448201526e37b71031b0b731b2b63630ba34b7b760891b6064820152608401610120565b6001600160a01b038b16331461049b5760405162461bcd60e51b815260206004820181905260248201527f6d73672e73656e646572206973206e6f742074686520737562736372696265726044820152606401610120565b600082815260076020908152604091829020600019905581516001600160a01b038c811682529181018b905291820189905260608201889052608082018790528b811691908d16907f51a97a25211c2be9b0b1dd64ee1de490cdb047390e6eba984e6a1d126e6ac4569060a00160405180910390a35060019a9950505050505050505050565b60008281526007602052604081205460010161053f575060006103a2565b6000838152600760205260409020546105589083610ec1565b4211159392505050565b6000546001600160a01b0316331461057957600080fd5b6000546001600160a01b0316ff5b6001546000906001600160a01b031615806105af57506001546001600160a01b038881169116145b6105fb5760405162461bcd60e51b815260206004820152601960248201527f7265717569726564546f41646472657373204661696c757265000000000000006044820152606401610120565b6002546001600160a01b0316158061062057506002546001600160a01b038781169116145b61066c5760405162461bcd60e51b815260206004820152601c60248201527f7265717569726564546f6b656e41646472657373204661696c757265000000006044820152606401610120565b600354158061067c575060035485145b6106c85760405162461bcd60e51b815260206004820152601b60248201527f7265717569726564546f6b656e416d6f756e74204661696c75726500000000006044820152606401610120565b60045415806106d8575060045484145b6107245760405162461bcd60e51b815260206004820152601d60248201527f7265717569726564506572696f645365636f6e6473204661696c7572650000006044820152606401610120565b6005541580610734575060055483145b6107805760405162461bcd60e51b815260206004820152601860248201527f72657175697265644761735072696365204661696c75726500000000000000006044820152606401610120565b604051601960f81b6020820152600060218201526bffffffffffffffffffffffff1930606090811b821660228401528a811b8216603684015289811b8216604a84015288901b16605e820152607281018690526092810185905260b2810184905260d2810183905260f201604051602081830303815290604052805190602001209050979650505050505050565b604051636c99e03360e11b8152600090309063d933c06690610842908c908c908c908c908c908c908c908c9060040161149e565b602060405180830381865afa15801561085f573d6000803e3d6000fd5b505050506040513d601f19601f820116820180604052508101906108839190611536565b6108ff5760405162461bcd60e51b815260206004820152604160248201527f537562736372697074696f6e206973206e6f74207265616479206f7220636f6e60448201527f646974696f6e73206f66207472616e736374696f6e20617265206e6f74206d656064820152601d60fa1b608482015260a401610120565b60006109108a8a8a8a8a8a8a610587565b905061091c4287610ec1565b6000828152600760209081526040808320939093556001600160a01b038d168252600890522054841115610966576001600160a01b038a1660009081526008602052604090208490555b6040516370a0823160e01b81526001600160a01b038a81166004830152600091908a16906370a0823190602401602060405180830381865afa1580156109b0573d6000803e3d6000fd5b505050506040513d601f19601f820116820180604052508101906109d4919061155f565b6040516323b872dd60e01b81526001600160a01b038d811660048301528c81166024830152604482018b9052919250908a16906323b872dd906064016020604051808303816000875af1158015610a2f573d6000803e3d6000fd5b505050506040513d601f19601f82011682018060405250810190610a539190611536565b506040516370a0823160e01b81526001600160a01b038b811660048301528a16906370a0823190602401602060405180830381865afa158015610a9a573d6000803e3d6000fd5b505050506040513d601f19601f82011682018060405250810190610abe919061155f565b610ac88983611578565b14610b245760405162461bcd60e51b815260206004820152602660248201527f45524332302042616c616e636520646964206e6f74206368616e676520636f72604482015265726563746c7960d01b6064820152608401610120565b610b2c610ecd565b610b965760405162461bcd60e51b815260206004820152603560248201527f537562736372697074696f6e3a3a65786563757465537562736372697074696f6044820152741b88151c985b9cd9995c919c9bdb4819985a5b1959605a1b6064820152608401610120565b604080516001600160a01b038b81168252602082018b90529181018990526060810188905260808101879052818c16918d16907f96d296c945eee0618d3cc6f435f4d59f14bcefd708eab22c3de30df20b1347939060a00160405180910390a38515610cfc576040516323b872dd60e01b81526001600160a01b038c81166004830152336024830152604482018890528a16906323b872dd906064016020604051808303816000875af1158015610c51573d6000803e3d6000fd5b505050506040513d601f19601f82011682018060405250810190610c759190611536565b50610c7e610ecd565b610cfc5760405162461bcd60e51b815260206004820152604360248201527f537562736372697074696f6e3a3a65786563757465537562736372697074696f60448201527f6e204661696c656420746f20706179206761732061732066726f6d206163636f6064820152621d5b9d60ea1b608482015260a401610120565b5060019a9950505050505050505050565b600080610d1f8a8a8a8a8a8a8a610587565b90506000610d2d828561033c565b604051636eb1769f60e11b81526001600160a01b038d811660048301523060248301529192506000918b169063dd62ed3e90604401602060405180830381865afa158015610d7f573d6000803e3d6000fd5b505050506040513d601f19601f82011682018060405250810190610da3919061155f565b6040516370a0823160e01b81526001600160a01b038e811660048301529192506000918c16906370a0823190602401602060405180830381865afa158015610def573d6000803e3d6000fd5b505050506040513d601f19601f82011682018060405250810190610e13919061155f565b90508c6001600160a01b0316836001600160a01b0316148015610e4857508b6001600160a01b03168d6001600160a01b031614155b8015610e6257506000848152600760205260409020544210155b8015610e775750610e738a89610ec1565b8210155b8015610e8c5750610e888a89610ec1565b8110155b9d9c50505050505050505050505050565b6000806000610eac8585610f01565b91509150610eb981610f6f565b509392505050565b600061039f8284611578565b6000803d8015610ee45760208114610eed57610ef9565b60019150610ef9565b60206000803e60005191505b501515919050565b6000808251604103610f375760208301516040840151606085015160001a610f2b87828585611128565b94509450505050610f68565b8251604003610f605760208301516040840151610f55868383611215565b935093505050610f68565b506000905060025b9250929050565b6000816004811115610f8357610f83611599565b03610f8b5750565b6001816004811115610f9f57610f9f611599565b03610fec5760405162461bcd60e51b815260206004820152601860248201527f45434453413a20696e76616c6964207369676e617475726500000000000000006044820152606401610120565b600281600481111561100057611000611599565b0361104d5760405162461bcd60e51b815260206004820152601f60248201527f45434453413a20696e76616c6964207369676e6174757265206c656e677468006044820152606401610120565b600381600481111561106157611061611599565b036110b95760405162461bcd60e51b815260206004820152602260248201527f45434453413a20696e76616c6964207369676e6174757265202773272076616c604482015261756560f01b6064820152608401610120565b60048160048111156110cd576110cd611599565b036111255760405162461bcd60e51b815260206004820152602260248201527f45434453413a20696e76616c6964207369676e6174757265202776272076616c604482015261756560f01b6064820152608401610120565b50565b6000807f7fffffffffffffffffffffffffffffff5d576e7357a4501ddfe92f46681b20a083111561115f575060009050600361120c565b8460ff16601b1415801561117757508460ff16601c14155b15611188575060009050600461120c565b6040805160008082526020820180845289905260ff881692820192909252606081018690526080810185905260019060a0016020604051602081039080840390855afa1580156111dc573d6000803e3d6000fd5b5050604051601f1901519150506001600160a01b0381166112055760006001925092505061120c565b9150600090505b94509492505050565b6000806001600160ff1b03831660ff84901c601b0161123687828885611128565b935093505050935093915050565b634e487b7160e01b600052604160045260246000fd5b600082601f83011261126b57600080fd5b813567ffffffffffffffff8082111561128657611286611244565b604051601f8301601f19908116603f011681019082821181831017156112ae576112ae611244565b816040528381528660208588010111156112c757600080fd5b836020870160208301376000602085830101528094505050505092915050565b600080604083850312156112fa57600080fd5b82359150602083013567ffffffffffffffff81111561131857600080fd5b6113248582860161125a565b9150509250929050565b80356001600160a01b038116811461134557600080fd5b919050565b600080600080600080600080610100898b03121561136757600080fd5b6113708961132e565b975061137e60208a0161132e565b965061138c60408a0161132e565b9550606089013594506080890135935060a0890135925060c0890135915060e089013567ffffffffffffffff8111156113c457600080fd5b6113d08b828c0161125a565b9150509295985092959890939650565b6000602082840312156113f257600080fd5b61039f8261132e565b6000806040838503121561140e57600080fd5b50508035926020909101359150565b600080600080600080600060e0888a03121561143857600080fd5b6114418861132e565b965061144f6020890161132e565b955061145d6040890161132e565b969995985095966060810135965060808101359560a0820135955060c0909101359350915050565b60006020828403121561149757600080fd5b5035919050565b600061010060018060a01b03808c1684526020818c1681860152818b1660408601528960608601528860808601528760a08601528660c08601528260e0860152855191508183860152600092505b8183101561150b578583018101518584016101200152918201916114ec565b506101209150600082828601015281601f19601f830116850101925050509998505050505050505050565b60006020828403121561154857600080fd5b8151801515811461155857600080fd5b9392505050565b60006020828403121561157157600080fd5b5051919050565b808201808211156103a257634e487b7160e01b600052601160045260246000fd5b634e487b7160e01b600052602160045260246000fdfea26469706673582212206c8fdef722519d48a46b5794f453978daff5ac249640ac2c9c11f42e0a8a4cc864736f6c63430008110033",
  "devdoc": {
    "kind": "dev",
    "methods": {},
    "version": 1
  },
  "userdoc": {
    "kind": "user",
    "methods": {},
    "version": 1
  },
  "storageLayout": {
    "storage": [
      {
        "astId": 1362,
        "contract": "contracts/SubscriptionLicense.sol:SubscriptionLicense",
        "label": "author",
        "offset": 0,
        "slot": "0",
        "type": "t_address"
      },
      {
        "astId": 1364,
        "contract": "contracts/SubscriptionLicense.sol:SubscriptionLicense",
        "label": "requiredToAddress",
        "offset": 0,
        "slot": "1",
        "type": "t_address"
      },
      {
        "astId": 1366,
        "contract": "contracts/SubscriptionLicense.sol:SubscriptionLicense",
        "label": "requiredTokenAddress",
        "offset": 0,
        "slot": "2",
        "type": "t_address"
      },
      {
        "astId": 1368,
        "contract": "contracts/SubscriptionLicense.sol:SubscriptionLicense",
        "label": "requiredTokenAmount",
        "offset": 0,
        "slot": "3",
        "type": "t_uint256"
      },
      {
        "astId": 1370,
        "contract": "contracts/SubscriptionLicense.sol:SubscriptionLicense",
        "label": "requiredPeriodSeconds",
        "offset": 0,
        "slot": "4",
        "type": "t_uint256"
      },
      {
        "astId": 1372,
        "contract": "contracts/SubscriptionLicense.sol:SubscriptionLicense",
        "label": "requiredGasPrice",
        "offset": 0,
        "slot": "5",
        "type": "t_uint256"
      },
      {
        "astId": 1374,
        "contract": "contracts/SubscriptionLicense.sol:SubscriptionLicense",
        "label": "i_licenseName",
        "offset": 0,
        "slot": "6",
        "type": "t_string_storage"
      },
      {
        "astId": 1378,
        "contract": "contracts/SubscriptionLicense.sol:SubscriptionLicense",
        "label": "nextValidTimestamp",
        "offset": 0,
        "slot": "7",
        "type": "t_mapping(t_bytes32,t_uint256)"
      },
      {
        "astId": 1382,
        "contract": "contracts/SubscriptionLicense.sol:SubscriptionLicense",
        "label": "extraNonce",
        "offset": 0,
        "slot": "8",
        "type": "t_mapping(t_address,t_uint256)"
      }
    ],
    "types": {
      "t_address": {
        "encoding": "inplace",
        "label": "address",
        "numberOfBytes": "20"
      },
      "t_bytes32": {
        "encoding": "inplace",
        "label": "bytes32",
        "numberOfBytes": "32"
      },
      "t_mapping(t_address,t_uint256)": {
        "encoding": "mapping",
        "key": "t_address",
        "label": "mapping(address => uint256)",
        "numberOfBytes": "32",
        "value": "t_uint256"
      },
      "t_mapping(t_bytes32,t_uint256)": {
        "encoding": "mapping",
        "key": "t_bytes32",
        "label": "mapping(bytes32 => uint256)",
        "numberOfBytes": "32",
        "value": "t_uint256"
      },
      "t_string_storage": {
        "encoding": "bytes",
        "label": "string",
        "numberOfBytes": "32"
      },
      "t_uint256": {
        "encoding": "inplace",
        "label": "uint256",
        "numberOfBytes": "32"
      }
    }
  }
}