{
  "address": "0x9fE46736679d2D9a65F0992F2272dE9f3c7fa6e0",
  "abi": [
    {
      "inputs": [
        {
          "internalType": "address",
          "name": "priceFeedAddress",
          "type": "address"
        },
        {
          "internalType": "uint256",
          "name": "licensePrice",
          "type": "uint256"
        },
        {
          "internalType": "string",
          "name": "companyName",
          "type": "string"
        }
      ],
      "stateMutability": "nonpayable",
      "type": "constructor"
    },
    {
      "inputs": [],
      "name": "ERC721Metadata__URI_QueryFor_NonExistentToken",
      "type": "error"
    },
    {
      "inputs": [],
      "name": "TokenLicense__NeedMoreETHSent",
      "type": "error"
    },
    {
      "inputs": [],
      "name": "TokenLicense__TransferFailed",
      "type": "error"
    },
    {
      "anonymous": false,
      "inputs": [
        {
          "indexed": true,
          "internalType": "address",
          "name": "owner",
          "type": "address"
        },
        {
          "indexed": true,
          "internalType": "address",
          "name": "approved",
          "type": "address"
        },
        {
          "indexed": true,
          "internalType": "uint256",
          "name": "tokenId",
          "type": "uint256"
        }
      ],
      "name": "Approval",
      "type": "event"
    },
    {
      "anonymous": false,
      "inputs": [
        {
          "indexed": true,
          "internalType": "address",
          "name": "owner",
          "type": "address"
        },
        {
          "indexed": true,
          "internalType": "address",
          "name": "operator",
          "type": "address"
        },
        {
          "indexed": false,
          "internalType": "bool",
          "name": "approved",
          "type": "bool"
        }
      ],
      "name": "ApprovalForAll",
      "type": "event"
    },
    {
      "anonymous": false,
      "inputs": [
        {
          "indexed": true,
          "internalType": "uint256",
          "name": "tokenId",
          "type": "uint256"
        },
        {
          "indexed": false,
          "internalType": "uint256",
          "name": "licensePrice",
          "type": "uint256"
        }
      ],
      "name": "CreatedLicenseToken",
      "type": "event"
    },
    {
      "anonymous": false,
      "inputs": [
        {
          "indexed": true,
          "internalType": "address",
          "name": "previousOwner",
          "type": "address"
        },
        {
          "indexed": true,
          "internalType": "address",
          "name": "newOwner",
          "type": "address"
        }
      ],
      "name": "OwnershipTransferred",
      "type": "event"
    },
    {
      "anonymous": false,
      "inputs": [
        {
          "indexed": true,
          "internalType": "address",
          "name": "from",
          "type": "address"
        },
        {
          "indexed": true,
          "internalType": "address",
          "name": "to",
          "type": "address"
        },
        {
          "indexed": true,
          "internalType": "uint256",
          "name": "tokenId",
          "type": "uint256"
        }
      ],
      "name": "Transfer",
      "type": "event"
    },
    {
      "inputs": [
        {
          "internalType": "address",
          "name": "to",
          "type": "address"
        },
        {
          "internalType": "uint256",
          "name": "tokenId",
          "type": "uint256"
        }
      ],
      "name": "approve",
      "outputs": [],
      "stateMutability": "nonpayable",
      "type": "function"
    },
    {
      "inputs": [
        {
          "internalType": "address",
          "name": "owner",
          "type": "address"
        }
      ],
      "name": "balanceOf",
      "outputs": [
        {
          "internalType": "uint256",
          "name": "",
          "type": "uint256"
        }
      ],
      "stateMutability": "view",
      "type": "function"
    },
    {
      "inputs": [
        {
          "internalType": "uint256",
          "name": "tokenId",
          "type": "uint256"
        }
      ],
      "name": "getApproved",
      "outputs": [
        {
          "internalType": "address",
          "name": "",
          "type": "address"
        }
      ],
      "stateMutability": "view",
      "type": "function"
    },
    {
      "inputs": [],
      "name": "getPriceFeed",
      "outputs": [
        {
          "internalType": "contract AggregatorV3Interface",
          "name": "",
          "type": "address"
        }
      ],
      "stateMutability": "view",
      "type": "function"
    },
    {
      "inputs": [],
      "name": "getTokenCounter",
      "outputs": [
        {
          "internalType": "uint256",
          "name": "",
          "type": "uint256"
        }
      ],
      "stateMutability": "view",
      "type": "function"
    },
    {
      "inputs": [
        {
          "internalType": "address",
          "name": "owner",
          "type": "address"
        },
        {
          "internalType": "address",
          "name": "operator",
          "type": "address"
        }
      ],
      "name": "isApprovedForAll",
      "outputs": [
        {
          "internalType": "bool",
          "name": "",
          "type": "bool"
        }
      ],
      "stateMutability": "view",
      "type": "function"
    },
    {
      "inputs": [],
      "name": "mintToken",
      "outputs": [],
      "stateMutability": "payable",
      "type": "function"
    },
    {
      "inputs": [],
      "name": "name",
      "outputs": [
        {
          "internalType": "string",
          "name": "",
          "type": "string"
        }
      ],
      "stateMutability": "view",
      "type": "function"
    },
    {
      "inputs": [],
      "name": "owner",
      "outputs": [
        {
          "internalType": "address",
          "name": "",
          "type": "address"
        }
      ],
      "stateMutability": "view",
      "type": "function"
    },
    {
      "inputs": [
        {
          "internalType": "uint256",
          "name": "tokenId",
          "type": "uint256"
        }
      ],
      "name": "ownerOf",
      "outputs": [
        {
          "internalType": "address",
          "name": "",
          "type": "address"
        }
      ],
      "stateMutability": "view",
      "type": "function"
    },
    {
      "inputs": [],
      "name": "renounceOwnership",
      "outputs": [],
      "stateMutability": "nonpayable",
      "type": "function"
    },
    {
      "inputs": [
        {
          "internalType": "address",
          "name": "from",
          "type": "address"
        },
        {
          "internalType": "address",
          "name": "to",
          "type": "address"
        },
        {
          "internalType": "uint256",
          "name": "tokenId",
          "type": "uint256"
        }
      ],
      "name": "safeTransferFrom",
      "outputs": [],
      "stateMutability": "nonpayable",
      "type": "function"
    },
    {
      "inputs": [
        {
          "internalType": "address",
          "name": "from",
          "type": "address"
        },
        {
          "internalType": "address",
          "name": "to",
          "type": "address"
        },
        {
          "internalType": "uint256",
          "name": "tokenId",
          "type": "uint256"
        },
        {
          "internalType": "bytes",
          "name": "_data",
          "type": "bytes"
        }
      ],
      "name": "safeTransferFrom",
      "outputs": [],
      "stateMutability": "nonpayable",
      "type": "function"
    },
    {
      "inputs": [
        {
          "internalType": "address",
          "name": "operator",
          "type": "address"
        },
        {
          "internalType": "bool",
          "name": "approved",
          "type": "bool"
        }
      ],
      "name": "setApprovalForAll",
      "outputs": [],
      "stateMutability": "nonpayable",
      "type": "function"
    },
    {
      "inputs": [
        {
          "internalType": "bytes4",
          "name": "interfaceId",
          "type": "bytes4"
        }
      ],
      "name": "supportsInterface",
      "outputs": [
        {
          "internalType": "bool",
          "name": "",
          "type": "bool"
        }
      ],
      "stateMutability": "view",
      "type": "function"
    },
    {
      "inputs": [],
      "name": "symbol",
      "outputs": [
        {
          "internalType": "string",
          "name": "",
          "type": "string"
        }
      ],
      "stateMutability": "view",
      "type": "function"
    },
    {
      "inputs": [
        {
          "internalType": "uint256",
          "name": "tokenId",
          "type": "uint256"
        }
      ],
      "name": "tokenURI",
      "outputs": [
        {
          "internalType": "string",
          "name": "",
          "type": "string"
        }
      ],
      "stateMutability": "view",
      "type": "function"
    },
    {
      "inputs": [
        {
          "internalType": "address",
          "name": "from",
          "type": "address"
        },
        {
          "internalType": "address",
          "name": "to",
          "type": "address"
        },
        {
          "internalType": "uint256",
          "name": "tokenId",
          "type": "uint256"
        }
      ],
      "name": "transferFrom",
      "outputs": [],
      "stateMutability": "nonpayable",
      "type": "function"
    },
    {
      "inputs": [
        {
          "internalType": "address",
          "name": "newOwner",
          "type": "address"
        }
      ],
      "name": "transferOwnership",
      "outputs": [],
      "stateMutability": "nonpayable",
      "type": "function"
    },
    {
      "inputs": [],
      "name": "withdraw",
      "outputs": [],
      "stateMutability": "nonpayable",
      "type": "function"
    }
  ],
  "transactionHash": "0x50c6f3c82bad01fdc6d731cb0edcd0c613ad9b3d290bc0a0a174cf8a9253aab2",
  "args": [
    "0x5FbDB2315678afecb367f032d93F642f64180aa3",
    "10000000000000000",
    "Microsoft"
  ],
  "numDeployments": 1,
  "solcInputHash": "e319c87328a416d4a1f326412e91f247",
  "bytecode": "0x60a06040523480156200001157600080fd5b506040516200394338038062003943833981810160405281019062000037919062000448565b6040518060400160405280601081526020017f536f667477617265204c6963656e7365000000000000000000000000000000008152506040518060400160405280600381526020017f53484b00000000000000000000000000000000000000000000000000000000008152508160009081620000b4919062000704565b508060019081620000c6919062000704565b505050620000e9620000dd6200014760201b60201c565b6200014f60201b60201c565b60006007819055508273ffffffffffffffffffffffffffffffffffffffff1660808173ffffffffffffffffffffffffffffffffffffffff16815250508160088190555080600990816200013d919062000704565b50505050620007eb565b600033905090565b6000600660009054906101000a900473ffffffffffffffffffffffffffffffffffffffff16905081600660006101000a81548173ffffffffffffffffffffffffffffffffffffffff021916908373ffffffffffffffffffffffffffffffffffffffff1602179055508173ffffffffffffffffffffffffffffffffffffffff168173ffffffffffffffffffffffffffffffffffffffff167f8be0079c531659141344cd1fd0a4f28419497f9722a3daafe3b4186f6b6457e060405160405180910390a35050565b6000604051905090565b600080fd5b600080fd5b600073ffffffffffffffffffffffffffffffffffffffff82169050919050565b6000620002568262000229565b9050919050565b620002688162000249565b81146200027457600080fd5b50565b60008151905062000288816200025d565b92915050565b6000819050919050565b620002a3816200028e565b8114620002af57600080fd5b50565b600081519050620002c38162000298565b92915050565b600080fd5b600080fd5b6000601f19601f8301169050919050565b7f4e487b7100000000000000000000000000000000000000000000000000000000600052604160045260246000fd5b6200031e82620002d3565b810181811067ffffffffffffffff8211171562000340576200033f620002e4565b5b80604052505050565b60006200035562000215565b905062000363828262000313565b919050565b600067ffffffffffffffff821115620003865762000385620002e4565b5b6200039182620002d3565b9050602081019050919050565b60005b83811015620003be578082015181840152602081019050620003a1565b60008484015250505050565b6000620003e1620003db8462000368565b62000349565b9050828152602081018484840111156200040057620003ff620002ce565b5b6200040d8482856200039e565b509392505050565b600082601f8301126200042d576200042c620002c9565b5b81516200043f848260208601620003ca565b91505092915050565b6000806000606084860312156200046457620004636200021f565b5b6000620004748682870162000277565b93505060206200048786828701620002b2565b925050604084015167ffffffffffffffff811115620004ab57620004aa62000224565b5b620004b98682870162000415565b9150509250925092565b600081519050919050565b7f4e487b7100000000000000000000000000000000000000000000000000000000600052602260045260246000fd5b600060028204905060018216806200051657607f821691505b6020821081036200052c576200052b620004ce565b5b50919050565b60008190508160005260206000209050919050565b60006020601f8301049050919050565b600082821b905092915050565b600060088302620005967fffffffffffffffffffffffffffffffffffffffffffffffffffffffffffffffff8262000557565b620005a2868362000557565b95508019841693508086168417925050509392505050565b6000819050919050565b6000620005e5620005df620005d9846200028e565b620005ba565b6200028e565b9050919050565b6000819050919050565b6200060183620005c4565b620006196200061082620005ec565b84845462000564565b825550505050565b600090565b6200063062000621565b6200063d818484620005f6565b505050565b5b8181101562000665576200065960008262000626565b60018101905062000643565b5050565b601f821115620006b4576200067e8162000532565b620006898462000547565b8101602085101562000699578190505b620006b1620006a88562000547565b83018262000642565b50505b505050565b600082821c905092915050565b6000620006d960001984600802620006b9565b1980831691505092915050565b6000620006f48383620006c6565b9150826002028217905092915050565b6200070f82620004c3565b67ffffffffffffffff8111156200072b576200072a620002e4565b5b620007378254620004fd565b6200074482828562000669565b600060209050601f8311600181146200077c576000841562000767578287015190505b620007738582620006e6565b865550620007e3565b601f1984166200078c8662000532565b60005b82811015620007b6578489015182556001820191506020850194506020810190506200078f565b86831015620007d65784890151620007d2601f891682620006c6565b8355505b6001600288020188555050505b505050505050565b60805161313c620008076000396000610ca4015261313c6000f3fe60806040526004361061011f5760003560e01c806370a08231116100a0578063a22cb46511610064578063a22cb465146103a2578063b88d4fde146103cb578063c87b56dd146103f4578063e985e9c514610431578063f2fde38b1461046e5761011f565b806370a08231146102cd578063715018a61461030a5780638da5cb5b1461032157806395d89b411461034c5780639e87a5cd146103775761011f565b806323b872dd116100e757806323b872dd146101fc5780633ccfd60b1461022557806342842e0e1461023c5780636352211e146102655780636e02007d146102a25761011f565b806301ffc9a71461012457806306fdde0314610161578063081812fc1461018c578063095ea7b3146101c95780632004ffd9146101f2575b600080fd5b34801561013057600080fd5b5061014b60048036038101906101469190611cc6565b610497565b6040516101589190611d0e565b60405180910390f35b34801561016d57600080fd5b50610176610579565b6040516101839190611db9565b60405180910390f35b34801561019857600080fd5b506101b360048036038101906101ae9190611e11565b61060b565b6040516101c09190611e7f565b60405180910390f35b3480156101d557600080fd5b506101f060048036038101906101eb9190611ec6565b610690565b005b6101fa6107a7565b005b34801561020857600080fd5b50610223600480360381019061021e9190611f06565b610842565b005b34801561023157600080fd5b5061023a6108a2565b005b34801561024857600080fd5b50610263600480360381019061025e9190611f06565b6109ca565b005b34801561027157600080fd5b5061028c60048036038101906102879190611e11565b6109ea565b6040516102999190611e7f565b60405180910390f35b3480156102ae57600080fd5b506102b7610a9b565b6040516102c49190611f68565b60405180910390f35b3480156102d957600080fd5b506102f460048036038101906102ef9190611f83565b610aa5565b6040516103019190611f68565b60405180910390f35b34801561031657600080fd5b5061031f610b5c565b005b34801561032d57600080fd5b50610336610be4565b6040516103439190611e7f565b60405180910390f35b34801561035857600080fd5b50610361610c0e565b60405161036e9190611db9565b60405180910390f35b34801561038357600080fd5b5061038c610ca0565b604051610399919061200f565b60405180910390f35b3480156103ae57600080fd5b506103c960048036038101906103c49190612056565b610cc8565b005b3480156103d757600080fd5b506103f260048036038101906103ed91906121cb565b610e48565b005b34801561040057600080fd5b5061041b60048036038101906104169190611e11565b610eaa565b6040516104289190611db9565b60405180910390f35b34801561043d57600080fd5b506104586004803603810190610453919061224e565b610f43565b6040516104659190611d0e565b60405180910390f35b34801561047a57600080fd5b5061049560048036038101906104909190611f83565b610fd7565b005b60007f80ac58cd000000000000000000000000000000000000000000000000000000007bffffffffffffffffffffffffffffffffffffffffffffffffffffffff1916827bffffffffffffffffffffffffffffffffffffffffffffffffffffffff1916148061056257507f5b5e139f000000000000000000000000000000000000000000000000000000007bffffffffffffffffffffffffffffffffffffffffffffffffffffffff1916827bffffffffffffffffffffffffffffffffffffffffffffffffffffffff1916145b806105725750610571826110ce565b5b9050919050565b606060008054610588906122bd565b80601f01602080910402602001604051908101604052809291908181526020018280546105b4906122bd565b80156106015780601f106105d657610100808354040283529160200191610601565b820191906000526020600020905b8154815290600101906020018083116105e457829003601f168201915b5050505050905090565b600061061682611138565b610655576040517f08c379a000000000000000000000000000000000000000000000000000000000815260040161064c90612360565b60405180910390fd5b6004600083815260200190815260200160002060009054906101000a900473ffffffffffffffffffffffffffffffffffffffff169050919050565b600061069b826109ea565b90508073ffffffffffffffffffffffffffffffffffffffff168373ffffffffffffffffffffffffffffffffffffffff160361070b576040517f08c379a0000000000000000000000000000000000000000000000000000000008152600401610702906123f2565b60405180910390fd5b8073ffffffffffffffffffffffffffffffffffffffff1661072a6111a4565b73ffffffffffffffffffffffffffffffffffffffff1614806107595750610758816107536111a4565b610f43565b5b610798576040517f08c379a000000000000000000000000000000000000000000000000000000000815260040161078f90612484565b60405180910390fd5b6107a283836111ac565b505050565b6008543410156107e3576040517f97c0a14800000000000000000000000000000000000000000000000000000000815260040160405180910390fd5b6107ef33600754611265565b60016007546107fe91906124d3565b6007819055506007547fb222edcd3d73c8021758828e81f1bccade43b6e354296c382fcb7ceb3fbbc5d76008546040516108389190611f68565b60405180910390a2565b61085361084d6111a4565b82611283565b610892576040517f08c379a000000000000000000000000000000000000000000000000000000000815260040161088990612579565b60405180910390fd5b61089d838383611361565b505050565b6108aa6111a4565b73ffffffffffffffffffffffffffffffffffffffff166108c8610be4565b73ffffffffffffffffffffffffffffffffffffffff161461091e576040517f08c379a0000000000000000000000000000000000000000000000000000000008152600401610915906125e5565b60405180910390fd5b600047905060003373ffffffffffffffffffffffffffffffffffffffff168260405161094990612636565b60006040518083038185875af1925050503d8060008114610986576040519150601f19603f3d011682016040523d82523d6000602084013e61098b565b606091505b50509050806109c6576040517f0f1950a500000000000000000000000000000000000000000000000000000000815260040160405180910390fd5b5050565b6109e583838360405180602001604052806000815250610e48565b505050565b6000806002600084815260200190815260200160002060009054906101000a900473ffffffffffffffffffffffffffffffffffffffff169050600073ffffffffffffffffffffffffffffffffffffffff168173ffffffffffffffffffffffffffffffffffffffff1603610a92576040517f08c379a0000000000000000000000000000000000000000000000000000000008152600401610a89906126bd565b60405180910390fd5b80915050919050565b6000600754905090565b60008073ffffffffffffffffffffffffffffffffffffffff168273ffffffffffffffffffffffffffffffffffffffff1603610b15576040517f08c379a0000000000000000000000000000000000000000000000000000000008152600401610b0c9061274f565b60405180910390fd5b600360008373ffffffffffffffffffffffffffffffffffffffff1673ffffffffffffffffffffffffffffffffffffffff168152602001908152602001600020549050919050565b610b646111a4565b73ffffffffffffffffffffffffffffffffffffffff16610b82610be4565b73ffffffffffffffffffffffffffffffffffffffff1614610bd8576040517f08c379a0000000000000000000000000000000000000000000000000000000008152600401610bcf906125e5565b60405180910390fd5b610be260006115bc565b565b6000600660009054906101000a900473ffffffffffffffffffffffffffffffffffffffff16905090565b606060018054610c1d906122bd565b80601f0160208091040260200160405190810160405280929190818152602001828054610c49906122bd565b8015610c965780601f10610c6b57610100808354040283529160200191610c96565b820191906000526020600020905b815481529060010190602001808311610c7957829003601f168201915b5050505050905090565b60007f0000000000000000000000000000000000000000000000000000000000000000905090565b610cd06111a4565b73ffffffffffffffffffffffffffffffffffffffff168273ffffffffffffffffffffffffffffffffffffffff1603610d3d576040517f08c379a0000000000000000000000000000000000000000000000000000000008152600401610d34906127bb565b60405180910390fd5b8060056000610d4a6111a4565b73ffffffffffffffffffffffffffffffffffffffff1673ffffffffffffffffffffffffffffffffffffffff16815260200190815260200160002060008473ffffffffffffffffffffffffffffffffffffffff1673ffffffffffffffffffffffffffffffffffffffff16815260200190815260200160002060006101000a81548160ff0219169083151502179055508173ffffffffffffffffffffffffffffffffffffffff16610df76111a4565b73ffffffffffffffffffffffffffffffffffffffff167f17307eab39ab6107e8899845ad3d59bd9653f200f220920489ca2b5937696c3183604051610e3c9190611d0e565b60405180910390a35050565b610e59610e536111a4565b83611283565b610e98576040517f08c379a0000000000000000000000000000000000000000000000000000000008152600401610e8f90612579565b60405180910390fd5b610ea484848484611682565b50505050565b6060610eb582611138565b610eeb576040517f6df5edae00000000000000000000000000000000000000000000000000000000815260040160405180910390fd5b610ef36116de565b610f1c6009604051602001610f089190612ab8565b60405160208183030381529060405261171b565b604051602001610f2d929190612b37565b6040516020818303038152906040529050919050565b6000600560008473ffffffffffffffffffffffffffffffffffffffff1673ffffffffffffffffffffffffffffffffffffffff16815260200190815260200160002060008373ffffffffffffffffffffffffffffffffffffffff1673ffffffffffffffffffffffffffffffffffffffff16815260200190815260200160002060009054906101000a900460ff16905092915050565b610fdf6111a4565b73ffffffffffffffffffffffffffffffffffffffff16610ffd610be4565b73ffffffffffffffffffffffffffffffffffffffff1614611053576040517f08c379a000000000000000000000000000000000000000000000000000000000815260040161104a906125e5565b60405180910390fd5b600073ffffffffffffffffffffffffffffffffffffffff168173ffffffffffffffffffffffffffffffffffffffff16036110c2576040517f08c379a00000000000000000000000000000000000000000000000000000000081526004016110b990612bcd565b60405180910390fd5b6110cb816115bc565b50565b60007f01ffc9a7000000000000000000000000000000000000000000000000000000007bffffffffffffffffffffffffffffffffffffffffffffffffffffffff1916827bffffffffffffffffffffffffffffffffffffffffffffffffffffffff1916149050919050565b60008073ffffffffffffffffffffffffffffffffffffffff166002600084815260200190815260200160002060009054906101000a900473ffffffffffffffffffffffffffffffffffffffff1673ffffffffffffffffffffffffffffffffffffffff1614159050919050565b600033905090565b816004600083815260200190815260200160002060006101000a81548173ffffffffffffffffffffffffffffffffffffffff021916908373ffffffffffffffffffffffffffffffffffffffff160217905550808273ffffffffffffffffffffffffffffffffffffffff1661121f836109ea565b73ffffffffffffffffffffffffffffffffffffffff167f8c5be1e5ebec7d5bd14f71427d1e84f3dd0314c0f7b2291e5b200ac8c7c3b92560405160405180910390a45050565b61127f828260405180602001604052806000815250611893565b5050565b600061128e82611138565b6112cd576040517f08c379a00000000000000000000000000000000000000000000000000000000081526004016112c490612c5f565b60405180910390fd5b60006112d8836109ea565b90508073ffffffffffffffffffffffffffffffffffffffff168473ffffffffffffffffffffffffffffffffffffffff16148061134757508373ffffffffffffffffffffffffffffffffffffffff1661132f8461060b565b73ffffffffffffffffffffffffffffffffffffffff16145b8061135857506113578185610f43565b5b91505092915050565b8273ffffffffffffffffffffffffffffffffffffffff16611381826109ea565b73ffffffffffffffffffffffffffffffffffffffff16146113d7576040517f08c379a00000000000000000000000000000000000000000000000000000000081526004016113ce90612cf1565b60405180910390fd5b600073ffffffffffffffffffffffffffffffffffffffff168273ffffffffffffffffffffffffffffffffffffffff1603611446576040517f08c379a000000000000000000000000000000000000000000000000000000000815260040161143d90612d83565b60405180910390fd5b6114518383836118ee565b61145c6000826111ac565b6001600360008573ffffffffffffffffffffffffffffffffffffffff1673ffffffffffffffffffffffffffffffffffffffff16815260200190815260200160002060008282546114ac9190612da3565b925050819055506001600360008473ffffffffffffffffffffffffffffffffffffffff1673ffffffffffffffffffffffffffffffffffffffff168152602001908152602001600020600082825461150391906124d3565b92505081905550816002600083815260200190815260200160002060006101000a81548173ffffffffffffffffffffffffffffffffffffffff021916908373ffffffffffffffffffffffffffffffffffffffff160217905550808273ffffffffffffffffffffffffffffffffffffffff168473ffffffffffffffffffffffffffffffffffffffff167fddf252ad1be2c89b69c2b068fc378daa952ba7f163c4a11628f55a4df523b3ef60405160405180910390a4505050565b6000600660009054906101000a900473ffffffffffffffffffffffffffffffffffffffff16905081600660006101000a81548173ffffffffffffffffffffffffffffffffffffffff021916908373ffffffffffffffffffffffffffffffffffffffff1602179055508173ffffffffffffffffffffffffffffffffffffffff168173ffffffffffffffffffffffffffffffffffffffff167f8be0079c531659141344cd1fd0a4f28419497f9722a3daafe3b4186f6b6457e060405160405180910390a35050565b61168d848484611361565b611699848484846118f3565b6116d8576040517f08c379a00000000000000000000000000000000000000000000000000000000081526004016116cf90612e49565b60405180910390fd5b50505050565b60606040518060400160405280601d81526020017f646174613a6170706c69636174696f6e2f6a736f6e3b6261736536342c000000815250905090565b6060600082510361173d5760405180602001604052806000815250905061188e565b60006040518060600160405280604081526020016130c7604091399050600060036002855161176c91906124d3565b6117769190612e98565b60046117829190612ec9565b9050600060208261179391906124d3565b67ffffffffffffffff8111156117ac576117ab6120a0565b5b6040519080825280601f01601f1916602001820160405280156117de5781602001600182028036833780820191505090505b509050818152600183018586518101602084015b8183101561184d576003830192508251603f8160121c168501518253600182019150603f81600c1c168501518253600182019150603f8160061c168501518253600182019150603f81168501518253600182019150506117f2565b600389510660018114611867576002811461187757611882565b613d3d60f01b6002830352611882565b603d60f81b60018303525b50505050508093505050505b919050565b61189d8383611a7a565b6118aa60008484846118f3565b6118e9576040517f08c379a00000000000000000000000000000000000000000000000000000000081526004016118e090612e49565b60405180910390fd5b505050565b505050565b60006119148473ffffffffffffffffffffffffffffffffffffffff16611c47565b15611a6d578373ffffffffffffffffffffffffffffffffffffffff1663150b7a0261193d6111a4565b8786866040518563ffffffff1660e01b815260040161195f9493929190612f60565b6020604051808303816000875af192505050801561199b57506040513d601f19601f820116820180604052508101906119989190612fc1565b60015b611a1d573d80600081146119cb576040519150601f19603f3d011682016040523d82523d6000602084013e6119d0565b606091505b506000815103611a15576040517f08c379a0000000000000000000000000000000000000000000000000000000008152600401611a0c90612e49565b60405180910390fd5b805181602001fd5b63150b7a0260e01b7bffffffffffffffffffffffffffffffffffffffffffffffffffffffff1916817bffffffffffffffffffffffffffffffffffffffffffffffffffffffff191614915050611a72565b600190505b949350505050565b600073ffffffffffffffffffffffffffffffffffffffff168273ffffffffffffffffffffffffffffffffffffffff1603611ae9576040517f08c379a0000000000000000000000000000000000000000000000000000000008152600401611ae09061303a565b60405180910390fd5b611af281611138565b15611b32576040517f08c379a0000000000000000000000000000000000000000000000000000000008152600401611b29906130a6565b60405180910390fd5b611b3e600083836118ee565b6001600360008473ffffffffffffffffffffffffffffffffffffffff1673ffffffffffffffffffffffffffffffffffffffff1681526020019081526020016000206000828254611b8e91906124d3565b92505081905550816002600083815260200190815260200160002060006101000a81548173ffffffffffffffffffffffffffffffffffffffff021916908373ffffffffffffffffffffffffffffffffffffffff160217905550808273ffffffffffffffffffffffffffffffffffffffff16600073ffffffffffffffffffffffffffffffffffffffff167fddf252ad1be2c89b69c2b068fc378daa952ba7f163c4a11628f55a4df523b3ef60405160405180910390a45050565b600080823b905060008111915050919050565b6000604051905090565b600080fd5b600080fd5b60007fffffffff0000000000000000000000000000000000000000000000000000000082169050919050565b611ca381611c6e565b8114611cae57600080fd5b50565b600081359050611cc081611c9a565b92915050565b600060208284031215611cdc57611cdb611c64565b5b6000611cea84828501611cb1565b91505092915050565b60008115159050919050565b611d0881611cf3565b82525050565b6000602082019050611d236000830184611cff565b92915050565b600081519050919050565b600082825260208201905092915050565b60005b83811015611d63578082015181840152602081019050611d48565b60008484015250505050565b6000601f19601f8301169050919050565b6000611d8b82611d29565b611d958185611d34565b9350611da5818560208601611d45565b611dae81611d6f565b840191505092915050565b60006020820190508181036000830152611dd38184611d80565b905092915050565b6000819050919050565b611dee81611ddb565b8114611df957600080fd5b50565b600081359050611e0b81611de5565b92915050565b600060208284031215611e2757611e26611c64565b5b6000611e3584828501611dfc565b91505092915050565b600073ffffffffffffffffffffffffffffffffffffffff82169050919050565b6000611e6982611e3e565b9050919050565b611e7981611e5e565b82525050565b6000602082019050611e946000830184611e70565b92915050565b611ea381611e5e565b8114611eae57600080fd5b50565b600081359050611ec081611e9a565b92915050565b60008060408385031215611edd57611edc611c64565b5b6000611eeb85828601611eb1565b9250506020611efc85828601611dfc565b9150509250929050565b600080600060608486031215611f1f57611f1e611c64565b5b6000611f2d86828701611eb1565b9350506020611f3e86828701611eb1565b9250506040611f4f86828701611dfc565b9150509250925092565b611f6281611ddb565b82525050565b6000602082019050611f7d6000830184611f59565b92915050565b600060208284031215611f9957611f98611c64565b5b6000611fa784828501611eb1565b91505092915050565b6000819050919050565b6000611fd5611fd0611fcb84611e3e565b611fb0565b611e3e565b9050919050565b6000611fe782611fba565b9050919050565b6000611ff982611fdc565b9050919050565b61200981611fee565b82525050565b60006020820190506120246000830184612000565b92915050565b61203381611cf3565b811461203e57600080fd5b50565b6000813590506120508161202a565b92915050565b6000806040838503121561206d5761206c611c64565b5b600061207b85828601611eb1565b925050602061208c85828601612041565b9150509250929050565b600080fd5b600080fd5b7f4e487b7100000000000000000000000000000000000000000000000000000000600052604160045260246000fd5b6120d882611d6f565b810181811067ffffffffffffffff821117156120f7576120f66120a0565b5b80604052505050565b600061210a611c5a565b905061211682826120cf565b919050565b600067ffffffffffffffff821115612136576121356120a0565b5b61213f82611d6f565b9050602081019050919050565b82818337600083830152505050565b600061216e6121698461211b565b612100565b90508281526020810184848401111561218a5761218961209b565b5b61219584828561214c565b509392505050565b600082601f8301126121b2576121b1612096565b5b81356121c284826020860161215b565b91505092915050565b600080600080608085870312156121e5576121e4611c64565b5b60006121f387828801611eb1565b945050602061220487828801611eb1565b935050604061221587828801611dfc565b925050606085013567ffffffffffffffff81111561223657612235611c69565b5b6122428782880161219d565b91505092959194509250565b6000806040838503121561226557612264611c64565b5b600061227385828601611eb1565b925050602061228485828601611eb1565b9150509250929050565b7f4e487b7100000000000000000000000000000000000000000000000000000000600052602260045260246000fd5b600060028204905060018216806122d557607f821691505b6020821081036122e8576122e761228e565b5b50919050565b7f4552433732313a20617070726f76656420717565727920666f72206e6f6e657860008201527f697374656e7420746f6b656e0000000000000000000000000000000000000000602082015250565b600061234a602c83611d34565b9150612355826122ee565b604082019050919050565b600060208201905081810360008301526123798161233d565b9050919050565b7f4552433732313a20617070726f76616c20746f2063757272656e74206f776e6560008201527f7200000000000000000000000000000000000000000000000000000000000000602082015250565b60006123dc602183611d34565b91506123e782612380565b604082019050919050565b6000602082019050818103600083015261240b816123cf565b9050919050565b7f4552433732313a20617070726f76652063616c6c6572206973206e6f74206f7760008201527f6e6572206e6f7220617070726f76656420666f7220616c6c0000000000000000602082015250565b600061246e603883611d34565b915061247982612412565b604082019050919050565b6000602082019050818103600083015261249d81612461565b9050919050565b7f4e487b7100000000000000000000000000000000000000000000000000000000600052601160045260246000fd5b60006124de82611ddb565b91506124e983611ddb565b9250828201905080821115612501576125006124a4565b5b92915050565b7f4552433732313a207472616e736665722063616c6c6572206973206e6f74206f60008201527f776e6572206e6f7220617070726f766564000000000000000000000000000000602082015250565b6000612563603183611d34565b915061256e82612507565b604082019050919050565b6000602082019050818103600083015261259281612556565b9050919050565b7f4f776e61626c653a2063616c6c6572206973206e6f7420746865206f776e6572600082015250565b60006125cf602083611d34565b91506125da82612599565b602082019050919050565b600060208201905081810360008301526125fe816125c2565b9050919050565b600081905092915050565b50565b6000612620600083612605565b915061262b82612610565b600082019050919050565b600061264182612613565b9150819050919050565b7f4552433732313a206f776e657220717565727920666f72206e6f6e657869737460008201527f656e7420746f6b656e0000000000000000000000000000000000000000000000602082015250565b60006126a7602983611d34565b91506126b28261264b565b604082019050919050565b600060208201905081810360008301526126d68161269a565b9050919050565b7f4552433732313a2062616c616e636520717565727920666f7220746865207a6560008201527f726f206164647265737300000000000000000000000000000000000000000000602082015250565b6000612739602a83611d34565b9150612744826126dd565b604082019050919050565b600060208201905081810360008301526127688161272c565b9050919050565b7f4552433732313a20617070726f766520746f2063616c6c657200000000000000600082015250565b60006127a5601983611d34565b91506127b08261276f565b602082019050919050565b600060208201905081810360008301526127d481612798565b9050919050565b600081905092915050565b7f7b226e616d65223a220000000000000000000000000000000000000000000000600082015250565b600061281c6009836127db565b9150612827826127e6565b600982019050919050565b60008190508160005260206000209050919050565b60008154612854816122bd565b61285e81866127db565b94506001821660008114612879576001811461288e576128c1565b60ff19831686528115158202860193506128c1565b61289785612832565b60005b838110156128b95781548189015260018201915060208101905061289a565b838801955050505b50505092915050565b7f222c20226465736372697074696f6e223a22416e204c6963656e736520666f7260008201527f2074686520736f667477617265222c2000000000000000000000000000000000602082015250565b60006129266030836127db565b9150612931826128ca565b603082019050919050565b7f2261747472696275746573223a205b7b226c6963656e73655f74797065223a2060008201527f2273696e676c655f75736572222c202276616c7565223a2022302e316574682260208201527f7d5d2c2022696d616765223a2200000000000000000000000000000000000000604082015250565b60006129be604d836127db565b91506129c98261293c565b604d82019050919050565b7f68747470733a2f2f676174657761792e70696e6174612e636c6f75642f69706660008201527f732f516d534c3831324255716941316e756f41394a47556f396767347434327460208201527f547855653573645a5a516e413856454300000000000000000000000000000000604082015250565b6000612a566050836127db565b9150612a61826129d4565b605082019050919050565b7f227d000000000000000000000000000000000000000000000000000000000000600082015250565b6000612aa26002836127db565b9150612aad82612a6c565b600282019050919050565b6000612ac38261280f565b9150612acf8284612847565b9150612ada82612919565b9150612ae5826129b1565b9150612af082612a49565b9150612afb82612a95565b915081905092915050565b6000612b1182611d29565b612b1b81856127db565b9350612b2b818560208601611d45565b80840191505092915050565b6000612b438285612b06565b9150612b4f8284612b06565b91508190509392505050565b7f4f776e61626c653a206e6577206f776e657220697320746865207a65726f206160008201527f6464726573730000000000000000000000000000000000000000000000000000602082015250565b6000612bb7602683611d34565b9150612bc282612b5b565b604082019050919050565b60006020820190508181036000830152612be681612baa565b9050919050565b7f4552433732313a206f70657261746f7220717565727920666f72206e6f6e657860008201527f697374656e7420746f6b656e0000000000000000000000000000000000000000602082015250565b6000612c49602c83611d34565b9150612c5482612bed565b604082019050919050565b60006020820190508181036000830152612c7881612c3c565b9050919050565b7f4552433732313a207472616e73666572206f6620746f6b656e2074686174206960008201527f73206e6f74206f776e0000000000000000000000000000000000000000000000602082015250565b6000612cdb602983611d34565b9150612ce682612c7f565b604082019050919050565b60006020820190508181036000830152612d0a81612cce565b9050919050565b7f4552433732313a207472616e7366657220746f20746865207a65726f2061646460008201527f7265737300000000000000000000000000000000000000000000000000000000602082015250565b6000612d6d602483611d34565b9150612d7882612d11565b604082019050919050565b60006020820190508181036000830152612d9c81612d60565b9050919050565b6000612dae82611ddb565b9150612db983611ddb565b9250828203905081811115612dd157612dd06124a4565b5b92915050565b7f4552433732313a207472616e7366657220746f206e6f6e20455243373231526560008201527f63656976657220696d706c656d656e7465720000000000000000000000000000602082015250565b6000612e33603283611d34565b9150612e3e82612dd7565b604082019050919050565b60006020820190508181036000830152612e6281612e26565b9050919050565b7f4e487b7100000000000000000000000000000000000000000000000000000000600052601260045260246000fd5b6000612ea382611ddb565b9150612eae83611ddb565b925082612ebe57612ebd612e69565b5b828204905092915050565b6000612ed482611ddb565b9150612edf83611ddb565b9250828202612eed81611ddb565b91508282048414831517612f0457612f036124a4565b5b5092915050565b600081519050919050565b600082825260208201905092915050565b6000612f3282612f0b565b612f3c8185612f16565b9350612f4c818560208601611d45565b612f5581611d6f565b840191505092915050565b6000608082019050612f756000830187611e70565b612f826020830186611e70565b612f8f6040830185611f59565b8181036060830152612fa18184612f27565b905095945050505050565b600081519050612fbb81611c9a565b92915050565b600060208284031215612fd757612fd6611c64565b5b6000612fe584828501612fac565b91505092915050565b7f4552433732313a206d696e7420746f20746865207a65726f2061646472657373600082015250565b6000613024602083611d34565b915061302f82612fee565b602082019050919050565b6000602082019050818103600083015261305381613017565b9050919050565b7f4552433732313a20746f6b656e20616c7265616479206d696e74656400000000600082015250565b6000613090601c83611d34565b915061309b8261305a565b602082019050919050565b600060208201905081810360008301526130bf81613083565b905091905056fe4142434445464748494a4b4c4d4e4f505152535455565758595a6162636465666768696a6b6c6d6e6f707172737475767778797a303132333435363738392b2fa26469706673582212208723be538b298e71ba8ee9f06d2761daf477a69ba9e8b37aaa72d227a6c221aa64736f6c63430008110033",
  "devdoc": {
    "kind": "dev",
    "methods": {
      "approve(address,uint256)": {
        "details": "See {IERC721-approve}."
      },
      "balanceOf(address)": {
        "details": "See {IERC721-balanceOf}."
      },
      "getApproved(uint256)": {
        "details": "See {IERC721-getApproved}."
      },
      "isApprovedForAll(address,address)": {
        "details": "See {IERC721-isApprovedForAll}."
      },
      "name()": {
        "details": "See {IERC721Metadata-name}."
      },
      "owner()": {
        "details": "Returns the address of the current owner."
      },
      "ownerOf(uint256)": {
        "details": "See {IERC721-ownerOf}."
      },
      "renounceOwnership()": {
        "details": "Leaves the contract without owner. It will not be possible to call `onlyOwner` functions anymore. Can only be called by the current owner. NOTE: Renouncing ownership will leave the contract without an owner, thereby removing any functionality that is only available to the owner."
      },
      "safeTransferFrom(address,address,uint256)": {
        "details": "See {IERC721-safeTransferFrom}."
      },
      "safeTransferFrom(address,address,uint256,bytes)": {
        "details": "See {IERC721-safeTransferFrom}."
      },
      "setApprovalForAll(address,bool)": {
        "details": "See {IERC721-setApprovalForAll}."
      },
      "supportsInterface(bytes4)": {
        "details": "See {IERC165-supportsInterface}."
      },
      "symbol()": {
        "details": "See {IERC721Metadata-symbol}."
      },
      "tokenURI(uint256)": {
        "details": "See {IERC721Metadata-tokenURI}."
      },
      "transferFrom(address,address,uint256)": {
        "details": "See {IERC721-transferFrom}."
      },
      "transferOwnership(address)": {
        "details": "Transfers ownership of the contract to a new account (`newOwner`). Can only be called by the current owner."
      }
    },
    "version": 1
  },
  "userdoc": {
    "kind": "user",
    "methods": {},
    "version": 1
  },
  "storageLayout": {
    "storage": [
      {
        "astId": 175,
        "contract": "contracts/TokenLicense.sol:TokenLicense",
        "label": "_name",
        "offset": 0,
        "slot": "0",
        "type": "t_string_storage"
      },
      {
        "astId": 177,
        "contract": "contracts/TokenLicense.sol:TokenLicense",
        "label": "_symbol",
        "offset": 0,
        "slot": "1",
        "type": "t_string_storage"
      },
      {
        "astId": 181,
        "contract": "contracts/TokenLicense.sol:TokenLicense",
        "label": "_owners",
        "offset": 0,
        "slot": "2",
        "type": "t_mapping(t_uint256,t_address)"
      },
      {
        "astId": 185,
        "contract": "contracts/TokenLicense.sol:TokenLicense",
        "label": "_balances",
        "offset": 0,
        "slot": "3",
        "type": "t_mapping(t_address,t_uint256)"
      },
      {
        "astId": 189,
        "contract": "contracts/TokenLicense.sol:TokenLicense",
        "label": "_tokenApprovals",
        "offset": 0,
        "slot": "4",
        "type": "t_mapping(t_uint256,t_address)"
      },
      {
        "astId": 195,
        "contract": "contracts/TokenLicense.sol:TokenLicense",
        "label": "_operatorApprovals",
        "offset": 0,
        "slot": "5",
        "type": "t_mapping(t_address,t_mapping(t_address,t_bool))"
      },
      {
        "astId": 53,
        "contract": "contracts/TokenLicense.sol:TokenLicense",
        "label": "_owner",
        "offset": 0,
        "slot": "6",
        "type": "t_address"
      },
      {
        "astId": 2193,
        "contract": "contracts/TokenLicense.sol:TokenLicense",
        "label": "s_tokenCounter",
        "offset": 0,
        "slot": "7",
        "type": "t_uint256"
      },
      {
        "astId": 2195,
        "contract": "contracts/TokenLicense.sol:TokenLicense",
        "label": "i_licensePrice",
        "offset": 0,
        "slot": "8",
        "type": "t_uint256"
      },
      {
        "astId": 2197,
        "contract": "contracts/TokenLicense.sol:TokenLicense",
        "label": "i_companyName",
        "offset": 0,
        "slot": "9",
        "type": "t_string_storage"
      }
    ],
    "types": {
      "t_address": {
        "encoding": "inplace",
        "label": "address",
        "numberOfBytes": "20"
      },
      "t_bool": {
        "encoding": "inplace",
        "label": "bool",
        "numberOfBytes": "1"
      },
      "t_mapping(t_address,t_bool)": {
        "encoding": "mapping",
        "key": "t_address",
        "label": "mapping(address => bool)",
        "numberOfBytes": "32",
        "value": "t_bool"
      },
      "t_mapping(t_address,t_mapping(t_address,t_bool))": {
        "encoding": "mapping",
        "key": "t_address",
        "label": "mapping(address => mapping(address => bool))",
        "numberOfBytes": "32",
        "value": "t_mapping(t_address,t_bool)"
      },
      "t_mapping(t_address,t_uint256)": {
        "encoding": "mapping",
        "key": "t_address",
        "label": "mapping(address => uint256)",
        "numberOfBytes": "32",
        "value": "t_uint256"
      },
      "t_mapping(t_uint256,t_address)": {
        "encoding": "mapping",
        "key": "t_uint256",
        "label": "mapping(uint256 => address)",
        "numberOfBytes": "32",
        "value": "t_address"
      },
      "t_string_storage": {
        "encoding": "bytes",
        "label": "string",
        "numberOfBytes": "32"
      },
      "t_uint256": {
        "encoding": "inplace",
        "label": "uint256",
        "numberOfBytes": "32"
      }
    }
  }
}