{
  "address": "0x9fE46736679d2D9a65F0992F2272dE9f3c7fa6e0",
  "abi": [
    {
      "inputs": [
        {
          "internalType": "address",
          "name": "priceFeedAddress",
          "type": "address"
        },
        {
          "internalType": "uint256",
          "name": "licensePrice",
          "type": "uint256"
        },
        {
          "internalType": "string",
          "name": "companyName",
          "type": "string"
        }
      ],
      "stateMutability": "nonpayable",
      "type": "constructor"
    },
    {
      "inputs": [],
      "name": "ERC721Metadata__URI_QueryFor_NonExistentToken",
      "type": "error"
    },
    {
      "inputs": [],
      "name": "TokenLicense__NeedMoreETHSent",
      "type": "error"
    },
    {
      "inputs": [],
      "name": "TokenLicense__TransferFailed",
      "type": "error"
    },
    {
      "anonymous": false,
      "inputs": [
        {
          "indexed": true,
          "internalType": "address",
          "name": "owner",
          "type": "address"
        },
        {
          "indexed": true,
          "internalType": "address",
          "name": "approved",
          "type": "address"
        },
        {
          "indexed": true,
          "internalType": "uint256",
          "name": "tokenId",
          "type": "uint256"
        }
      ],
      "name": "Approval",
      "type": "event"
    },
    {
      "anonymous": false,
      "inputs": [
        {
          "indexed": true,
          "internalType": "address",
          "name": "owner",
          "type": "address"
        },
        {
          "indexed": true,
          "internalType": "address",
          "name": "operator",
          "type": "address"
        },
        {
          "indexed": false,
          "internalType": "bool",
          "name": "approved",
          "type": "bool"
        }
      ],
      "name": "ApprovalForAll",
      "type": "event"
    },
    {
      "anonymous": false,
      "inputs": [
        {
          "indexed": true,
          "internalType": "uint256",
          "name": "tokenId",
          "type": "uint256"
        },
        {
          "indexed": false,
          "internalType": "uint256",
          "name": "licensePrice",
          "type": "uint256"
        }
      ],
      "name": "CreatedLicenseToken",
      "type": "event"
    },
    {
      "anonymous": false,
      "inputs": [
        {
          "indexed": true,
          "internalType": "address",
          "name": "previousOwner",
          "type": "address"
        },
        {
          "indexed": true,
          "internalType": "address",
          "name": "newOwner",
          "type": "address"
        }
      ],
      "name": "OwnershipTransferred",
      "type": "event"
    },
    {
      "anonymous": false,
      "inputs": [
        {
          "indexed": true,
          "internalType": "address",
          "name": "from",
          "type": "address"
        },
        {
          "indexed": true,
          "internalType": "address",
          "name": "to",
          "type": "address"
        },
        {
          "indexed": true,
          "internalType": "uint256",
          "name": "tokenId",
          "type": "uint256"
        }
      ],
      "name": "Transfer",
      "type": "event"
    },
    {
      "inputs": [
        {
          "internalType": "address",
          "name": "to",
          "type": "address"
        },
        {
          "internalType": "uint256",
          "name": "tokenId",
          "type": "uint256"
        }
      ],
      "name": "approve",
      "outputs": [],
      "stateMutability": "nonpayable",
      "type": "function"
    },
    {
      "inputs": [
        {
          "internalType": "address",
          "name": "owner",
          "type": "address"
        }
      ],
      "name": "balanceOf",
      "outputs": [
        {
          "internalType": "uint256",
          "name": "",
          "type": "uint256"
        }
      ],
      "stateMutability": "view",
      "type": "function"
    },
    {
      "inputs": [
        {
          "internalType": "uint256",
          "name": "tokenId",
          "type": "uint256"
        }
      ],
      "name": "getApproved",
      "outputs": [
        {
          "internalType": "address",
          "name": "",
          "type": "address"
        }
      ],
      "stateMutability": "view",
      "type": "function"
    },
    {
      "inputs": [],
      "name": "getPriceFeed",
      "outputs": [
        {
          "internalType": "contract AggregatorV3Interface",
          "name": "",
          "type": "address"
        }
      ],
      "stateMutability": "view",
      "type": "function"
    },
    {
      "inputs": [],
      "name": "getTokenCounter",
      "outputs": [
        {
          "internalType": "uint256",
          "name": "",
          "type": "uint256"
        }
      ],
      "stateMutability": "view",
      "type": "function"
    },
    {
      "inputs": [
        {
          "internalType": "address",
          "name": "owner",
          "type": "address"
        },
        {
          "internalType": "address",
          "name": "operator",
          "type": "address"
        }
      ],
      "name": "isApprovedForAll",
      "outputs": [
        {
          "internalType": "bool",
          "name": "",
          "type": "bool"
        }
      ],
      "stateMutability": "view",
      "type": "function"
    },
    {
      "inputs": [],
      "name": "mintToken",
      "outputs": [],
      "stateMutability": "payable",
      "type": "function"
    },
    {
      "inputs": [],
      "name": "name",
      "outputs": [
        {
          "internalType": "string",
          "name": "",
          "type": "string"
        }
      ],
      "stateMutability": "view",
      "type": "function"
    },
    {
      "inputs": [],
      "name": "owner",
      "outputs": [
        {
          "internalType": "address",
          "name": "",
          "type": "address"
        }
      ],
      "stateMutability": "view",
      "type": "function"
    },
    {
      "inputs": [
        {
          "internalType": "uint256",
          "name": "tokenId",
          "type": "uint256"
        }
      ],
      "name": "ownerOf",
      "outputs": [
        {
          "internalType": "address",
          "name": "",
          "type": "address"
        }
      ],
      "stateMutability": "view",
      "type": "function"
    },
    {
      "inputs": [],
      "name": "renounceOwnership",
      "outputs": [],
      "stateMutability": "nonpayable",
      "type": "function"
    },
    {
      "inputs": [
        {
          "internalType": "address",
          "name": "from",
          "type": "address"
        },
        {
          "internalType": "address",
          "name": "to",
          "type": "address"
        },
        {
          "internalType": "uint256",
          "name": "tokenId",
          "type": "uint256"
        }
      ],
      "name": "safeTransferFrom",
      "outputs": [],
      "stateMutability": "nonpayable",
      "type": "function"
    },
    {
      "inputs": [
        {
          "internalType": "address",
          "name": "from",
          "type": "address"
        },
        {
          "internalType": "address",
          "name": "to",
          "type": "address"
        },
        {
          "internalType": "uint256",
          "name": "tokenId",
          "type": "uint256"
        },
        {
          "internalType": "bytes",
          "name": "_data",
          "type": "bytes"
        }
      ],
      "name": "safeTransferFrom",
      "outputs": [],
      "stateMutability": "nonpayable",
      "type": "function"
    },
    {
      "inputs": [
        {
          "internalType": "address",
          "name": "operator",
          "type": "address"
        },
        {
          "internalType": "bool",
          "name": "approved",
          "type": "bool"
        }
      ],
      "name": "setApprovalForAll",
      "outputs": [],
      "stateMutability": "nonpayable",
      "type": "function"
    },
    {
      "inputs": [
        {
          "internalType": "bytes4",
          "name": "interfaceId",
          "type": "bytes4"
        }
      ],
      "name": "supportsInterface",
      "outputs": [
        {
          "internalType": "bool",
          "name": "",
          "type": "bool"
        }
      ],
      "stateMutability": "view",
      "type": "function"
    },
    {
      "inputs": [],
      "name": "symbol",
      "outputs": [
        {
          "internalType": "string",
          "name": "",
          "type": "string"
        }
      ],
      "stateMutability": "view",
      "type": "function"
    },
    {
      "inputs": [
        {
          "internalType": "uint256",
          "name": "tokenId",
          "type": "uint256"
        }
      ],
      "name": "tokenURI",
      "outputs": [
        {
          "internalType": "string",
          "name": "",
          "type": "string"
        }
      ],
      "stateMutability": "view",
      "type": "function"
    },
    {
      "inputs": [
        {
          "internalType": "address",
          "name": "from",
          "type": "address"
        },
        {
          "internalType": "address",
          "name": "to",
          "type": "address"
        },
        {
          "internalType": "uint256",
          "name": "tokenId",
          "type": "uint256"
        }
      ],
      "name": "transferFrom",
      "outputs": [],
      "stateMutability": "nonpayable",
      "type": "function"
    },
    {
      "inputs": [
        {
          "internalType": "address",
          "name": "newOwner",
          "type": "address"
        }
      ],
      "name": "transferOwnership",
      "outputs": [],
      "stateMutability": "nonpayable",
      "type": "function"
    },
    {
      "inputs": [],
      "name": "withdraw",
      "outputs": [],
      "stateMutability": "nonpayable",
      "type": "function"
    }
  ],
  "transactionHash": "0x470b42934b29d4f091c2643df490f0f351e8c6897ea7e31d13f13b7476495bac",
  "args": [
    "0x5FbDB2315678afecb367f032d93F642f64180aa3",
    "10000000000000000",
    "Microsoft"
  ],
  "numDeployments": 1,
  "solcInputHash": "1f9a11efc1d559032ac6f0e24989c618",
  "bytecode": "0x60a06040523480156200001157600080fd5b5060405162001da638038062001da6833981016040819052620000349162000151565b6040518060400160405280601081526020016f536f667477617265204c6963656e736560801b8152506040518060400160405280600381526020016253484b60e81b81525081600090816200008a9190620002df565b506001620000998282620002df565b505050620000b6620000b0620000e560201b60201c565b620000e9565b60006007556001600160a01b03831660805260088290556009620000db8282620002df565b50505050620003ab565b3390565b600680546001600160a01b038381166001600160a01b0319831681179093556040519116919082907f8be0079c531659141344cd1fd0a4f28419497f9722a3daafe3b4186f6b6457e090600090a35050565b634e487b7160e01b600052604160045260246000fd5b6000806000606084860312156200016757600080fd5b83516001600160a01b03811681146200017f57600080fd5b60208581015160408701519295509350906001600160401b0380821115620001a657600080fd5b818701915087601f830112620001bb57600080fd5b815181811115620001d057620001d06200013b565b604051601f8201601f19908116603f01168101908382118183101715620001fb57620001fb6200013b565b816040528281528a868487010111156200021457600080fd5b600093505b8284101562000238578484018601518185018701529285019262000219565b60008684830101528096505050505050509250925092565b600181811c908216806200026557607f821691505b6020821081036200028657634e487b7160e01b600052602260045260246000fd5b50919050565b601f821115620002da57600081815260208120601f850160051c81016020861015620002b55750805b601f850160051c820191505b81811015620002d657828155600101620002c1565b5050505b505050565b81516001600160401b03811115620002fb57620002fb6200013b565b62000313816200030c845462000250565b846200028c565b602080601f8311600181146200034b5760008415620003325750858301515b600019600386901b1c1916600185901b178555620002d6565b600085815260208120601f198616915b828110156200037c578886015182559484019460019091019084016200035b565b50858210156200039b5787850151600019600388901b60f8161c191681555b5050505050600190811b01905550565b6080516119df620003c760003960006102e801526119df6000f3fe60806040526004361061011f5760003560e01c806370a08231116100a0578063a22cb46511610064578063a22cb4651461030c578063b88d4fde1461032c578063c87b56dd1461034c578063e985e9c51461036c578063f2fde38b1461038c57600080fd5b806370a0823114610271578063715018a6146102915780638da5cb5b146102a657806395d89b41146102c45780639e87a5cd146102d957600080fd5b806323b872dd116100e757806323b872dd146101dd5780633ccfd60b146101fd57806342842e0e146102125780636352211e146102325780636e02007d1461025257600080fd5b806301ffc9a71461012457806306fdde0314610159578063081812fc1461017b578063095ea7b3146101b35780632004ffd9146101d5575b600080fd5b34801561013057600080fd5b5061014461013f3660046112d7565b6103ac565b60405190151581526020015b60405180910390f35b34801561016557600080fd5b5061016e6103fe565b604051610150919061134b565b34801561018757600080fd5b5061019b61019636600461135e565b610490565b6040516001600160a01b039091168152602001610150565b3480156101bf57600080fd5b506101d36101ce366004611393565b61052a565b005b6101d361063f565b3480156101e957600080fd5b506101d36101f83660046113bd565b6106b9565b34801561020957600080fd5b506101d36106ea565b34801561021e57600080fd5b506101d361022d3660046113bd565b610783565b34801561023e57600080fd5b5061019b61024d36600461135e565b61079e565b34801561025e57600080fd5b506007545b604051908152602001610150565b34801561027d57600080fd5b5061026361028c3660046113f9565b610815565b34801561029d57600080fd5b506101d361089c565b3480156102b257600080fd5b506006546001600160a01b031661019b565b3480156102d057600080fd5b5061016e6108d2565b3480156102e557600080fd5b507f000000000000000000000000000000000000000000000000000000000000000061019b565b34801561031857600080fd5b506101d3610327366004611414565b6108e1565b34801561033857600080fd5b506101d3610347366004611466565b6109a5565b34801561035857600080fd5b5061016e61036736600461135e565b6109dd565b34801561037857600080fd5b50610144610387366004611542565b610a99565b34801561039857600080fd5b506101d36103a73660046113f9565b610ac7565b60006001600160e01b031982166380ac58cd60e01b14806103dd57506001600160e01b03198216635b5e139f60e01b145b806103f857506301ffc9a760e01b6001600160e01b03198316145b92915050565b60606000805461040d90611575565b80601f016020809104026020016040519081016040528092919081815260200182805461043990611575565b80156104865780601f1061045b57610100808354040283529160200191610486565b820191906000526020600020905b81548152906001019060200180831161046957829003601f168201915b5050505050905090565b6000818152600260205260408120546001600160a01b031661050e5760405162461bcd60e51b815260206004820152602c60248201527f4552433732313a20617070726f76656420717565727920666f72206e6f6e657860448201526b34b9ba32b73a103a37b5b2b760a11b60648201526084015b60405180910390fd5b506000908152600460205260409020546001600160a01b031690565b60006105358261079e565b9050806001600160a01b0316836001600160a01b0316036105a25760405162461bcd60e51b815260206004820152602160248201527f4552433732313a20617070726f76616c20746f2063757272656e74206f776e656044820152603960f91b6064820152608401610505565b336001600160a01b03821614806105be57506105be8133610a99565b6106305760405162461bcd60e51b815260206004820152603860248201527f4552433732313a20617070726f76652063616c6c6572206973206e6f74206f7760448201527f6e6572206e6f7220617070726f76656420666f7220616c6c00000000000000006064820152608401610505565b61063a8383610b62565b505050565b600854341015610662576040516312f8142960e31b815260040160405180910390fd5b61066e33600754610bd0565b60075461067c9060016115c5565b60078190556008546040519081527fb222edcd3d73c8021758828e81f1bccade43b6e354296c382fcb7ceb3fbbc5d79060200160405180910390a2565b6106c33382610bea565b6106df5760405162461bcd60e51b8152600401610505906115d8565b61063a838383610cc1565b6006546001600160a01b031633146107145760405162461bcd60e51b815260040161050590611629565b6040514790600090339083908381818185875af1925050503d8060008114610758576040519150601f19603f3d011682016040523d82523d6000602084013e61075d565b606091505b505090508061077f57604051630f1950a560e01b815260040160405180910390fd5b5050565b61063a838383604051806020016040528060008152506109a5565b6000818152600260205260408120546001600160a01b0316806103f85760405162461bcd60e51b815260206004820152602960248201527f4552433732313a206f776e657220717565727920666f72206e6f6e657869737460448201526832b73a103a37b5b2b760b91b6064820152608401610505565b60006001600160a01b0382166108805760405162461bcd60e51b815260206004820152602a60248201527f4552433732313a2062616c616e636520717565727920666f7220746865207a65604482015269726f206164647265737360b01b6064820152608401610505565b506001600160a01b031660009081526003602052604090205490565b6006546001600160a01b031633146108c65760405162461bcd60e51b815260040161050590611629565b6108d06000610e61565b565b60606001805461040d90611575565b336001600160a01b038316036109395760405162461bcd60e51b815260206004820152601960248201527f4552433732313a20617070726f766520746f2063616c6c6572000000000000006044820152606401610505565b3360008181526005602090815260408083206001600160a01b03871680855290835292819020805460ff191686151590811790915590519081529192917f17307eab39ab6107e8899845ad3d59bd9653f200f220920489ca2b5937696c31910160405180910390a35050565b6109af3383610bea565b6109cb5760405162461bcd60e51b8152600401610505906115d8565b6109d784848484610eb3565b50505050565b6000818152600260205260409020546060906001600160a01b0316610a15576040516336faf6d760e11b815260040160405180910390fd5b60408051808201909152601d81527f646174613a6170706c69636174696f6e2f6a736f6e3b6261736536342c0000006020820152610a726009604051602001610a5e919061165e565b604051602081830303815290604052610ee6565b604051602001610a83929190611842565b6040516020818303038152906040529050919050565b6001600160a01b03918216600090815260056020908152604080832093909416825291909152205460ff1690565b6006546001600160a01b03163314610af15760405162461bcd60e51b815260040161050590611629565b6001600160a01b038116610b565760405162461bcd60e51b815260206004820152602660248201527f4f776e61626c653a206e6577206f776e657220697320746865207a65726f206160448201526564647265737360d01b6064820152608401610505565b610b5f81610e61565b50565b600081815260046020526040902080546001600160a01b0319166001600160a01b0384169081179091558190610b978261079e565b6001600160a01b03167f8c5be1e5ebec7d5bd14f71427d1e84f3dd0314c0f7b2291e5b200ac8c7c3b92560405160405180910390a45050565b61077f82826040518060200160405280600081525061104b565b6000818152600260205260408120546001600160a01b0316610c635760405162461bcd60e51b815260206004820152602c60248201527f4552433732313a206f70657261746f7220717565727920666f72206e6f6e657860448201526b34b9ba32b73a103a37b5b2b760a11b6064820152608401610505565b6000610c6e8361079e565b9050806001600160a01b0316846001600160a01b03161480610ca95750836001600160a01b0316610c9e84610490565b6001600160a01b0316145b80610cb95750610cb98185610a99565b949350505050565b826001600160a01b0316610cd48261079e565b6001600160a01b031614610d3c5760405162461bcd60e51b815260206004820152602960248201527f4552433732313a207472616e73666572206f6620746f6b656e2074686174206960448201526839903737ba1037bbb760b91b6064820152608401610505565b6001600160a01b038216610d9e5760405162461bcd60e51b8152602060048201526024808201527f4552433732313a207472616e7366657220746f20746865207a65726f206164646044820152637265737360e01b6064820152608401610505565b610da9600082610b62565b6001600160a01b0383166000908152600360205260408120805460019290610dd2908490611871565b90915550506001600160a01b0382166000908152600360205260408120805460019290610e009084906115c5565b909155505060008181526002602052604080822080546001600160a01b0319166001600160a01b0386811691821790925591518493918716917fddf252ad1be2c89b69c2b068fc378daa952ba7f163c4a11628f55a4df523b3ef91a4505050565b600680546001600160a01b038381166001600160a01b0319831681179093556040519116919082907f8be0079c531659141344cd1fd0a4f28419497f9722a3daafe3b4186f6b6457e090600090a35050565b610ebe848484610cc1565b610eca8484848461107e565b6109d75760405162461bcd60e51b815260040161050590611884565b60608151600003610f0557505060408051602081019091526000815290565b600060405180606001604052806040815260200161196a6040913990506000600384516002610f3491906115c5565b610f3e91906118d6565b610f499060046118f8565b90506000610f588260206115c5565b67ffffffffffffffff811115610f7057610f70611450565b6040519080825280601f01601f191660200182016040528015610f9a576020820181803683370190505b509050818152600183018586518101602084015b81831015611006576003830192508251603f8160121c168501518253600182019150603f81600c1c168501518253600182019150603f8160061c168501518253600182019150603f8116850151825350600101610fae565b60038951066001811461102057600281146110315761103d565b613d3d60f01b60011983015261103d565b603d60f81b6000198301525b509398975050505050505050565b611055838361117f565b611062600084848461107e565b61063a5760405162461bcd60e51b815260040161050590611884565b60006001600160a01b0384163b1561117457604051630a85bd0160e11b81526001600160a01b0385169063150b7a02906110c290339089908890889060040161190f565b6020604051808303816000875af19250505080156110fd575060408051601f3d908101601f191682019092526110fa9181019061194c565b60015b61115a573d80801561112b576040519150601f19603f3d011682016040523d82523d6000602084013e611130565b606091505b5080516000036111525760405162461bcd60e51b815260040161050590611884565b805181602001fd5b6001600160e01b031916630a85bd0160e11b149050610cb9565b506001949350505050565b6001600160a01b0382166111d55760405162461bcd60e51b815260206004820181905260248201527f4552433732313a206d696e7420746f20746865207a65726f20616464726573736044820152606401610505565b6000818152600260205260409020546001600160a01b03161561123a5760405162461bcd60e51b815260206004820152601c60248201527f4552433732313a20746f6b656e20616c7265616479206d696e746564000000006044820152606401610505565b6001600160a01b03821660009081526003602052604081208054600192906112639084906115c5565b909155505060008181526002602052604080822080546001600160a01b0319166001600160a01b03861690811790915590518392907fddf252ad1be2c89b69c2b068fc378daa952ba7f163c4a11628f55a4df523b3ef908290a45050565b6001600160e01b031981168114610b5f57600080fd5b6000602082840312156112e957600080fd5b81356112f4816112c1565b9392505050565b60005b838110156113165781810151838201526020016112fe565b50506000910152565b600081518084526113378160208601602086016112fb565b601f01601f19169290920160200192915050565b6020815260006112f4602083018461131f565b60006020828403121561137057600080fd5b5035919050565b80356001600160a01b038116811461138e57600080fd5b919050565b600080604083850312156113a657600080fd5b6113af83611377565b946020939093013593505050565b6000806000606084860312156113d257600080fd5b6113db84611377565b92506113e960208501611377565b9150604084013590509250925092565b60006020828403121561140b57600080fd5b6112f482611377565b6000806040838503121561142757600080fd5b61143083611377565b91506020830135801515811461144557600080fd5b809150509250929050565b634e487b7160e01b600052604160045260246000fd5b6000806000806080858703121561147c57600080fd5b61148585611377565b935061149360208601611377565b925060408501359150606085013567ffffffffffffffff808211156114b757600080fd5b818701915087601f8301126114cb57600080fd5b8135818111156114dd576114dd611450565b604051601f8201601f19908116603f0116810190838211818310171561150557611505611450565b816040528281528a602084870101111561151e57600080fd5b82602086016020830137600060208483010152809550505050505092959194509250565b6000806040838503121561155557600080fd5b61155e83611377565b915061156c60208401611377565b90509250929050565b600181811c9082168061158957607f821691505b6020821081036115a957634e487b7160e01b600052602260045260246000fd5b50919050565b634e487b7160e01b600052601160045260246000fd5b808201808211156103f8576103f86115af565b60208082526031908201527f4552433732313a207472616e736665722063616c6c6572206973206e6f74206f6040820152701ddb995c881b9bdc88185c1c1c9bdd9959607a1b606082015260800190565b6020808252818101527f4f776e61626c653a2063616c6c6572206973206e6f7420746865206f776e6572604082015260600190565b683d913730b6b2911d1160b91b815281546000906009908290600181811c908083168061168c57607f831692505b602080841082036116ab57634e487b7160e01b86526022600452602486fd5b8180156116bf57600181146116d857611709565b60ff1986168a89015284151585028a0188019650611709565b60008b81526020902060005b868110156116ff5781548c82018b01529085019083016116e4565b505087858b010196505b50505050505061183961182b6117c361175e847f222c20226465736372697074696f6e223a22416e204c6963656e736520666f7281526f0103a34329039b7b33a3bb0b9329116160851b602082015260300190565b7f2261747472696275746573223a205b7b226c6963656e73655f74797065223a2081527f2273696e676c655f75736572222c202276616c7565223a2022302e316574682260208201526c3eae96101134b6b0b3b2911d1160991b6040820152604d0190565b7f68747470733a2f2f676174657761792e70696e6174612e636c6f75642f69706681527f732f516d534c3831324255716941316e756f41394a47556f396767347434327460208201526f547855653573645a5a516e413856454360801b604082015260500190565b61227d60f01b815260020190565b95945050505050565b600083516118548184602088016112fb565b8351908301906118688183602088016112fb565b01949350505050565b818103818111156103f8576103f86115af565b60208082526032908201527f4552433732313a207472616e7366657220746f206e6f6e20455243373231526560408201527131b2b4bb32b91034b6b83632b6b2b73a32b960711b606082015260800190565b6000826118f357634e487b7160e01b600052601260045260246000fd5b500490565b80820281158282048414176103f8576103f86115af565b6001600160a01b03858116825284166020820152604081018390526080606082018190526000906119429083018461131f565b9695505050505050565b60006020828403121561195e57600080fd5b81516112f4816112c156fe4142434445464748494a4b4c4d4e4f505152535455565758595a6162636465666768696a6b6c6d6e6f707172737475767778797a303132333435363738392b2fa2646970667358221220f7f703265989a329aa4e99cdabc40f35d6913e58df03294cc210c900aa76cf5c64736f6c63430008110033",
  "devdoc": {
    "kind": "dev",
    "methods": {
      "approve(address,uint256)": {
        "details": "See {IERC721-approve}."
      },
      "balanceOf(address)": {
        "details": "See {IERC721-balanceOf}."
      },
      "getApproved(uint256)": {
        "details": "See {IERC721-getApproved}."
      },
      "isApprovedForAll(address,address)": {
        "details": "See {IERC721-isApprovedForAll}."
      },
      "name()": {
        "details": "See {IERC721Metadata-name}."
      },
      "owner()": {
        "details": "Returns the address of the current owner."
      },
      "ownerOf(uint256)": {
        "details": "See {IERC721-ownerOf}."
      },
      "renounceOwnership()": {
        "details": "Leaves the contract without owner. It will not be possible to call `onlyOwner` functions anymore. Can only be called by the current owner. NOTE: Renouncing ownership will leave the contract without an owner, thereby removing any functionality that is only available to the owner."
      },
      "safeTransferFrom(address,address,uint256)": {
        "details": "See {IERC721-safeTransferFrom}."
      },
      "safeTransferFrom(address,address,uint256,bytes)": {
        "details": "See {IERC721-safeTransferFrom}."
      },
      "setApprovalForAll(address,bool)": {
        "details": "See {IERC721-setApprovalForAll}."
      },
      "supportsInterface(bytes4)": {
        "details": "See {IERC165-supportsInterface}."
      },
      "symbol()": {
        "details": "See {IERC721Metadata-symbol}."
      },
      "tokenURI(uint256)": {
        "details": "See {IERC721Metadata-tokenURI}."
      },
      "transferFrom(address,address,uint256)": {
        "details": "See {IERC721-transferFrom}."
      },
      "transferOwnership(address)": {
        "details": "Transfers ownership of the contract to a new account (`newOwner`). Can only be called by the current owner."
      }
    },
    "version": 1
  },
  "userdoc": {
    "kind": "user",
    "methods": {},
    "version": 1
  },
  "storageLayout": {
    "storage": [
      {
        "astId": 824,
        "contract": "contracts/TokenLicense.sol:TokenLicense",
        "label": "_name",
        "offset": 0,
        "slot": "0",
        "type": "t_string_storage"
      },
      {
        "astId": 826,
        "contract": "contracts/TokenLicense.sol:TokenLicense",
        "label": "_symbol",
        "offset": 0,
        "slot": "1",
        "type": "t_string_storage"
      },
      {
        "astId": 830,
        "contract": "contracts/TokenLicense.sol:TokenLicense",
        "label": "_owners",
        "offset": 0,
        "slot": "2",
        "type": "t_mapping(t_uint256,t_address)"
      },
      {
        "astId": 834,
        "contract": "contracts/TokenLicense.sol:TokenLicense",
        "label": "_balances",
        "offset": 0,
        "slot": "3",
        "type": "t_mapping(t_address,t_uint256)"
      },
      {
        "astId": 838,
        "contract": "contracts/TokenLicense.sol:TokenLicense",
        "label": "_tokenApprovals",
        "offset": 0,
        "slot": "4",
        "type": "t_mapping(t_uint256,t_address)"
      },
      {
        "astId": 844,
        "contract": "contracts/TokenLicense.sol:TokenLicense",
        "label": "_operatorApprovals",
        "offset": 0,
        "slot": "5",
        "type": "t_mapping(t_address,t_mapping(t_address,t_bool))"
      },
      {
        "astId": 53,
        "contract": "contracts/TokenLicense.sol:TokenLicense",
        "label": "_owner",
        "offset": 0,
        "slot": "6",
        "type": "t_address"
      },
      {
        "astId": 2864,
        "contract": "contracts/TokenLicense.sol:TokenLicense",
        "label": "s_tokenCounter",
        "offset": 0,
        "slot": "7",
        "type": "t_uint256"
      },
      {
        "astId": 2866,
        "contract": "contracts/TokenLicense.sol:TokenLicense",
        "label": "i_licensePrice",
        "offset": 0,
        "slot": "8",
        "type": "t_uint256"
      },
      {
        "astId": 2868,
        "contract": "contracts/TokenLicense.sol:TokenLicense",
        "label": "i_companyName",
        "offset": 0,
        "slot": "9",
        "type": "t_string_storage"
      }
    ],
    "types": {
      "t_address": {
        "encoding": "inplace",
        "label": "address",
        "numberOfBytes": "20"
      },
      "t_bool": {
        "encoding": "inplace",
        "label": "bool",
        "numberOfBytes": "1"
      },
      "t_mapping(t_address,t_bool)": {
        "encoding": "mapping",
        "key": "t_address",
        "label": "mapping(address => bool)",
        "numberOfBytes": "32",
        "value": "t_bool"
      },
      "t_mapping(t_address,t_mapping(t_address,t_bool))": {
        "encoding": "mapping",
        "key": "t_address",
        "label": "mapping(address => mapping(address => bool))",
        "numberOfBytes": "32",
        "value": "t_mapping(t_address,t_bool)"
      },
      "t_mapping(t_address,t_uint256)": {
        "encoding": "mapping",
        "key": "t_address",
        "label": "mapping(address => uint256)",
        "numberOfBytes": "32",
        "value": "t_uint256"
      },
      "t_mapping(t_uint256,t_address)": {
        "encoding": "mapping",
        "key": "t_uint256",
        "label": "mapping(uint256 => address)",
        "numberOfBytes": "32",
        "value": "t_address"
      },
      "t_string_storage": {
        "encoding": "bytes",
        "label": "string",
        "numberOfBytes": "32"
      },
      "t_uint256": {
        "encoding": "inplace",
        "label": "uint256",
        "numberOfBytes": "32"
      }
    }
  }
}