{
  "address": "0xA63FCC56B1B49494e57c9a65eDEE7bFB9d2Ab6A0",
  "abi": [
    {
      "inputs": [
        {
          "internalType": "address",
          "name": "_toAddress",
          "type": "address"
        },
        {
          "internalType": "address",
          "name": "_tokenAddress",
          "type": "address"
        },
        {
          "internalType": "uint256",
          "name": "_tokenAmount",
          "type": "uint256"
        },
        {
          "internalType": "uint256",
          "name": "_periodSeconds",
          "type": "uint256"
        },
        {
          "internalType": "uint256",
          "name": "_gasPrice",
          "type": "uint256"
        },
        {
          "internalType": "string",
          "name": "licenseName",
          "type": "string"
        },
        {
          "internalType": "string",
          "name": "licenseAgreementUrl",
          "type": "string"
        }
      ],
      "stateMutability": "nonpayable",
      "type": "constructor"
    },
    {
      "anonymous": false,
      "inputs": [
        {
          "indexed": true,
          "internalType": "address",
          "name": "from",
          "type": "address"
        },
        {
          "indexed": true,
          "internalType": "address",
          "name": "to",
          "type": "address"
        },
        {
          "indexed": false,
          "internalType": "address",
          "name": "tokenAddress",
          "type": "address"
        },
        {
          "indexed": false,
          "internalType": "uint256",
          "name": "tokenAmount",
          "type": "uint256"
        },
        {
          "indexed": false,
          "internalType": "uint256",
          "name": "periodSeconds",
          "type": "uint256"
        },
        {
          "indexed": false,
          "internalType": "uint256",
          "name": "gasPrice",
          "type": "uint256"
        },
        {
          "indexed": false,
          "internalType": "uint256",
          "name": "nonce",
          "type": "uint256"
        }
      ],
      "name": "CancelSubscription",
      "type": "event"
    },
    {
      "anonymous": false,
      "inputs": [
        {
          "indexed": true,
          "internalType": "address",
          "name": "from",
          "type": "address"
        },
        {
          "indexed": true,
          "internalType": "address",
          "name": "to",
          "type": "address"
        },
        {
          "indexed": false,
          "internalType": "address",
          "name": "tokenAddress",
          "type": "address"
        },
        {
          "indexed": false,
          "internalType": "uint256",
          "name": "tokenAmount",
          "type": "uint256"
        },
        {
          "indexed": false,
          "internalType": "uint256",
          "name": "periodSeconds",
          "type": "uint256"
        },
        {
          "indexed": false,
          "internalType": "uint256",
          "name": "gasPrice",
          "type": "uint256"
        },
        {
          "indexed": false,
          "internalType": "uint256",
          "name": "nonce",
          "type": "uint256"
        }
      ],
      "name": "ExecuteSubscription",
      "type": "event"
    },
    {
      "inputs": [
        {
          "internalType": "address",
          "name": "from",
          "type": "address"
        },
        {
          "internalType": "address",
          "name": "to",
          "type": "address"
        },
        {
          "internalType": "address",
          "name": "tokenAddress",
          "type": "address"
        },
        {
          "internalType": "uint256",
          "name": "tokenAmount",
          "type": "uint256"
        },
        {
          "internalType": "uint256",
          "name": "periodSeconds",
          "type": "uint256"
        },
        {
          "internalType": "uint256",
          "name": "gasPrice",
          "type": "uint256"
        },
        {
          "internalType": "uint256",
          "name": "nonce",
          "type": "uint256"
        },
        {
          "internalType": "bytes",
          "name": "signature",
          "type": "bytes"
        }
      ],
      "name": "cancelSubscription",
      "outputs": [
        {
          "internalType": "bool",
          "name": "success",
          "type": "bool"
        }
      ],
      "stateMutability": "nonpayable",
      "type": "function"
    },
    {
      "inputs": [
        {
          "internalType": "address",
          "name": "from",
          "type": "address"
        },
        {
          "internalType": "address",
          "name": "to",
          "type": "address"
        },
        {
          "internalType": "address",
          "name": "tokenAddress",
          "type": "address"
        },
        {
          "internalType": "uint256",
          "name": "tokenAmount",
          "type": "uint256"
        },
        {
          "internalType": "uint256",
          "name": "periodSeconds",
          "type": "uint256"
        },
        {
          "internalType": "uint256",
          "name": "gasPrice",
          "type": "uint256"
        },
        {
          "internalType": "uint256",
          "name": "nonce",
          "type": "uint256"
        },
        {
          "internalType": "bytes",
          "name": "signature",
          "type": "bytes"
        }
      ],
      "name": "executeSubscription",
      "outputs": [
        {
          "internalType": "bool",
          "name": "success",
          "type": "bool"
        }
      ],
      "stateMutability": "nonpayable",
      "type": "function"
    },
    {
      "inputs": [],
      "name": "getLicenseAgreementUrl",
      "outputs": [
        {
          "internalType": "string",
          "name": "",
          "type": "string"
        }
      ],
      "stateMutability": "view",
      "type": "function"
    },
    {
      "inputs": [],
      "name": "getLicenseName",
      "outputs": [
        {
          "internalType": "string",
          "name": "",
          "type": "string"
        }
      ],
      "stateMutability": "view",
      "type": "function"
    },
    {
      "inputs": [],
      "name": "getRequiredGasPrice",
      "outputs": [
        {
          "internalType": "uint256",
          "name": "",
          "type": "uint256"
        }
      ],
      "stateMutability": "view",
      "type": "function"
    },
    {
      "inputs": [],
      "name": "getRequiredPeriodSeconds",
      "outputs": [
        {
          "internalType": "uint256",
          "name": "",
          "type": "uint256"
        }
      ],
      "stateMutability": "view",
      "type": "function"
    },
    {
      "inputs": [],
      "name": "getRequiredToAddress",
      "outputs": [
        {
          "internalType": "address",
          "name": "",
          "type": "address"
        }
      ],
      "stateMutability": "view",
      "type": "function"
    },
    {
      "inputs": [],
      "name": "getRequiredTokenAddress",
      "outputs": [
        {
          "internalType": "address",
          "name": "",
          "type": "address"
        }
      ],
      "stateMutability": "view",
      "type": "function"
    },
    {
      "inputs": [],
      "name": "getRequiredTokenAmount",
      "outputs": [
        {
          "internalType": "uint256",
          "name": "",
          "type": "uint256"
        }
      ],
      "stateMutability": "view",
      "type": "function"
    },
    {
      "inputs": [
        {
          "internalType": "address",
          "name": "from",
          "type": "address"
        },
        {
          "internalType": "address",
          "name": "to",
          "type": "address"
        },
        {
          "internalType": "address",
          "name": "tokenAddress",
          "type": "address"
        },
        {
          "internalType": "uint256",
          "name": "tokenAmount",
          "type": "uint256"
        },
        {
          "internalType": "uint256",
          "name": "periodSeconds",
          "type": "uint256"
        },
        {
          "internalType": "uint256",
          "name": "gasPrice",
          "type": "uint256"
        },
        {
          "internalType": "uint256",
          "name": "nonce",
          "type": "uint256"
        }
      ],
      "name": "getSubscriptionHash",
      "outputs": [
        {
          "internalType": "bytes32",
          "name": "",
          "type": "bytes32"
        }
      ],
      "stateMutability": "view",
      "type": "function"
    },
    {
      "inputs": [
        {
          "internalType": "bytes32",
          "name": "subscriptionHash",
          "type": "bytes32"
        },
        {
          "internalType": "bytes",
          "name": "signature",
          "type": "bytes"
        }
      ],
      "name": "getSubscriptionSigner",
      "outputs": [
        {
          "internalType": "address",
          "name": "",
          "type": "address"
        }
      ],
      "stateMutability": "pure",
      "type": "function"
    },
    {
      "inputs": [
        {
          "internalType": "bytes32",
          "name": "subscriptionHash",
          "type": "bytes32"
        },
        {
          "internalType": "uint256",
          "name": "gracePeriodSeconds",
          "type": "uint256"
        }
      ],
      "name": "isSubscriptionActive",
      "outputs": [
        {
          "internalType": "bool",
          "name": "",
          "type": "bool"
        }
      ],
      "stateMutability": "view",
      "type": "function"
    },
    {
      "inputs": [
        {
          "internalType": "address",
          "name": "from",
          "type": "address"
        },
        {
          "internalType": "address",
          "name": "to",
          "type": "address"
        },
        {
          "internalType": "address",
          "name": "tokenAddress",
          "type": "address"
        },
        {
          "internalType": "uint256",
          "name": "tokenAmount",
          "type": "uint256"
        },
        {
          "internalType": "uint256",
          "name": "periodSeconds",
          "type": "uint256"
        },
        {
          "internalType": "uint256",
          "name": "gasPrice",
          "type": "uint256"
        },
        {
          "internalType": "uint256",
          "name": "nonce",
          "type": "uint256"
        },
        {
          "internalType": "bytes",
          "name": "signature",
          "type": "bytes"
        }
      ],
      "name": "isSubscriptionReady",
      "outputs": [
        {
          "internalType": "bool",
          "name": "",
          "type": "bool"
        }
      ],
      "stateMutability": "view",
      "type": "function"
    }
  ],
  "transactionHash": "0xf9cbc89d0a426f02b7f6b907c242906e9b22acc3d0bfe2aa86775e64508095c9",
  "args": [
    "0x0358c8A0a26FCe5DC0A8acEaE760c70222E2c1db",
    "0x3424FfB2222C88F8bD7EB0179c483623cf05a4F9",
    "10",
    "60",
    "1",
    "Microsoft",
    "https://ipfs.io/ipfs/QmZmX5iTJc3C98dbkwrHMJsTGATduYNHCUmqpz7t4iSQpW"
  ],
  "numDeployments": 1,
  "solcInputHash": "99bfcce616fa0cb8eda9d37bbd9cefb9",
  "bytecode": "0x60806040523480156200001157600080fd5b506040516200174c3803806200174c83398101604081905262000034916200018b565b600180546001600160a01b03808a166001600160a01b0319928316179092556002805492891692821692909217909155600386905560048590556005849055600080549091163317905560066200008c8382620002c8565b5060076200009b8282620002c8565b505050505050505062000394565b80516001600160a01b0381168114620000c157600080fd5b919050565b634e487b7160e01b600052604160045260246000fd5b600082601f830112620000ee57600080fd5b81516001600160401b03808211156200010b576200010b620000c6565b604051601f8301601f19908116603f01168101908282118183101715620001365762000136620000c6565b816040528381526020925086838588010111156200015357600080fd5b600091505b8382101562000177578582018301518183018401529082019062000158565b600093810190920192909252949350505050565b600080600080600080600060e0888a031215620001a757600080fd5b620001b288620000a9565b9650620001c260208901620000a9565b604089015160608a015160808b015160a08c0151939950919750955093506001600160401b0380821115620001f657600080fd5b620002048b838c01620000dc565b935060c08a01519150808211156200021b57600080fd5b506200022a8a828b01620000dc565b91505092959891949750929550565b600181811c908216806200024e57607f821691505b6020821081036200026f57634e487b7160e01b600052602260045260246000fd5b50919050565b601f821115620002c357600081815260208120601f850160051c810160208610156200029e5750805b601f850160051c820191505b81811015620002bf57828155600101620002aa565b5050505b505050565b81516001600160401b03811115620002e457620002e4620000c6565b620002fc81620002f5845462000239565b8462000275565b602080601f8311600181146200033457600084156200031b5750858301515b600019600386901b1c1916600185901b178555620002bf565b600085815260208120601f198616915b82811015620003655788860151825594840194600190910190840162000344565b5085821015620003845787850151600019600388901b60f8161c191681555b5050505050600190811b01905550565b6113a880620003a46000396000f3fe608060405234801561001057600080fd5b50600436106100ce5760003560e01c8063ae702ba41161008c578063c814786511610066578063c81478651461018e578063d3c576cd146101a1578063d933c066146101b4578063e431ff6e146101c757600080fd5b8063ae702ba41461016b578063aeb5acb21461017e578063b15ef2351461018657600080fd5b8062924516146100d357806308e06c86146100fd57806318f321a31461010e57806371d22d4d146101215780639e72ad5d14610144578063a341793b14610156575b600080fd5b6001546001600160a01b03165b6040516001600160a01b0390911681526020015b60405180910390f35b6002546001600160a01b03166100e0565b6100e061011c366004611088565b6101cf565b61013461012f3660046110eb565b61023b565b60405190151581526020016100f4565b6004545b6040519081526020016100f4565b61015e6103b9565b6040516100f491906111c7565b6101346101793660046111da565b61044b565b600354610148565b61015e61048b565b61014861019c3660046111fc565b61049a565b6101346101af3660046110eb565b6106d8565b6101346101c23660046110eb565b610b9b565b600554610148565b60006102328261022c856040517f19457468657265756d205369676e6564204d6573736167653a0a3332000000006020820152603c8101829052600090605c01604051602081830303815290604052805190602001209050919050565b90610d2b565b90505b92915050565b60008061024d8a8a8a8a8a8a8a61049a565b9050600061025b82856101cf565b90508a6001600160a01b0316816001600160a01b0316146102db5760405162461bcd60e51b815260206004820152602f60248201527f496e76616c6964205369676e617475726520666f72207375627363726970746960448201526e37b71031b0b731b2b63630ba34b7b760891b60648201526084015b60405180910390fd5b6001600160a01b038b1633146103335760405162461bcd60e51b815260206004820181905260248201527f6d73672e73656e646572206973206e6f7420746865207375627363726962657260448201526064016102d2565b600082815260086020908152604091829020600019905581516001600160a01b038c811682529181018b905291820189905260608201889052608082018790528b811691908d16907f51a97a25211c2be9b0b1dd64ee1de490cdb047390e6eba984e6a1d126e6ac4569060a00160405180910390a35060019a9950505050505050505050565b6060600680546103c890611264565b80601f01602080910402602001604051908101604052809291908181526020018280546103f490611264565b80156104415780601f1061041657610100808354040283529160200191610441565b820191906000526020600020905b81548152906001019060200180831161042457829003601f168201915b5050505050905090565b60008281526008602052604081205460010161046957506000610235565b6000838152600860205260409020546104824284610d4f565b11159392505050565b6060600780546103c890611264565b6001546000906001600160a01b038881169116146104fa5760405162461bcd60e51b815260206004820152601960248201527f7265717569726564546f41646472657373204661696c7572650000000000000060448201526064016102d2565b6002546001600160a01b038781169116146105575760405162461bcd60e51b815260206004820152601c60248201527f7265717569726564546f6b656e41646472657373204661696c7572650000000060448201526064016102d2565b60035485146105a85760405162461bcd60e51b815260206004820152601b60248201527f7265717569726564546f6b656e416d6f756e74204661696c757265000000000060448201526064016102d2565b60045484146105f95760405162461bcd60e51b815260206004820152601d60248201527f7265717569726564506572696f645365636f6e6473204661696c75726500000060448201526064016102d2565b600554831461064a5760405162461bcd60e51b815260206004820152601860248201527f72657175697265644761735072696365204661696c757265000000000000000060448201526064016102d2565b604051601960f81b6020820152600060218201526bffffffffffffffffffffffff1930606090811b821660228401528a811b8216603684015289811b8216604a84015288901b16605e820152607281018690526092810185905260b2810184905260d2810183905260f201604051602081830303815290604052805190602001209050979650505050505050565b604051636c99e03360e11b8152600090309063d933c0669061070c908c908c908c908c908c908c908c908c9060040161129e565b602060405180830381865afa158015610729573d6000803e3d6000fd5b505050506040513d601f19601f8201168201806040525081019061074d91906112f9565b6107c95760405162461bcd60e51b815260206004820152604160248201527f537562736372697074696f6e206973206e6f74207265616479206f7220636f6e60448201527f646974696f6e73206f66207472616e736374696f6e20617265206e6f74206d656064820152601d60fa1b608482015260a4016102d2565b60006107da8a8a8a8a8a8a8a61049a565b90506107e64287610d4f565b6000828152600860205260408082209290925590516370a0823160e01b81526001600160a01b038b811660048301528a16906370a0823190602401602060405180830381865afa15801561083e573d6000803e3d6000fd5b505050506040513d601f19601f820116820180604052508101906108629190611322565b6040516323b872dd60e01b81526001600160a01b038d811660048301528c81166024830152604482018b9052919250908a16906323b872dd906064016020604051808303816000875af11580156108bd573d6000803e3d6000fd5b505050506040513d601f19601f820116820180604052508101906108e191906112f9565b506040516370a0823160e01b81526001600160a01b038b811660048301528a16906370a0823190602401602060405180830381865afa158015610928573d6000803e3d6000fd5b505050506040513d601f19601f8201168201806040525081019061094c9190611322565b610956898361133b565b146109b25760405162461bcd60e51b815260206004820152602660248201527f45524332302042616c616e636520646964206e6f74206368616e676520636f72604482015265726563746c7960d01b60648201526084016102d2565b6109ba610d5b565b610a245760405162461bcd60e51b815260206004820152603560248201527f537562736372697074696f6e3a3a65786563757465537562736372697074696f6044820152741b88151c985b9cd9995c919c9bdb4819985a5b1959605a1b60648201526084016102d2565b604080516001600160a01b038b81168252602082018b90529181018990526060810188905260808101879052818c16918d16907f96d296c945eee0618d3cc6f435f4d59f14bcefd708eab22c3de30df20b1347939060a00160405180910390a38515610b8a576040516323b872dd60e01b81526001600160a01b038c81166004830152336024830152604482018890528a16906323b872dd906064016020604051808303816000875af1158015610adf573d6000803e3d6000fd5b505050506040513d601f19601f82011682018060405250810190610b0391906112f9565b50610b0c610d5b565b610b8a5760405162461bcd60e51b815260206004820152604360248201527f537562736372697074696f6e3a3a65786563757465537562736372697074696f60448201527f6e204661696c656420746f20706179206761732061732066726f6d206163636f6064820152621d5b9d60ea1b608482015260a4016102d2565b5060019a9950505050505050505050565b600080610bad8a8a8a8a8a8a8a61049a565b90506000610bbb82856101cf565b604051636eb1769f60e11b81526001600160a01b038d811660048301523060248301529192506000918b169063dd62ed3e90604401602060405180830381865afa158015610c0d573d6000803e3d6000fd5b505050506040513d601f19601f82011682018060405250810190610c319190611322565b6040516370a0823160e01b81526001600160a01b038e811660048301529192506000918c16906370a0823190602401602060405180830381865afa158015610c7d573d6000803e3d6000fd5b505050506040513d601f19601f82011682018060405250810190610ca19190611322565b90508c6001600160a01b0316836001600160a01b0316148015610cd657508b6001600160a01b03168d6001600160a01b031614155b8015610cf057506000848152600860205260409020544210155b8015610d055750610d018a89610d4f565b8210155b8015610d1a5750610d168a89610d4f565b8110155b9d9c50505050505050505050505050565b6000806000610d3a8585610d8f565b91509150610d4781610dd4565b509392505050565b6000610232828461133b565b6000803d8015610d725760208114610d7b57610d87565b60019150610d87565b60206000803e60005191505b501515919050565b6000808251604103610dc55760208301516040840151606085015160001a610db987828585610f21565b94509450505050610dcd565b506000905060025b9250929050565b6000816004811115610de857610de861135c565b03610df05750565b6001816004811115610e0457610e0461135c565b03610e515760405162461bcd60e51b815260206004820152601860248201527f45434453413a20696e76616c6964207369676e6174757265000000000000000060448201526064016102d2565b6002816004811115610e6557610e6561135c565b03610eb25760405162461bcd60e51b815260206004820152601f60248201527f45434453413a20696e76616c6964207369676e6174757265206c656e6774680060448201526064016102d2565b6003816004811115610ec657610ec661135c565b03610f1e5760405162461bcd60e51b815260206004820152602260248201527f45434453413a20696e76616c6964207369676e6174757265202773272076616c604482015261756560f01b60648201526084016102d2565b50565b6000807f7fffffffffffffffffffffffffffffff5d576e7357a4501ddfe92f46681b20a0831115610f585750600090506003610fdc565b6040805160008082526020820180845289905260ff881692820192909252606081018690526080810185905260019060a0016020604051602081039080840390855afa158015610fac573d6000803e3d6000fd5b5050604051601f1901519150506001600160a01b038116610fd557600060019250925050610fdc565b9150600090505b94509492505050565b634e487b7160e01b600052604160045260246000fd5b600082601f83011261100c57600080fd5b813567ffffffffffffffff8082111561102757611027610fe5565b604051601f8301601f19908116603f0116810190828211818310171561104f5761104f610fe5565b8160405283815286602085880101111561106857600080fd5b836020870160208301376000602085830101528094505050505092915050565b6000806040838503121561109b57600080fd5b82359150602083013567ffffffffffffffff8111156110b957600080fd5b6110c585828601610ffb565b9150509250929050565b80356001600160a01b03811681146110e657600080fd5b919050565b600080600080600080600080610100898b03121561110857600080fd5b611111896110cf565b975061111f60208a016110cf565b965061112d60408a016110cf565b9550606089013594506080890135935060a0890135925060c0890135915060e089013567ffffffffffffffff81111561116557600080fd5b6111718b828c01610ffb565b9150509295985092959890939650565b6000815180845260005b818110156111a75760208185018101518683018201520161118b565b506000602082860101526020601f19601f83011685010191505092915050565b6020815260006102326020830184611181565b600080604083850312156111ed57600080fd5b50508035926020909101359150565b600080600080600080600060e0888a03121561121757600080fd5b611220886110cf565b965061122e602089016110cf565b955061123c604089016110cf565b969995985095966060810135965060808101359560a0820135955060c0909101359350915050565b600181811c9082168061127857607f821691505b60208210810361129857634e487b7160e01b600052602260045260246000fd5b50919050565b600061010060018060a01b03808c168452808b166020850152808a166040850152508760608401528660808401528560a08401528460c08401528060e08401526112ea81840185611181565b9b9a5050505050505050505050565b60006020828403121561130b57600080fd5b8151801515811461131b57600080fd5b9392505050565b60006020828403121561133457600080fd5b5051919050565b8082018082111561023557634e487b7160e01b600052601160045260246000fd5b634e487b7160e01b600052602160045260246000fdfea26469706673582212205e82fdc6aa3a545f92010a9eeb53676f616898f1ee170268d9a50f8a2b3c564964736f6c63430008110033",
  "devdoc": {
    "kind": "dev",
    "methods": {},
    "version": 1
  },
  "userdoc": {
    "kind": "user",
    "methods": {},
    "version": 1
  },
  "storageLayout": {
    "storage": [
      {
        "astId": 6959,
        "contract": "contracts/SubscriptionLicense.sol:SubscriptionLicense",
        "label": "author",
        "offset": 0,
        "slot": "0",
        "type": "t_address"
      },
      {
        "astId": 6961,
        "contract": "contracts/SubscriptionLicense.sol:SubscriptionLicense",
        "label": "requiredToAddress",
        "offset": 0,
        "slot": "1",
        "type": "t_address"
      },
      {
        "astId": 6963,
        "contract": "contracts/SubscriptionLicense.sol:SubscriptionLicense",
        "label": "requiredTokenAddress",
        "offset": 0,
        "slot": "2",
        "type": "t_address"
      },
      {
        "astId": 6965,
        "contract": "contracts/SubscriptionLicense.sol:SubscriptionLicense",
        "label": "requiredTokenAmount",
        "offset": 0,
        "slot": "3",
        "type": "t_uint256"
      },
      {
        "astId": 6967,
        "contract": "contracts/SubscriptionLicense.sol:SubscriptionLicense",
        "label": "requiredPeriodSeconds",
        "offset": 0,
        "slot": "4",
        "type": "t_uint256"
      },
      {
        "astId": 6969,
        "contract": "contracts/SubscriptionLicense.sol:SubscriptionLicense",
        "label": "requiredGasPrice",
        "offset": 0,
        "slot": "5",
        "type": "t_uint256"
      },
      {
        "astId": 6971,
        "contract": "contracts/SubscriptionLicense.sol:SubscriptionLicense",
        "label": "i_licenseName",
        "offset": 0,
        "slot": "6",
        "type": "t_string_storage"
      },
      {
        "astId": 6973,
        "contract": "contracts/SubscriptionLicense.sol:SubscriptionLicense",
        "label": "i_licenseAgreementUrl",
        "offset": 0,
        "slot": "7",
        "type": "t_string_storage"
      },
      {
        "astId": 6977,
        "contract": "contracts/SubscriptionLicense.sol:SubscriptionLicense",
        "label": "nextValidTimestamp",
        "offset": 0,
        "slot": "8",
        "type": "t_mapping(t_bytes32,t_uint256)"
      }
    ],
    "types": {
      "t_address": {
        "encoding": "inplace",
        "label": "address",
        "numberOfBytes": "20"
      },
      "t_bytes32": {
        "encoding": "inplace",
        "label": "bytes32",
        "numberOfBytes": "32"
      },
      "t_mapping(t_bytes32,t_uint256)": {
        "encoding": "mapping",
        "key": "t_bytes32",
        "label": "mapping(bytes32 => uint256)",
        "numberOfBytes": "32",
        "value": "t_uint256"
      },
      "t_string_storage": {
        "encoding": "bytes",
        "label": "string",
        "numberOfBytes": "32"
      },
      "t_uint256": {
        "encoding": "inplace",
        "label": "uint256",
        "numberOfBytes": "32"
      }
    }
  }
}